{"abi":[{"type":"constructor","inputs":[],"stateMutability":"nonpayable"},{"type":"function","name":"DEFAULT_ADMIN_ROLE","inputs":[],"outputs":[{"name":"","type":"bytes32","internalType":"bytes32"}],"stateMutability":"view"},{"type":"function","name":"LOCKER_ROLE","inputs":[],"outputs":[{"name":"","type":"bytes32","internalType":"bytes32"}],"stateMutability":"view"},{"type":"function","name":"getLock","inputs":[{"name":"_lockId","type":"uint256","internalType":"uint256"}],"outputs":[{"name":"","type":"address","internalType":"address"},{"name":"","type":"uint256","internalType":"uint256"},{"name":"","type":"uint256","internalType":"uint256"},{"name":"","type":"address","internalType":"address"}],"stateMutability":"view"},{"type":"function","name":"getRoleAdmin","inputs":[{"name":"role","type":"bytes32","internalType":"bytes32"}],"outputs":[{"name":"","type":"bytes32","internalType":"bytes32"}],"stateMutability":"view"},{"type":"function","name":"grantRole","inputs":[{"name":"role","type":"bytes32","internalType":"bytes32"},{"name":"account","type":"address","internalType":"address"}],"outputs":[],"stateMutability":"nonpayable"},{"type":"function","name":"hasRole","inputs":[{"name":"role","type":"bytes32","internalType":"bytes32"},{"name":"account","type":"address","internalType":"address"}],"outputs":[{"name":"","type":"bool","internalType":"bool"}],"stateMutability":"view"},{"type":"function","name":"lock","inputs":[{"name":"_token","type":"address","internalType":"address"},{"name":"_amount","type":"uint256","internalType":"uint256"},{"name":"_unlockTime","type":"uint256","internalType":"uint256"},{"name":"_owner","type":"address","internalType":"address"}],"outputs":[],"stateMutability":"nonpayable"},{"type":"function","name":"lockCount","inputs":[],"outputs":[{"name":"","type":"uint256","internalType":"uint256"}],"stateMutability":"view"},{"type":"function","name":"locks","inputs":[{"name":"","type":"uint256","internalType":"uint256"}],"outputs":[{"name":"token","type":"address","internalType":"address"},{"name":"amount","type":"uint256","internalType":"uint256"},{"name":"unlockTime","type":"uint256","internalType":"uint256"},{"name":"owner","type":"address","internalType":"address"}],"stateMutability":"view"},{"type":"function","name":"renounceRole","inputs":[{"name":"role","type":"bytes32","internalType":"bytes32"},{"name":"callerConfirmation","type":"address","internalType":"address"}],"outputs":[],"stateMutability":"nonpayable"},{"type":"function","name":"revokeRole","inputs":[{"name":"role","type":"bytes32","internalType":"bytes32"},{"name":"account","type":"address","internalType":"address"}],"outputs":[],"stateMutability":"nonpayable"},{"type":"function","name":"supportsInterface","inputs":[{"name":"interfaceId","type":"bytes4","internalType":"bytes4"}],"outputs":[{"name":"","type":"bool","internalType":"bool"}],"stateMutability":"view"},{"type":"function","name":"withdraw","inputs":[{"name":"_lockId","type":"uint256","internalType":"uint256"}],"outputs":[],"stateMutability":"nonpayable"},{"type":"event","name":"LiquidityLocked","inputs":[{"name":"token","type":"address","indexed":true,"internalType":"address"},{"name":"amount","type":"uint256","indexed":false,"internalType":"uint256"},{"name":"unlockTime","type":"uint256","indexed":false,"internalType":"uint256"},{"name":"owner","type":"address","indexed":true,"internalType":"address"}],"anonymous":false},{"type":"event","name":"LiquidityWithdrawn","inputs":[{"name":"token","type":"address","indexed":true,"internalType":"address"},{"name":"amount","type":"uint256","indexed":false,"internalType":"uint256"},{"name":"owner","type":"address","indexed":true,"internalType":"address"}],"anonymous":false},{"type":"event","name":"RoleAdminChanged","inputs":[{"name":"role","type":"bytes32","indexed":true,"internalType":"bytes32"},{"name":"previousAdminRole","type":"bytes32","indexed":true,"internalType":"bytes32"},{"name":"newAdminRole","type":"bytes32","indexed":true,"internalType":"bytes32"}],"anonymous":false},{"type":"event","name":"RoleGranted","inputs":[{"name":"role","type":"bytes32","indexed":true,"internalType":"bytes32"},{"name":"account","type":"address","indexed":true,"internalType":"address"},{"name":"sender","type":"address","indexed":true,"internalType":"address"}],"anonymous":false},{"type":"event","name":"RoleRevoked","inputs":[{"name":"role","type":"bytes32","indexed":true,"internalType":"bytes32"},{"name":"account","type":"address","indexed":true,"internalType":"address"},{"name":"sender","type":"address","indexed":true,"internalType":"address"}],"anonymous":false},{"type":"error","name":"AccessControlBadConfirmation","inputs":[]},{"type":"error","name":"AccessControlUnauthorizedAccount","inputs":[{"name":"account","type":"address","internalType":"address"},{"name":"neededRole","type":"bytes32","internalType":"bytes32"}]},{"type":"error","name":"InvalidLockId","inputs":[]},{"type":"error","name":"InvalidOwnerAddress","inputs":[]},{"type":"error","name":"InvalidTokenAddress","inputs":[]},{"type":"error","name":"InvalidUnlockTime","inputs":[]},{"type":"error","name":"NoTokensToWithdraw","inputs":[]},{"type":"error","name":"NotLockOwner","inputs":[]},{"type":"error","name":"ReentrancyGuardReentrantCall","inputs":[]},{"type":"error","name":"SafeERC20FailedOperation","inputs":[{"name":"token","type":"address","internalType":"address"}]},{"type":"error","name":"TokensStillLocked","inputs":[]},{"type":"error","name":"ZeroAmount","inputs":[]}],"bytecode":{"object":"0x608060405234602357600180556013336027565b5060405161096b90816100b08239f35b5f80fd5b6001600160a01b0381165f9081525f516020610a1b5f395f51905f52602052604090205460ff1660aa576001600160a01b03165f8181525f516020610a1b5f395f51905f5260205260408120805460ff191660011790553391907f2f8788117e7eff1d82e926ec794901d17c78024a50270940304540a733656f0d8180a4600190565b505f9056fe6080806040526004361015610012575f80fd5b5f3560e01c90816301ffc9a714610693575080630852c9ea1461046d578063248a9ca31461043b5780632e1a7d4d1461034a5780632f2ff15d1461030d57806336568abe146102c957806391d14854146102805780639b10b6f514610263578063a217fddf14610249578063d547741f14610205578063d68f4dd114610153578063f3621367146101195763f4dadc61146100ab575f80fd5b3461011557602036600319011261011557600435600254811015610115576100d2906106fc565b50805460018201546002830154600390930154604080516001600160a01b03948516815260208101939093528201939093529116606082015280608081015b0390f35b5f80fd5b34610115575f3660031901126101155760206040517faf9a8bb3cbd6b84fbccefa71ff73e26e798553c6914585a84886212a46a902798152f35b34610115576020366003190112610115576004356002548110156101f65761017a906106fc565b506040519061018882610748565b61011160606001600160a01b03835416928385526001810154948560208201526001600160a01b03600360028401549384604085015201541692839101526040519485948592936001600160a01b039195946060938360808701981686526020860152604085015216910152565b63aefe60c360e01b5f5260045ffd5b34610115576040366003190112610115576102476004356102246106e6565b9061024261023d825f525f602052600160405f20015490565b610786565b610853565b005b34610115575f3660031901126101155760206040515f8152f35b34610115575f366003190112610115576020600254604051908152f35b34610115576040366003190112610115576102996106e6565b6004355f525f6020526001600160a01b0360405f2091165f52602052602060ff60405f2054166040519015158152f35b34610115576040366003190112610115576102e26106e6565b336001600160a01b038216036102fe5761024790600435610853565b63334bd91960e11b5f5260045ffd5b346101155760403660031901126101155761024760043561032c6106e6565b9061034561023d825f525f602052600160405f20015490565b6107c6565b34610115576020366003190112610115576004356002548110156101f657610371906106fc565b506001600160a01b03600382015416330361042c576002810154421061041d5760018101805491821561040e576001600160a01b035f91541691556103e060405163a9059cbb60e01b6020820152336024820152836044820152604481526103da606482610764565b826108d6565b6040519182527f725d2b2a111aeccedf70abe4c73292de678c38a3446d20b8bbc9ae328be13b0b60203393a3005b637dd28aa760e11b5f5260045ffd5b636f832da560e11b5f5260045ffd5b630472b49d60e51b5f5260045ffd5b346101155760203660031901126101155760206104656004355f525f602052600160405f20015490565b604051908152f35b34610115576080366003190112610115576004356001600160a01b038116809103610115576024359060443591606435926001600160a01b03841680940361011557335f9081527f3e7a7484ad32e5d459b6ed6a870672becd5b865934878407075b570e26e63f9b602052604090205460ff161561065c57821561064d57811561063e574281111561062f578315610620576105396040516323b872dd60e01b602082015233602482015230604482015283606482015260648152610533608482610764565b846108d6565b6040519161054683610748565b8383526020830191818352604084019281845260608501938785526002546801000000000000000081101561060c5780600161058592016002556106fc565b9290926105f9576001600160a01b03604096819360039383807f70dd2ea452c01de3d3a2ead13a24d1f199d318ad9a23778061d1c2bf137068a39c51161684198854161787555160018701555160028601555116920191166001600160a01b031982541617905582519182526020820152a3005b634e487b7160e01b5f525f60045260245ffd5b634e487b7160e01b5f52604160045260245ffd5b633649397d60e21b5f5260045ffd5b6352aba6d360e11b5f5260045ffd5b631f2a200560e01b5f5260045ffd5b630f58058360e11b5f5260045ffd5b63e2517d3f60e01b5f52336004527faf9a8bb3cbd6b84fbccefa71ff73e26e798553c6914585a84886212a46a9027960245260445ffd5b34610115576020366003190112610115576004359063ffffffff60e01b821680920361011557602091637965db0b60e01b81149081156106d5575b5015158152f35b6301ffc9a760e01b149050836106ce565b602435906001600160a01b038216820361011557565b6002548110156107345760025f81815291901b7f405787fa12a823e0f2b7631cc41b3ba8828b3321ca811111fa75cd3aa3bb5ace0191565b634e487b7160e01b5f52603260045260245ffd5b6080810190811067ffffffffffffffff82111761060c57604052565b90601f8019910116810190811067ffffffffffffffff82111761060c57604052565b805f525f60205260405f206001600160a01b0333165f5260205260ff60405f205416156107b05750565b63e2517d3f60e01b5f523360045260245260445ffd5b805f525f60205260405f206001600160a01b0383165f5260205260ff60405f205416155f1461084d57805f525f60205260405f206001600160a01b0383165f5260205260405f20600160ff198254161790556001600160a01b03339216907f2f8788117e7eff1d82e926ec794901d17c78024a50270940304540a733656f0d5f80a4600190565b50505f90565b805f525f60205260405f206001600160a01b0383165f5260205260ff60405f2054165f1461084d57805f525f60205260405f206001600160a01b0383165f5260205260405f2060ff1981541690556001600160a01b03339216907ff6391f5c32d9c69d2a47ea670b442974b53935d1edc7fd64eb21e047a839171b5f80a4600190565b905f602091828151910182855af11561092a575f513d61092157506001600160a01b0381163b155b6109055750565b6001600160a01b0390635274afe760e01b5f521660045260245ffd5b600114156108fe565b6040513d5f823e3d90fdfea264697066735822122027daa8e68185cabafe6f5c54bb5c2d8e64251b3ff673d348b9ab483b462adc0c64736f6c634300081c0033ad3228b676f7d3cd4284a5443f17f1962b36e491b30a40b2405849e597ba5fb5","linkReferences":{}},"methodIdentifiers":{"DEFAULT_ADMIN_ROLE()":"a217fddf","LOCKER_ROLE()":"f3621367","getLock(uint256)":"d68f4dd1","getRoleAdmin(bytes32)":"248a9ca3","grantRole(bytes32,address)":"2f2ff15d","hasRole(bytes32,address)":"91d14854","lock(address,uint256,uint256,address)":"0852c9ea","lockCount()":"9b10b6f5","locks(uint256)":"f4dadc61","renounceRole(bytes32,address)":"36568abe","revokeRole(bytes32,address)":"d547741f","supportsInterface(bytes4)":"01ffc9a7","withdraw(uint256)":"2e1a7d4d"},"id":44}