{"abi":[{"type":"constructor","inputs":[],"stateMutability":"nonpayable"},{"type":"function","name":"DEFAULT_ADMIN_ROLE","inputs":[],"outputs":[{"name":"","type":"bytes32","internalType":"bytes32"}],"stateMutability":"view"},{"type":"function","name":"LOCKER_ROLE","inputs":[],"outputs":[{"name":"","type":"bytes32","internalType":"bytes32"}],"stateMutability":"view"},{"type":"function","name":"getLock","inputs":[{"name":"_lockId","type":"uint256","internalType":"uint256"}],"outputs":[{"name":"","type":"address","internalType":"address"},{"name":"","type":"uint256","internalType":"uint256"},{"name":"","type":"uint256","internalType":"uint256"},{"name":"","type":"address","internalType":"address"}],"stateMutability":"view"},{"type":"function","name":"getLocksPaginated","inputs":[{"name":"_offset","type":"uint256","internalType":"uint256"},{"name":"_limit","type":"uint256","internalType":"uint256"}],"outputs":[{"name":"","type":"tuple[]","internalType":"struct LiquidityLocker.Lock[]","components":[{"name":"token","type":"address","internalType":"address"},{"name":"amount","type":"uint256","internalType":"uint256"},{"name":"unlockTime","type":"uint256","internalType":"uint256"},{"name":"owner","type":"address","internalType":"address"}]}],"stateMutability":"view"},{"type":"function","name":"getRoleAdmin","inputs":[{"name":"role","type":"bytes32","internalType":"bytes32"}],"outputs":[{"name":"","type":"bytes32","internalType":"bytes32"}],"stateMutability":"view"},{"type":"function","name":"getUserLockDetails","inputs":[{"name":"_user","type":"address","internalType":"address"}],"outputs":[{"name":"","type":"tuple[]","internalType":"struct LiquidityLocker.Lock[]","components":[{"name":"token","type":"address","internalType":"address"},{"name":"amount","type":"uint256","internalType":"uint256"},{"name":"unlockTime","type":"uint256","internalType":"uint256"},{"name":"owner","type":"address","internalType":"address"}]}],"stateMutability":"view"},{"type":"function","name":"getUserLocks","inputs":[{"name":"_user","type":"address","internalType":"address"}],"outputs":[{"name":"","type":"uint256[]","internalType":"uint256[]"}],"stateMutability":"view"},{"type":"function","name":"grantRole","inputs":[{"name":"role","type":"bytes32","internalType":"bytes32"},{"name":"account","type":"address","internalType":"address"}],"outputs":[],"stateMutability":"nonpayable"},{"type":"function","name":"hasRole","inputs":[{"name":"role","type":"bytes32","internalType":"bytes32"},{"name":"account","type":"address","internalType":"address"}],"outputs":[{"name":"","type":"bool","internalType":"bool"}],"stateMutability":"view"},{"type":"function","name":"lock","inputs":[{"name":"_token","type":"address","internalType":"address"},{"name":"_amount","type":"uint256","internalType":"uint256"},{"name":"_unlockTime","type":"uint256","internalType":"uint256"},{"name":"_owner","type":"address","internalType":"address"}],"outputs":[],"stateMutability":"nonpayable"},{"type":"function","name":"lockCount","inputs":[],"outputs":[{"name":"","type":"uint256","internalType":"uint256"}],"stateMutability":"view"},{"type":"function","name":"locks","inputs":[{"name":"","type":"uint256","internalType":"uint256"}],"outputs":[{"name":"token","type":"address","internalType":"address"},{"name":"amount","type":"uint256","internalType":"uint256"},{"name":"unlockTime","type":"uint256","internalType":"uint256"},{"name":"owner","type":"address","internalType":"address"}],"stateMutability":"view"},{"type":"function","name":"renounceRole","inputs":[{"name":"role","type":"bytes32","internalType":"bytes32"},{"name":"callerConfirmation","type":"address","internalType":"address"}],"outputs":[],"stateMutability":"nonpayable"},{"type":"function","name":"revokeRole","inputs":[{"name":"role","type":"bytes32","internalType":"bytes32"},{"name":"account","type":"address","internalType":"address"}],"outputs":[],"stateMutability":"nonpayable"},{"type":"function","name":"supportsInterface","inputs":[{"name":"interfaceId","type":"bytes4","internalType":"bytes4"}],"outputs":[{"name":"","type":"bool","internalType":"bool"}],"stateMutability":"view"},{"type":"function","name":"userLocks","inputs":[{"name":"","type":"address","internalType":"address"},{"name":"","type":"uint256","internalType":"uint256"}],"outputs":[{"name":"","type":"uint256","internalType":"uint256"}],"stateMutability":"view"},{"type":"function","name":"withdraw","inputs":[{"name":"_lockId","type":"uint256","internalType":"uint256"}],"outputs":[],"stateMutability":"nonpayable"},{"type":"event","name":"LiquidityLocked","inputs":[{"name":"lockId","type":"uint256","indexed":true,"internalType":"uint256"},{"name":"token","type":"address","indexed":true,"internalType":"address"},{"name":"amount","type":"uint256","indexed":false,"internalType":"uint256"},{"name":"unlockTime","type":"uint256","indexed":false,"internalType":"uint256"},{"name":"owner","type":"address","indexed":true,"internalType":"address"}],"anonymous":false},{"type":"event","name":"LiquidityWithdrawn","inputs":[{"name":"lockId","type":"uint256","indexed":true,"internalType":"uint256"},{"name":"token","type":"address","indexed":true,"internalType":"address"},{"name":"amount","type":"uint256","indexed":false,"internalType":"uint256"},{"name":"owner","type":"address","indexed":true,"internalType":"address"}],"anonymous":false},{"type":"event","name":"RoleAdminChanged","inputs":[{"name":"role","type":"bytes32","indexed":true,"internalType":"bytes32"},{"name":"previousAdminRole","type":"bytes32","indexed":true,"internalType":"bytes32"},{"name":"newAdminRole","type":"bytes32","indexed":true,"internalType":"bytes32"}],"anonymous":false},{"type":"event","name":"RoleGranted","inputs":[{"name":"role","type":"bytes32","indexed":true,"internalType":"bytes32"},{"name":"account","type":"address","indexed":true,"internalType":"address"},{"name":"sender","type":"address","indexed":true,"internalType":"address"}],"anonymous":false},{"type":"event","name":"RoleRevoked","inputs":[{"name":"role","type":"bytes32","indexed":true,"internalType":"bytes32"},{"name":"account","type":"address","indexed":true,"internalType":"address"},{"name":"sender","type":"address","indexed":true,"internalType":"address"}],"anonymous":false},{"type":"error","name":"AccessControlBadConfirmation","inputs":[]},{"type":"error","name":"AccessControlUnauthorizedAccount","inputs":[{"name":"account","type":"address","internalType":"address"},{"name":"neededRole","type":"bytes32","internalType":"bytes32"}]},{"type":"error","name":"InvalidLockId","inputs":[]},{"type":"error","name":"InvalidOwnerAddress","inputs":[]},{"type":"error","name":"InvalidTokenAddress","inputs":[]},{"type":"error","name":"InvalidUnlockTime","inputs":[]},{"type":"error","name":"NoTokensToWithdraw","inputs":[]},{"type":"error","name":"NotLockOwner","inputs":[]},{"type":"error","name":"ReentrancyGuardReentrantCall","inputs":[]},{"type":"error","name":"SafeERC20FailedOperation","inputs":[{"name":"token","type":"address","internalType":"address"}]},{"type":"error","name":"TokensStillLocked","inputs":[]},{"type":"error","name":"ZeroAmount","inputs":[]}],"bytecode":{"object":"0x608060405234602357600180556013336027565b50604051610e0690816100b08239f35b5f80fd5b6001600160a01b0381165f9081525f516020610eb65f395f51905f52602052604090205460ff1660aa576001600160a01b03165f8181525f516020610eb65f395f51905f5260205260408120805460ff191660011790553391907f2f8788117e7eff1d82e926ec794901d17c78024a50270940304540a733656f0d8180a4600190565b505f9056fe6080806040526004361015610012575f80fd5b5f3560e01c90816301ffc9a7146109c0575080630852c9ea1461075957806323a35de9146106a5578063248a9ca3146106735780632905bc23146105785780632e1a7d4d146104635780632f2ff15d1461042657806336568abe146103e257806391d14854146103995780639b10b6f51461037c578063a217fddf14610362578063aa33fedb1461030d578063d547741f146102c9578063d68f4dd114610252578063f234eae01461017f578063f3621367146101455763f4dadc61146100d7575f80fd5b3461014157602036600319011261014157600435600254811015610141576100fe90610ace565b50805460018201546002830154600390930154604080516001600160a01b03948516815260208101939093528201939093529116606082015280608081015b0390f35b5f80fd5b34610141575f3660031901126101415760206040517faf9a8bb3cbd6b84fbccefa71ff73e26e798553c6914585a84886212a46a902798152f35b34610141576020366003190112610141576001600160a01b036101a0610a13565b165f52600360205260405f20604051808260208294549384815201905f5260205f20925f5b8181106102395750506101da92500382610b22565b6101e48151610b69565b905f5b815181101561022b578061020f61020961020360019486610bd0565b51610ace565b50610be4565b6102198286610bd0565b526102248185610bd0565b50016101e7565b6040518061013d8582610a3f565b84548352600194850194869450602090930192016101c5565b34610141576020366003190112610141576004356002548110156102ba5761020961027c91610ace565b805160208083015160408085015160609586015182516001600160a01b03968716815294850193909352908301529190911691810191909152608090f35b63aefe60c360e01b5f5260045ffd5b346101415760403660031901126101415761030b6004356102e8610a29565b90610306610301825f525f602052600160405f20015490565b610c21565b610cee565b005b3461014157604036600319011261014157610326610a13565b6001600160a01b0360243591165f52600360205260405f2080548210156101415760209161035391610aa5565b90549060031b1c604051908152f35b34610141575f3660031901126101415760206040515f8152f35b34610141575f366003190112610141576020600254604051908152f35b34610141576040366003190112610141576103b2610a29565b6004355f525f6020526001600160a01b0360405f2091165f52602052602060ff60405f2054166040519015158152f35b34610141576040366003190112610141576103fb610a29565b336001600160a01b038216036104175761030b90600435610cee565b63334bd91960e11b5f5260045ffd5b346101415760403660031901126101415761030b600435610445610a29565b9061045e610301825f525f602052600160405f20015490565b610c61565b34610141576020366003190112610141576004356002600154146105695760026001556002548110156102ba5761049981610ace565b50906001600160a01b03600383015416330361055a576002820154421061054b576001820190815492831561053c576001600160a01b035f915416925561050a60405163a9059cbb60e01b602082015233602482015284604482015260448152610504606482610b22565b83610d71565b6040519283527f02d31f34254298313e6778d666b4072bcd026b864c045d3c3691db90d26b048260203394a460018055005b637dd28aa760e11b5f5260045ffd5b636f832da560e11b5f5260045ffd5b630472b49d60e51b5f5260045ffd5b633ee5aeb560e01b5f5260045ffd5b34610141576040366003190112610141576004356002548082101561062e5760243582019081831161061a57808211610612575b506105bf6105ba8383610b44565b610b69565b91805b8281106105d7576040518061013d8682610a3f565b8061060b6105e6600193610ace565b506105fa6105f48685610b44565b91610be4565b6106048289610bd0565b5286610bd0565b50016105c2565b9050826105ac565b634e487b7160e01b5f52601160045260245ffd5b60405162461bcd60e51b815260206004820152601460248201527f4f6666736574206f7574206f6620626f756e64730000000000000000000000006044820152606490fd5b3461014157602036600319011261014157602061069d6004355f525f602052600160405f20015490565b604051908152f35b34610141576020366003190112610141576001600160a01b036106c6610a13565b165f52600360205260405f20604051806020835491828152019081935f5260205f20905f5b8181106107435750505081610701910382610b22565b604051918291602083019060208452518091526040830191905f5b81811061072a575050500390f35b825184528594506020938401939092019160010161071c565b82548452602090930192600192830192016106eb565b3461014157608036600319011261014157610772610a13565b602435604435606435926001600160a01b03841680940361014157335f9081527f3e7a7484ad32e5d459b6ed6a870672becd5b865934878407075b570e26e63f9b602052604090205460ff1615610989576001600160a01b031691821561097a57801561096b574282111561095c57831561094d5760025491845f52600360205260405f208054680100000000000000008110156109395761081991600182018155610aa5565b81549060031b9085821b915f19901b19161790556040519161083a83610b06565b84835260208301918183526040840192818452606085019388855260025468010000000000000000811015610939578060016108799201600255610ace565b929092610926576001600160a01b03604096819360039383807f3e9c5371795df8e8c4d64fabb2cf571f5ac7cdfbd38820c269a31497baa1eaf49c51161684198854161787555160018701555160028601555116920191166001600160a01b031982541617905561091983516323b872dd60e01b602082015233602482015230604482015283606482015260648152610913608482610b22565b87610d71565b82519182526020820152a4005b634e487b7160e01b5f525f60045260245ffd5b634e487b7160e01b5f52604160045260245ffd5b633649397d60e21b5f5260045ffd5b6352aba6d360e11b5f5260045ffd5b631f2a200560e01b5f5260045ffd5b630f58058360e11b5f5260045ffd5b63e2517d3f60e01b5f52336004527faf9a8bb3cbd6b84fbccefa71ff73e26e798553c6914585a84886212a46a9027960245260445ffd5b34610141576020366003190112610141576004359063ffffffff60e01b821680920361014157602091637965db0b60e01b8114908115610a02575b5015158152f35b6301ffc9a760e01b149050836109fb565b600435906001600160a01b038216820361014157565b602435906001600160a01b038216820361014157565b60206040818301928281528451809452019201905f5b818110610a625750505090565b909192602060806001926001600160a01b036060885182815116845285810151868501526040810151604085015201511660608201520194019101919091610a55565b8054821015610aba575f5260205f2001905f90565b634e487b7160e01b5f52603260045260245ffd5b600254811015610aba5760025f81815291901b7f405787fa12a823e0f2b7631cc41b3ba8828b3321ca811111fa75cd3aa3bb5ace0191565b6080810190811067ffffffffffffffff82111761093957604052565b90601f8019910116810190811067ffffffffffffffff82111761093957604052565b9190820391821161061a57565b67ffffffffffffffff81116109395760051b60200190565b90610b7382610b51565b610b806040519182610b22565b8281528092610b91601f1991610b51565b01905f5b828110610ba157505050565b602090604051610bb081610b06565b5f81525f838201525f60408201525f606082015282828501015201610b95565b8051821015610aba5760209160051b010190565b90604051610bf181610b06565b60606001600160a01b03600383958281541685526001810154602086015260028101546040860152015416910152565b805f525f60205260405f206001600160a01b0333165f5260205260ff60405f20541615610c4b5750565b63e2517d3f60e01b5f523360045260245260445ffd5b805f525f60205260405f206001600160a01b0383165f5260205260ff60405f205416155f14610ce857805f525f60205260405f206001600160a01b0383165f5260205260405f20600160ff198254161790556001600160a01b03339216907f2f8788117e7eff1d82e926ec794901d17c78024a50270940304540a733656f0d5f80a4600190565b50505f90565b805f525f60205260405f206001600160a01b0383165f5260205260ff60405f2054165f14610ce857805f525f60205260405f206001600160a01b0383165f5260205260405f2060ff1981541690556001600160a01b03339216907ff6391f5c32d9c69d2a47ea670b442974b53935d1edc7fd64eb21e047a839171b5f80a4600190565b905f602091828151910182855af115610dc5575f513d610dbc57506001600160a01b0381163b155b610da05750565b6001600160a01b0390635274afe760e01b5f521660045260245ffd5b60011415610d99565b6040513d5f823e3d90fdfea2646970667358221220d02b4904419499a595cae4226f81f756178efb7a857f7df69b48722ddbb08e0664736f6c634300081c0033ad3228b676f7d3cd4284a5443f17f1962b36e491b30a40b2405849e597ba5fb5","linkReferences":{}},"methodIdentifiers":{"DEFAULT_ADMIN_ROLE()":"a217fddf","LOCKER_ROLE()":"f3621367","getLock(uint256)":"d68f4dd1","getLocksPaginated(uint256,uint256)":"2905bc23","getRoleAdmin(bytes32)":"248a9ca3","getUserLockDetails(address)":"f234eae0","getUserLocks(address)":"23a35de9","grantRole(bytes32,address)":"2f2ff15d","hasRole(bytes32,address)":"91d14854","lock(address,uint256,uint256,address)":"0852c9ea","lockCount()":"9b10b6f5","locks(uint256)":"f4dadc61","renounceRole(bytes32,address)":"36568abe","revokeRole(bytes32,address)":"d547741f","supportsInterface(bytes4)":"01ffc9a7","userLocks(address,uint256)":"aa33fedb","withdraw(uint256)":"2e1a7d4d"},"id":60}