{"abi":[{"type":"constructor","inputs":[{"name":"_weth","type":"address","internalType":"address"},{"name":"_token","type":"address","internalType":"address"},{"name":"_uniswapV2Router02","type":"address","internalType":"address"},{"name":"_options","type":"tuple","internalType":"struct Presale.PresaleOptions","components":[{"name":"tokenDeposit","type":"uint256","internalType":"uint256"},{"name":"hardCap","type":"uint256","internalType":"uint256"},{"name":"softCap","type":"uint256","internalType":"uint256"},{"name":"min","type":"uint256","internalType":"uint256"},{"name":"max","type":"uint256","internalType":"uint256"},{"name":"presaleRate","type":"uint256","internalType":"uint256"},{"name":"listingRate","type":"uint256","internalType":"uint256"},{"name":"liquidityBps","type":"uint256","internalType":"uint256"},{"name":"slippageBps","type":"uint256","internalType":"uint256"},{"name":"start","type":"uint256","internalType":"uint256"},{"name":"end","type":"uint256","internalType":"uint256"},{"name":"lockupDuration","type":"uint256","internalType":"uint256"},{"name":"vestingPercentage","type":"uint256","internalType":"uint256"},{"name":"vestingDuration","type":"uint256","internalType":"uint256"},{"name":"leftoverTokenOption","type":"uint256","internalType":"uint256"},{"name":"currency","type":"address","internalType":"address"},{"name":"whitelistType","type":"uint8","internalType":"enum Presale.WhitelistType"},{"name":"merkleRoot","type":"bytes32","internalType":"bytes32"},{"name":"nftContractAddress","type":"address","internalType":"address"}]},{"name":"_creator","type":"address","internalType":"address"},{"name":"_liquidityLocker","type":"address","internalType":"address"},{"name":"_vestingContract","type":"address","internalType":"address"},{"name":"_housePercentage","type":"uint256","internalType":"uint256"},{"name":"_houseAddress","type":"address","internalType":"address"},{"name":"_presaleFactoryAddress","type":"address","internalType":"address"}],"stateMutability":"nonpayable"},{"type":"receive","stateMutability":"payable"},{"type":"function","name":"BASIS_POINTS","inputs":[],"outputs":[{"name":"","type":"uint256","internalType":"uint256"}],"stateMutability":"view"},{"type":"function","name":"_presaleFactory","inputs":[],"outputs":[{"name":"","type":"address","internalType":"address"}],"stateMutability":"view"},{"type":"function","name":"calculateTotalTokensNeeded","inputs":[],"outputs":[{"name":"","type":"uint256","internalType":"uint256"}],"stateMutability":"view"},{"type":"function","name":"cancel","inputs":[],"outputs":[{"name":"","type":"bool","internalType":"bool"}],"stateMutability":"nonpayable"},{"type":"function","name":"claim","inputs":[],"outputs":[{"name":"","type":"uint256","internalType":"uint256"}],"stateMutability":"nonpayable"},{"type":"function","name":"claimDeadline","inputs":[],"outputs":[{"name":"","type":"uint256","internalType":"uint256"}],"stateMutability":"view"},{"type":"function","name":"contribute","inputs":[{"name":"_merkleProof","type":"bytes32[]","internalType":"bytes32[]"}],"outputs":[],"stateMutability":"payable"},{"type":"function","name":"contributeStablecoin","inputs":[{"name":"_amount","type":"uint256","internalType":"uint256"},{"name":"_merkleProof","type":"bytes32[]","internalType":"bytes32[]"}],"outputs":[],"stateMutability":"nonpayable"},{"type":"function","name":"contributions","inputs":[{"name":"","type":"address","internalType":"address"}],"outputs":[{"name":"","type":"uint256","internalType":"uint256"}],"stateMutability":"view"},{"type":"function","name":"contributors","inputs":[{"name":"","type":"uint256","internalType":"uint256"}],"outputs":[{"name":"","type":"address","internalType":"address"}],"stateMutability":"view"},{"type":"function","name":"deposit","inputs":[],"outputs":[{"name":"","type":"uint256","internalType":"uint256"}],"stateMutability":"nonpayable"},{"type":"function","name":"extendClaimDeadline","inputs":[{"name":"_newDeadline","type":"uint256","internalType":"uint256"}],"outputs":[],"stateMutability":"nonpayable"},{"type":"function","name":"factory","inputs":[],"outputs":[{"name":"","type":"address","internalType":"address"}],"stateMutability":"view"},{"type":"function","name":"finalize","inputs":[],"outputs":[{"name":"","type":"bool","internalType":"bool"}],"stateMutability":"nonpayable"},{"type":"function","name":"getContribution","inputs":[{"name":"_contributor","type":"address","internalType":"address"}],"outputs":[{"name":"","type":"uint256","internalType":"uint256"}],"stateMutability":"view"},{"type":"function","name":"getContributorCount","inputs":[],"outputs":[{"name":"","type":"uint256","internalType":"uint256"}],"stateMutability":"view"},{"type":"function","name":"getContributors","inputs":[],"outputs":[{"name":"","type":"address[]","internalType":"address[]"}],"stateMutability":"view"},{"type":"function","name":"getOptions","inputs":[],"outputs":[{"name":"","type":"tuple","internalType":"struct Presale.PresaleOptions","components":[{"name":"tokenDeposit","type":"uint256","internalType":"uint256"},{"name":"hardCap","type":"uint256","internalType":"uint256"},{"name":"softCap","type":"uint256","internalType":"uint256"},{"name":"min","type":"uint256","internalType":"uint256"},{"name":"max","type":"uint256","internalType":"uint256"},{"name":"presaleRate","type":"uint256","internalType":"uint256"},{"name":"listingRate","type":"uint256","internalType":"uint256"},{"name":"liquidityBps","type":"uint256","internalType":"uint256"},{"name":"slippageBps","type":"uint256","internalType":"uint256"},{"name":"start","type":"uint256","internalType":"uint256"},{"name":"end","type":"uint256","internalType":"uint256"},{"name":"lockupDuration","type":"uint256","internalType":"uint256"},{"name":"vestingPercentage","type":"uint256","internalType":"uint256"},{"name":"vestingDuration","type":"uint256","internalType":"uint256"},{"name":"leftoverTokenOption","type":"uint256","internalType":"uint256"},{"name":"currency","type":"address","internalType":"address"},{"name":"whitelistType","type":"uint8","internalType":"enum Presale.WhitelistType"},{"name":"merkleRoot","type":"bytes32","internalType":"bytes32"},{"name":"nftContractAddress","type":"address","internalType":"address"}]}],"stateMutability":"view"},{"type":"function","name":"getPresaleOptions","inputs":[],"outputs":[{"name":"","type":"tuple","internalType":"struct Presale.PresaleOptions","components":[{"name":"tokenDeposit","type":"uint256","internalType":"uint256"},{"name":"hardCap","type":"uint256","internalType":"uint256"},{"name":"softCap","type":"uint256","internalType":"uint256"},{"name":"min","type":"uint256","internalType":"uint256"},{"name":"max","type":"uint256","internalType":"uint256"},{"name":"presaleRate","type":"uint256","internalType":"uint256"},{"name":"listingRate","type":"uint256","internalType":"uint256"},{"name":"liquidityBps","type":"uint256","internalType":"uint256"},{"name":"slippageBps","type":"uint256","internalType":"uint256"},{"name":"start","type":"uint256","internalType":"uint256"},{"name":"end","type":"uint256","internalType":"uint256"},{"name":"lockupDuration","type":"uint256","internalType":"uint256"},{"name":"vestingPercentage","type":"uint256","internalType":"uint256"},{"name":"vestingDuration","type":"uint256","internalType":"uint256"},{"name":"leftoverTokenOption","type":"uint256","internalType":"uint256"},{"name":"currency","type":"address","internalType":"address"},{"name":"whitelistType","type":"uint8","internalType":"enum Presale.WhitelistType"},{"name":"merkleRoot","type":"bytes32","internalType":"bytes32"},{"name":"nftContractAddress","type":"address","internalType":"address"}]}],"stateMutability":"view"},{"type":"function","name":"getTotalContributed","inputs":[],"outputs":[{"name":"","type":"uint256","internalType":"uint256"}],"stateMutability":"view"},{"type":"function","name":"houseAddress","inputs":[],"outputs":[{"name":"","type":"address","internalType":"address"}],"stateMutability":"view"},{"type":"function","name":"housePercentage","inputs":[],"outputs":[{"name":"","type":"uint256","internalType":"uint256"}],"stateMutability":"view"},{"type":"function","name":"initializeDeposit","inputs":[],"outputs":[{"name":"","type":"uint256","internalType":"uint256"}],"stateMutability":"nonpayable"},{"type":"function","name":"isAllowedLiquidityBps","inputs":[{"name":"_bps","type":"uint256","internalType":"uint256"}],"outputs":[{"name":"","type":"bool","internalType":"bool"}],"stateMutability":"view"},{"type":"function","name":"liquidityLocker","inputs":[],"outputs":[{"name":"","type":"address","internalType":"contract LiquidityLocker"}],"stateMutability":"view"},{"type":"function","name":"options","inputs":[],"outputs":[{"name":"tokenDeposit","type":"uint256","internalType":"uint256"},{"name":"hardCap","type":"uint256","internalType":"uint256"},{"name":"softCap","type":"uint256","internalType":"uint256"},{"name":"min","type":"uint256","internalType":"uint256"},{"name":"max","type":"uint256","internalType":"uint256"},{"name":"presaleRate","type":"uint256","internalType":"uint256"},{"name":"listingRate","type":"uint256","internalType":"uint256"},{"name":"liquidityBps","type":"uint256","internalType":"uint256"},{"name":"slippageBps","type":"uint256","internalType":"uint256"},{"name":"start","type":"uint256","internalType":"uint256"},{"name":"end","type":"uint256","internalType":"uint256"},{"name":"lockupDuration","type":"uint256","internalType":"uint256"},{"name":"vestingPercentage","type":"uint256","internalType":"uint256"},{"name":"vestingDuration","type":"uint256","internalType":"uint256"},{"name":"leftoverTokenOption","type":"uint256","internalType":"uint256"},{"name":"currency","type":"address","internalType":"address"},{"name":"whitelistType","type":"uint8","internalType":"enum Presale.WhitelistType"},{"name":"merkleRoot","type":"bytes32","internalType":"bytes32"},{"name":"nftContractAddress","type":"address","internalType":"address"}],"stateMutability":"view"},{"type":"function","name":"owner","inputs":[],"outputs":[{"name":"","type":"address","internalType":"address"}],"stateMutability":"view"},{"type":"function","name":"ownerBalance","inputs":[],"outputs":[{"name":"","type":"uint256","internalType":"uint256"}],"stateMutability":"view"},{"type":"function","name":"pause","inputs":[],"outputs":[],"stateMutability":"nonpayable"},{"type":"function","name":"paused","inputs":[],"outputs":[{"name":"","type":"bool","internalType":"bool"}],"stateMutability":"view"},{"type":"function","name":"refund","inputs":[],"outputs":[{"name":"","type":"uint256","internalType":"uint256"}],"stateMutability":"nonpayable"},{"type":"function","name":"renounceOwnership","inputs":[],"outputs":[],"stateMutability":"nonpayable"},{"type":"function","name":"rescueTokens","inputs":[{"name":"_erc20Token","type":"address","internalType":"address"},{"name":"_to","type":"address","internalType":"address"},{"name":"_amount","type":"uint256","internalType":"uint256"}],"outputs":[],"stateMutability":"nonpayable"},{"type":"function","name":"state","inputs":[],"outputs":[{"name":"","type":"uint8","internalType":"enum Presale.PresaleState"}],"stateMutability":"view"},{"type":"function","name":"toggleWhitelist","inputs":[{"name":"enabled","type":"bool","internalType":"bool"}],"outputs":[],"stateMutability":"nonpayable"},{"type":"function","name":"token","inputs":[],"outputs":[{"name":"","type":"address","internalType":"contract ERC20"}],"stateMutability":"view"},{"type":"function","name":"tokenBalance","inputs":[],"outputs":[{"name":"","type":"uint256","internalType":"uint256"}],"stateMutability":"view"},{"type":"function","name":"tokensClaimable","inputs":[],"outputs":[{"name":"","type":"uint256","internalType":"uint256"}],"stateMutability":"view"},{"type":"function","name":"tokensLiquidity","inputs":[],"outputs":[{"name":"","type":"uint256","internalType":"uint256"}],"stateMutability":"view"},{"type":"function","name":"totalRaised","inputs":[],"outputs":[{"name":"","type":"uint256","internalType":"uint256"}],"stateMutability":"view"},{"type":"function","name":"totalRefundable","inputs":[],"outputs":[{"name":"","type":"uint256","internalType":"uint256"}],"stateMutability":"view"},{"type":"function","name":"transferOwnership","inputs":[{"name":"newOwner","type":"address","internalType":"address"}],"outputs":[],"stateMutability":"nonpayable"},{"type":"function","name":"uniswapV2Router02","inputs":[],"outputs":[{"name":"","type":"address","internalType":"contract IUniswapV2Router02"}],"stateMutability":"view"},{"type":"function","name":"unpause","inputs":[],"outputs":[],"stateMutability":"nonpayable"},{"type":"function","name":"updateWhitelist","inputs":[{"name":"addresses","type":"address[]","internalType":"address[]"},{"name":"add","type":"bool","internalType":"bool"}],"outputs":[],"stateMutability":"nonpayable"},{"type":"function","name":"userTokens","inputs":[{"name":"_contributor","type":"address","internalType":"address"}],"outputs":[{"name":"","type":"uint256","internalType":"uint256"}],"stateMutability":"view"},{"type":"function","name":"vestingContract","inputs":[],"outputs":[{"name":"","type":"address","internalType":"contract Vesting"}],"stateMutability":"view"},{"type":"function","name":"weth","inputs":[],"outputs":[{"name":"","type":"address","internalType":"address"}],"stateMutability":"view"},{"type":"function","name":"whitelistEnabled","inputs":[],"outputs":[{"name":"","type":"bool","internalType":"bool"}],"stateMutability":"view"},{"type":"function","name":"withdraw","inputs":[],"outputs":[],"stateMutability":"nonpayable"},{"type":"event","name":"Cancel","inputs":[{"name":"owner","type":"address","indexed":true,"internalType":"address"},{"name":"timestamp","type":"uint256","indexed":false,"internalType":"uint256"}],"anonymous":false},{"type":"event","name":"ClaimDeadlineExtended","inputs":[{"name":"newDeadline","type":"uint256","indexed":false,"internalType":"uint256"}],"anonymous":false},{"type":"event","name":"Contribution","inputs":[{"name":"contributor","type":"address","indexed":true,"internalType":"address"},{"name":"amount","type":"uint256","indexed":false,"internalType":"uint256"},{"name":"isETH","type":"bool","indexed":false,"internalType":"bool"}],"anonymous":false},{"type":"event","name":"Deposit","inputs":[{"name":"sender","type":"address","indexed":true,"internalType":"address"},{"name":"amount","type":"uint256","indexed":false,"internalType":"uint256"},{"name":"timestamp","type":"uint256","indexed":false,"internalType":"uint256"}],"anonymous":false},{"type":"event","name":"Finalized","inputs":[{"name":"owner","type":"address","indexed":true,"internalType":"address"},{"name":"amountRaised","type":"uint256","indexed":false,"internalType":"uint256"},{"name":"timestamp","type":"uint256","indexed":false,"internalType":"uint256"}],"anonymous":false},{"type":"event","name":"HouseFundsDistributed","inputs":[{"name":"house","type":"address","indexed":true,"internalType":"address"},{"name":"amount","type":"uint256","indexed":false,"internalType":"uint256"}],"anonymous":false},{"type":"event","name":"LeftoverTokensBurned","inputs":[{"name":"amount","type":"uint256","indexed":false,"internalType":"uint256"}],"anonymous":false},{"type":"event","name":"LeftoverTokensReturned","inputs":[{"name":"amount","type":"uint256","indexed":false,"internalType":"uint256"},{"name":"beneficiary","type":"address","indexed":true,"internalType":"address"}],"anonymous":false},{"type":"event","name":"LeftoverTokensVested","inputs":[{"name":"amount","type":"uint256","indexed":false,"internalType":"uint256"},{"name":"beneficiary","type":"address","indexed":true,"internalType":"address"}],"anonymous":false},{"type":"event","name":"LiquidityAdded","inputs":[{"name":"pair","type":"address","indexed":true,"internalType":"address"},{"name":"lpAmount","type":"uint256","indexed":false,"internalType":"uint256"},{"name":"unlockTime","type":"uint256","indexed":false,"internalType":"uint256"}],"anonymous":false},{"type":"event","name":"MerkleRootUpdated","inputs":[{"name":"_merkleRoot","type":"bytes32","indexed":true,"internalType":"bytes32"}],"anonymous":false},{"type":"event","name":"OwnershipTransferred","inputs":[{"name":"previousOwner","type":"address","indexed":true,"internalType":"address"},{"name":"newOwner","type":"address","indexed":true,"internalType":"address"}],"anonymous":false},{"type":"event","name":"Paused","inputs":[{"name":"account","type":"address","indexed":true,"internalType":"address"}],"anonymous":false},{"type":"event","name":"PresaleCreated","inputs":[{"name":"creator","type":"address","indexed":true,"internalType":"address"},{"name":"presale","type":"address","indexed":true,"internalType":"address"},{"name":"token","type":"address","indexed":true,"internalType":"address"},{"name":"start","type":"uint256","indexed":false,"internalType":"uint256"},{"name":"end","type":"uint256","indexed":false,"internalType":"uint256"}],"anonymous":false},{"type":"event","name":"Purchase","inputs":[{"name":"buyer","type":"address","indexed":true,"internalType":"address"},{"name":"amount","type":"uint256","indexed":false,"internalType":"uint256"}],"anonymous":false},{"type":"event","name":"Refund","inputs":[{"name":"contributor","type":"address","indexed":true,"internalType":"address"},{"name":"amount","type":"uint256","indexed":false,"internalType":"uint256"},{"name":"timestamp","type":"uint256","indexed":false,"internalType":"uint256"}],"anonymous":false},{"type":"event","name":"TokenClaim","inputs":[{"name":"claimer","type":"address","indexed":true,"internalType":"address"},{"name":"amount","type":"uint256","indexed":false,"internalType":"uint256"},{"name":"timestamp","type":"uint256","indexed":false,"internalType":"uint256"}],"anonymous":false},{"type":"event","name":"TokensRescued","inputs":[{"name":"token","type":"address","indexed":true,"internalType":"address"},{"name":"to","type":"address","indexed":true,"internalType":"address"},{"name":"amount","type":"uint256","indexed":false,"internalType":"uint256"}],"anonymous":false},{"type":"event","name":"Unpaused","inputs":[{"name":"account","type":"address","indexed":true,"internalType":"address"}],"anonymous":false},{"type":"event","name":"WhitelistToggled","inputs":[{"name":"enabled","type":"bool","indexed":false,"internalType":"bool"}],"anonymous":false},{"type":"event","name":"WhitelistUpdated","inputs":[{"name":"contributor","type":"address","indexed":true,"internalType":"address"},{"name":"added","type":"bool","indexed":false,"internalType":"bool"}],"anonymous":false},{"type":"event","name":"Withdrawn","inputs":[{"name":"owner","type":"address","indexed":true,"internalType":"address"},{"name":"amount","type":"uint256","indexed":false,"internalType":"uint256"}],"anonymous":false},{"type":"error","name":"AlreadyPaused","inputs":[]},{"type":"error","name":"BatchTooLarge","inputs":[]},{"type":"error","name":"BelowMinimumContribution","inputs":[]},{"type":"error","name":"CannotRescueBeforeFinalization","inputs":[]},{"type":"error","name":"CannotRescueBeforeFinalizationOrCancellation","inputs":[]},{"type":"error","name":"CannotRescuePresaleTokens","inputs":[]},{"type":"error","name":"ClaimPeriodExpired","inputs":[]},{"type":"error","name":"ContractPaused","inputs":[]},{"type":"error","name":"DeprecatedFunction","inputs":[]},{"type":"error","name":"ETHNotAccepted","inputs":[]},{"type":"error","name":"ExceedsMaximumContribution","inputs":[]},{"type":"error","name":"FailedCall","inputs":[]},{"type":"error","name":"HardCapExceed","inputs":[]},{"type":"error","name":"HardCapExceeded","inputs":[]},{"type":"error","name":"InsufficientBalance","inputs":[{"name":"balance","type":"uint256","internalType":"uint256"},{"name":"needed","type":"uint256","internalType":"uint256"}]},{"type":"error","name":"InsufficientContractBalance","inputs":[]},{"type":"error","name":"InsufficientTokenBalance","inputs":[]},{"type":"error","name":"InsufficientTokenDeposit","inputs":[{"name":"amount","type":"uint256","internalType":"uint256"},{"name":"totalTokensNeeded","type":"uint256","internalType":"uint256"}]},{"type":"error","name":"InvalidAddress","inputs":[]},{"type":"error","name":"InvalidCapSettings","inputs":[]},{"type":"error","name":"InvalidCapValue","inputs":[]},{"type":"error","name":"InvalidContributionLimits","inputs":[]},{"type":"error","name":"InvalidContributorAddress","inputs":[]},{"type":"error","name":"InvalidCurrencyDecimals","inputs":[]},{"type":"error","name":"InvalidDeadline","inputs":[]},{"type":"error","name":"InvalidHouseAddress","inputs":[]},{"type":"error","name":"InvalidHouseConfiguration","inputs":[]},{"type":"error","name":"InvalidHousePercentage","inputs":[]},{"type":"error","name":"InvalidInitialization","inputs":[]},{"type":"error","name":"InvalidInitializationParameters","inputs":[]},{"type":"error","name":"InvalidLeftoverTokenOption","inputs":[]},{"type":"error","name":"InvalidLimitValue","inputs":[]},{"type":"error","name":"InvalidLiquidityAmounts","inputs":[]},{"type":"error","name":"InvalidLiquidityBps","inputs":[]},{"type":"error","name":"InvalidLiquidityValue","inputs":[]},{"type":"error","name":"InvalidLockupDuration","inputs":[]},{"type":"error","name":"InvalidMerkleRoot","inputs":[]},{"type":"error","name":"InvalidNftContractAddress","inputs":[]},{"type":"error","name":"InvalidRates","inputs":[]},{"type":"error","name":"InvalidRouter","inputs":[]},{"type":"error","name":"InvalidSettings","inputs":[]},{"type":"error","name":"InvalidSlippage","inputs":[]},{"type":"error","name":"InvalidState","inputs":[{"name":"currentState","type":"uint8","internalType":"uint8"}]},{"type":"error","name":"InvalidTimestampValue","inputs":[]},{"type":"error","name":"InvalidTimestamps","inputs":[]},{"type":"error","name":"InvalidVestingDuration","inputs":[]},{"type":"error","name":"InvalidVestingPercentage","inputs":[]},{"type":"error","name":"LPLockFailed","inputs":[]},{"type":"error","name":"LPLockFailedReason","inputs":[{"name":"reason","type":"string","internalType":"string"}]},{"type":"error","name":"LiquificationFailed","inputs":[]},{"type":"error","name":"LiquificationFailedReason","inputs":[{"name":"reason","type":"string","internalType":"string"}]},{"type":"error","name":"LiquificationFailedReasonBytes","inputs":[{"name":"reason","type":"bytes","internalType":"bytes"}]},{"type":"error","name":"LiquificationYieldedZeroLP","inputs":[]},{"type":"error","name":"NftCheckFailed","inputs":[]},{"type":"error","name":"NoFundsToRefund","inputs":[]},{"type":"error","name":"NoFundsToWithdraw","inputs":[]},{"type":"error","name":"NoTokensToClaim","inputs":[]},{"type":"error","name":"NotActive","inputs":[]},{"type":"error","name":"NotClaimable","inputs":[]},{"type":"error","name":"NotFactory","inputs":[]},{"type":"error","name":"NotInPurchasePeriod","inputs":[]},{"type":"error","name":"NotNftHolder","inputs":[]},{"type":"error","name":"NotPaused","inputs":[]},{"type":"error","name":"NotRefundable","inputs":[]},{"type":"error","name":"NotWhitelisted","inputs":[]},{"type":"error","name":"OwnableInvalidOwner","inputs":[{"name":"owner","type":"address","internalType":"address"}]},{"type":"error","name":"OwnableUnauthorizedAccount","inputs":[{"name":"account","type":"address","internalType":"address"}]},{"type":"error","name":"PairAddressZero","inputs":[]},{"type":"error","name":"PairCreationFailed","inputs":[{"name":"token","type":"address","internalType":"address"},{"name":"pairCurrency","type":"address","internalType":"address"}]},{"type":"error","name":"PresaleNotEnded","inputs":[]},{"type":"error","name":"PurchaseBelowMinimum","inputs":[]},{"type":"error","name":"PurchaseLimitExceed","inputs":[]},{"type":"error","name":"ReentrancyGuardReentrantCall","inputs":[]},{"type":"error","name":"SafeERC20FailedOperation","inputs":[{"name":"token","type":"address","internalType":"address"}]},{"type":"error","name":"SoftCapNotReached","inputs":[]},{"type":"error","name":"SoftCapTooLow","inputs":[]},{"type":"error","name":"StablecoinNotAccepted","inputs":[]},{"type":"error","name":"Unauthorized","inputs":[]},{"type":"error","name":"ZeroAmount","inputs":[]},{"type":"error","name":"ZeroDecimals","inputs":[]},{"type":"error","name":"ZeroLiquidityAmounts","inputs":[]},{"type":"error","name":"ZeroTokensForContribution","inputs":[]}],"bytecode":{"object":"0x6101a06040523461066557613aae803803809161001e826101a061089e565b6101a0396103808112610665576100366101a06108c1565b906100426101c06108c1565b6102606100506101e06108c1565b92605f190112610665576040519261026084016001600160401b0381118582101761087757604090815261020051855261022051602086015261024051908501526102605160608501526102805160808501526102a05160a08501526102c05160c08501526102e05160e085015261030051610100850152610320516101208501526103405161014085015261036051610160850152610380516101808501526103a0516101a08501526103c0516101c085015261010f6103e06108c1565b6101e0850152610400516003811015610665576102008501526104205161022085015261013d6104406108c1565b61024085015261014e6104606108c1565b9261015a6104806108c1565b6101656104a06108c1565b6104c051916101756104e06108c1565b936101816105006108c1565b956001600160a01b0389161561088b575f80546001600160a01b031981166001600160a01b038c8116918217845560405193919216907f8be0079c531659141344cd1fd0a4f28419497f9722a3daafe3b4186f6b6457e09080a36001805560c081016001600160401b038111828210176108775760405261138881526117706020820152611b586040820152611f406060820152612328608082015261271060a0820152601b546006601b5580600610610817575b50601b5f5260205f20905f5b600681106107ff575050506001600160a01b0381161580156107ee575b80156107dd575b6107bd576001600160a01b0383161580156107cc575b6107bd5760026101c08b0151116107ae576101f48511610796576001600160a01b03861615806107a5575b6107965760208a01518015908115610789575b811561077b575b5061076c5760808a0151801590811561075f575b8115610750575b8115610742575b506107335760a08a01518015908115610726575b8115610717575b50610708576101208a01514281109081156106f8575b506106e9576101808a015161271081119081156106cc575b506106bd576102008a0151600381101561061f57600114806106b0575b6106a1576102008a0151600381101561061f576002148061068b575b61067c57610180526001600160a01b03878116610120521661014081905260405163c45a015560e01b815290602090829060049082905afa908115610671575f91610633575b506101609081526001600160a01b03918216608090815292821660a090815260c094855260e0958652895160055560208a015160065560408a015160075560608a01516008559289015160095591880151600a5591870151600b5591860151600c55610100860151600d55610120860151600e55610140860151600f55908501516010556101808501516011556101a08501516012556101c08501516013556101e0850151601480546001600160a01b03191691909216179055610200840151600381101561061f576014805460ff60a01b191660a09290921b60ff60a01b16919091179055610220840151601555610240840151601680546001600160a01b0319166001600160a01b0392909216919091179055610100526017805460ff19169055610200830151600381101561061f5761ff0060035491151560081b169061ff00191617600355610140610120840151930151604051938452602084015260018060a01b0316917fdf058c371fcd1a975a9f8b29fb3823e0f4fcc990e97f681cca2bfe085eae91d96040309360018060a01b031692a46040516131d890816108d68239608051818181610e9d0152611a49015260a0518181816110e0015281816113860152612b1c015260c0518181816115ce0152611de2015260e05181818161097f01526116b8015261010051818181610ee1015261203e0152610120518181816106630152818161086701528181610aa5015281816113ba015281816114c3015281816117c0015281816120a701528181612730015261296d015261014051818181610e3b015261186a015261016051818181610b6c01526117f40152610180518181816117880152611e5c0152f35b634e487b7160e01b5f52602160045260245ffd5b90506020813d602011610669575b8161064e6020938361089e565b810103126106655761065f906108c1565b5f6103ab565b5f80fd5b3d9150610641565b6040513d5f823e3d90fd5b633ab4448b60e01b5f5260045ffd5b506102408a01516001600160a01b031615610365565b639dd854d360e01b5f5260045ffd5b506102208a015115610349565b6329a8bc8760e11b5f5260045ffd5b90501515806106dc575b5f61032c565b506101a08a0151156106d6565b63d22806e360e01b5f5260045ffd5b90506101408b015111155f610314565b63d1107a7960e01b5f5260045ffd5b905060c08b015110155f6102fe565b60c08c01511591506102f7565b63dcac5ed360e01b5f5260045ffd5b905060208b0151105f6102e3565b80915060608c015111906102dc565b60608c01511591506102d5565b63269ae9a360e01b5f5260045ffd5b905060408b0151115f6102c1565b60408c01511591506102ba565b6362c9b89160e11b5f5260045ffd5b508415156102a7565b635ff75f6f60e11b5f5260045ffd5b63f92ee8a960e01b5f5260045ffd5b506001600160a01b0384161561027c565b506001600160a01b03821615610266565b506001600160a01b0388161561025f565b600190602061ffff8451169301928185015501610242565b601b5f527f3ad8aa4f87544323a9d1e5dd902f40c356527a7955687113db5f9a85ad579dc1017f3ad8aa4f87544323a9d1e5dd902f40c356527a7955687113db5f9a85ad579dc75b81811061086c5750610236565b5f815560010161085f565b634e487b7160e01b5f52604160045260245ffd5b631e4fbdf760e01b5f525f60045260245ffd5b601f909101601f19168101906001600160401b0382119082101761087757604052565b51906001600160a01b03821682036106655756fe60a06040526004361015610408575b3615610018575f80fd5b60ff600354166103f95761002a612818565b60ff6017541660048110156103aa57600181036103e757600e54421080156103dc575b6103cd5733156103be5760145460ff8160a01c1660038110156103aa5760018103610304575060155460405160208101906bffffffffffffffffffffffff193360601b168252601481526100a26034826125a9565b5190205f905b6060518210156100e95760808260051b0151908181105f146100d8575f52602052600160405f205b9101906100a8565b905f52602052600160405f206100d0565b9050036102f5576001600160a01b03905b161580156102cb5734156102bc575b80156102b55734905b601f549161012081846125cb565b600654106102a65760085481106102975761014790335f52601860205260405f20546125cb565b60095410610288571561027d5761015f3480926125cb565b601f5561016e816002546125cb565b600255335f52601960205260ff60405f20541615610210575b335f52601860205260405f2061019e8282546125cb565b90556040518181527f2499a5330ab0979cc612135e7883ebc3cd5c9f7a8508f042540c34723348f63260203392a26001600160a01b03601454161560405191825260208201527f08ce00466abd322339ad31e43307a70a872f8c32a13d8b24ed85948ba75ed1b360403392a260018055005b335f52601960205260405f20600160ff19825416179055601a54680100000000000000008110156102695780600161024b9201601a556122c6565b81549060031b906001600160a01b0333831b921b1916179055610187565b634e487b7160e01b5f52604160045260245ffd5b61015f3480926125cb565b639f256db560e01b5f5260045ffd5b632afb507160e21b5f5260045ffd5b631c4af3c960e11b5f5260045ffd5b3490610112565b631f2a200560e01b5f5260045ffd5b341580156102e7571561010957631f2a200560e01b5f5260045ffd5b6248c6b960e61b5f5260045ffd5b630b094f2760e31b5f5260045ffd5b60021461031a575b6001600160a01b03906100fa565b602460206001600160a01b0360165416604051928380926370a0823160e01b82523360048301525afa5f9181610372575b5061035f5763457b8b9360e11b5f5260045ffd5b61030c5763e9e7bfc360e01b5f5260045ffd5b9091506020813d6020116103a2575b8161038e602093836125a9565b8101031261039e5751908361034b565b5f80fd5b3d9150610381565b634e487b7160e01b5f52602160045260245ffd5b63bc02ea9360e01b5f5260045ffd5b6338e102f160e21b5f5260045ffd5b50600f54421161004d565b63683f44bb60e11b5f5260045260245ffd5b63ab35696f60e01b5f5260045ffd5b5f5f3560e01c80631069143a146121b257806313db82381461202457806318e4274d1461200757806321eff7fc14611e05578063253da8bd14611fea57806331f684c014611fcd5780633ba86c4414611fb15780633cb5d10014611f705780633ccfd60b14611ee15780633f4ba83a14611e805780633fc8cef314611e3d57806342e94c9014611e0557806349d2e27714611dcb5780634bb278f3146115365780634e71d92d1461126357806351fb012d1461123d578063590e1ae3146111275780635c975abb146111045780635e6f6045146110c0578063715018a61461106e5780637abbc15014610fdd5780637cb6475914610fc857806380e3f1ad14610fae5780638456cb5914610f495780638da5cb5b14610f2357806391a9207b14610f0557806395691a6d14610ec15780639759164a14610e7d5780639e1a4d1914610e5f578063a7c6402c14610e1b578063af157c1914610d53578063af1ad48b14610c78578063aff177ca14610c38578063b57b92a514610c1a578063bedcf00314610bfc578063c19d93fb14610bbc578063c1d41e9514610b90578063c45a015514610b4c578063c5c4744c14610b2e578063cc2ee196146109bf578063cea9d26f146109c4578063d02c880a146109bf578063d0e30db0146109a3578063d7cee31e1461095f578063e1f1c4a714610942578063ea4a9c8514610919578063ea8a1af0146107b8578063ed498fa81461078c578063f2fde38b146106f9578063f7bdc4f71461068a5763fc0c546a14610644575061000e565b3461068757806003193601126106875760206040516001600160a01b037f0000000000000000000000000000000000000000000000000000000000000000168152f35b80fd5b5060203660031901126106875760043567ffffffffffffffff81116106f5576106b7903690600401612310565b60ff600354166106e6576106df916106d8916106d1612818565b3691612616565b3433612c66565b6001805580f35b63ab35696f60e01b8352600483fd5b5080fd5b5034610687576020366003190112610687576001600160a01b0361071b6122b0565b6107236127f2565b16801561077857815473ffffffffffffffffffffffffffffffffffffffff198116821783556001600160a01b03167f8be0079c531659141344cd1fd0a4f28419497f9722a3daafe3b4186f6b6457e08380a380f35b631e4fbdf760e01b82526004829052602482fd5b50346106875760203660031901126106875760206107b06107ab6122b0565b6126f3565b604051908152f35b50346106875780600319360112610687576107d1612818565b6107d96127f2565b60ff6003541661090a5760ff6017541690600482101591826108f657801515806108e7575b6108bf5750600260ff196017541617601755601c549081610855575b6040514281527f27f83af92b39768b17fe0c8d6922452702717efb8626d97e7a754e0b27d4f6d260203392a260018055602060405160018152f35b601c5561088c81336001600160a01b037f000000000000000000000000000000000000000000000000000000000000000016612fbd565b6040519081527fbf95d20e2a316bd9c3e2efd35653a948438013277330af4b3fee49455a0e637260203392a2808061081a565b6024926108d55763683f44bb60e11b8252600452fd5b50634e487b7160e01b81526021600452fd5b509150809160018114156107fe565b634e487b7160e01b82526021600452602482fd5b63ab35696f60e01b8152600490fd5b503461068757602036600319011261068757602061093860043561266c565b6040519015158152f35b503461068757806003193601126106875760206040516127108152f35b503461068757806003193601126106875760206040516001600160a01b037f0000000000000000000000000000000000000000000000000000000000000000168152f35b5034610687578060031936011261068757602090604051908152f35b612341565b5034610687576060366003190112610687576109de6122b0565b6024356001600160a01b03811691828203610b2a57604435906109ff6127f2565b8315610b1b5760ff60175416600481101580610b0757600382149182159081610af8575b50610ae957610ad55780610a9a575b80610a8e575b610a7f5781610a757f77023e19c7343ad491fd706c36335ca0e738340a91f29b1fd81e2673d44896c4936001600160a01b03602094169586612fbd565b604051908152a380f35b63d64d4b7160e01b8552600485fd5b50602054421115610a38565b506001600160a01b037f0000000000000000000000000000000000000000000000000000000000000000166001600160a01b03821614610a32565b634e487b7160e01b86526021600452602486fd5b63662fcd5d60e01b8752600487fd5b9150506002879114155f610a23565b634e487b7160e01b87526021600452602487fd5b63e6c4247b60e01b8552600485fd5b8380fd5b50346106875780600319360112610687576020601f54604051908152f35b503461068757806003193601126106875760206040516001600160a01b037f0000000000000000000000000000000000000000000000000000000000000000168152f35b503461068757806003193601126106875760206107b0610bae6127c4565b610bb66127d3565b906125cb565b503461068757806003193601126106875760ff60175416604051906004811015610be857602092508152f35b634e487b7160e01b83526021600452602483fd5b50346106875780600319360112610687576020600454604051908152f35b50346106875780600319360112610687576020601e54604051908152f35b50346106875760403660031901126106875760043567ffffffffffffffff81116106f557610c6a903690600401612310565b5050610c74612301565b5080f35b50346106875760403660031901126106875760043560243567ffffffffffffffff8111610d4f57610cad903690600401612310565b60ff60035416610d4057610cbf612818565b6001600160a01b03601454168015610d31578315610d225791610d1b916106d16106df9594604051906323b872dd60e01b602083015233602483015230604483015286606483015260648252610d166084836125a9565b61314e565b9033612c66565b631f2a200560e01b8552600485fd5b6306a39ded60e41b8552600485fd5b63ab35696f60e01b8452600484fd5b8280fd5b5034610687578060031936011261068757604051806020601a5491828152018091601a85527f057c384a7d1c54f3a1b2e5e67b2617b8224fdfd1ea7234eea573a6ff665ff63e90855b818110610dfc5750505082610db29103836125a9565b604051928392602084019060208552518091526040840192915b818110610dda575050500390f35b82516001600160a01b0316845285945060209384019390920191600101610dcc565b82546001600160a01b0316845260209093019260019283019201610d9c565b503461068757806003193601126106875760206040516001600160a01b037f0000000000000000000000000000000000000000000000000000000000000000168152f35b50346106875780600319360112610687576020601c54604051908152f35b503461068757806003193601126106875760206040516001600160a01b037f0000000000000000000000000000000000000000000000000000000000000000168152f35b503461068757806003193601126106875760206040516001600160a01b037f0000000000000000000000000000000000000000000000000000000000000000168152f35b50346106875780600319360112610687576020600254604051908152f35b50346106875780600319360112610687576001600160a01b036020915416604051908152f35b5034610687578060031936011261068757610f626127f2565b60035460ff8116610f9f5760ff1916600117600355337f62e78cea01bee320cd4e420270b5ea74000d11b0c9f74754ebdbfc544b05a2588280a280f35b631785c68160e01b8252600482fd5b503461068757602036600319011261068757610c746122f2565b50346106875760203660031901126106875780f35b503461068757602036600319011261068757600435610ffa6127f2565b60ff601754166004811015610be8576003810361105c575060205481111561104d576020817ff1178b3c495407dc107b27908c56bee4f47c0295055c88d6110c026737fd2eb3928255604051908152a180f35b631da7447960e21b8252600482fd5b63683f44bb60e11b8352600452602482fd5b50346106875780600319360112610687576110876127f2565b806001600160a01b038154811981168355167f8be0079c531659141344cd1fd0a4f28419497f9722a3daafe3b4186f6b6457e08280a380f35b503461068757806003193601126106875760206040516001600160a01b037f0000000000000000000000000000000000000000000000000000000000000000168152f35b5034610687578060031936011261068757602060ff600354166040519015158152f35b5034610687578060031936011261068757611140612818565b60ff6017541660048110156108f6576002811490811561120e575b50156111ff573381526018602052604081205480156111f057602091338152601883528060408120558160025410155f146111e8575061119d816002546125d8565b6002555b6111ab8133612838565b60405181815242838201527f73f04af9dcc582a923ec15d3eea990fe34adabfff2879e28d44572e01a54abb660403392a260018055604051908152f35b6002556111a1565b634625bdf760e01b8252600482fd5b631ba168fb60e11b8152600490fd5b600191501480611232575b80611225575b5f61115b565b50601f546007541161121f565b50600f544211611219565b5034610687578060031936011261068757602060ff60035460081c166040519015158152f35b503461068757806003193601126106875761127c612818565b60ff6003541661090a5760ff6017541660048110156108f6576003810361152457506020544211611515576112b0336126f3565b8015611507573382526018602052816040812055601c548181106114f857816112d8916125d8565b601c556112e361290f565b8181526011546020820181905280156114ee57612710611305606092856125e5565b04915b61131a604082019380855282516125d8565b9182910152806114b4575b508051908161136f575b60208360405181815242838201527f30c2341ba3f2142e78472f07dcf018a42044ae1c2c2e7ce867b327257f07ef2b60403392a260018055604051908152f35b60405163095ea7b360e01b81526001600160a01b037f0000000000000000000000000000000000000000000000000000000000000000811660048301819052602483019490945285927f00000000000000000000000000000000000000000000000000000000000000009091169160208160448187875af180156114a95761147c575b50519260125491813b15610b2a57604051631bc6452160e31b81523060048201523360248201526001600160a01b03919091166044820152606481019490945242608485015260a4840191909152829060c490829084905af180156114715761145c575b8061132f565b6114678380926125a9565b6106f55781611456565b6040513d85823e3d90fd5b61149d9060203d6020116114a2575b61149581836125a9565b8101906128f7565b6113f2565b503d61148b565b6040513d86823e3d90fd5b6114e890336001600160a01b037f000000000000000000000000000000000000000000000000000000000000000016612fbd565b5f611325565b5060608391611308565b637222ae5760e11b8352600483fd5b62f3f86160e41b8252600482fd5b632253b77960e01b8152600490fd5b63683f44bb60e11b8252600452602490fd5b503461039e575f36600319011261039e5761154f6127f2565b60ff600354166103f957611561612818565b60ff6017541660048110156103aa57600181036103e75750600f54421115611dbc57601f5460075411611dad57600360ff1960175416176017556127106115ad601f54600c54906125e5565b048015908115806116f0575b50611616915061271061160f601f54826115f47f000000000000000000000000000000000000000000000000000000000000000080936125e5565b048061168b575b50611609601f5494856125d8565b936125e5565b04906125d8565b60045562ed4e004201908142116116775750602055611633612944565b601f546040519081524260208201527f616c9469db50815ae0f1d0a020d9fc9060da7c57f03559afb0d4ebdaa0a3a05e60403392a260018055602060405160018152f35b634e487b7160e01b81526011600452602490fd5b7f0f5237766fb8b2313e23d359023b2fe32aa11ff9048495b861341a994d9114bc60206001600160a01b037f00000000000000000000000000000000000000000000000000000000000000006116e18582612838565b6040519485521692a25f6115fb565b601e549290611da5575b611d965760405160c0810181811067ffffffffffffffff821117610269576040526020810160408201915f835260608101905f825260808101935f855260a08201965f8852868352808552600d5461271003906127108211611c455761176f6127106117678482946125e5565b0492896125e5565b04845281526014546001600160a01b031680611d9057507f0000000000000000000000000000000000000000000000000000000000000000935b60405163e6a4390560e01b81526001600160a01b037f0000000000000000000000000000000000000000000000000000000000000000811660048301819052878216602484015296907f000000000000000000000000000000000000000000000000000000000000000016602083604481845afa928315611baf575f93611d6f575b506001600160a01b03831615611cb9575b50506001600160a01b0316938415611caa57938652805160405163095ea7b360e01b81526001600160a01b037f0000000000000000000000000000000000000000000000000000000000000000166004820181905260248201929092529490936020866044815f8b5af1958615611baf57602496611c8d575b5060206001600160a01b03895116604051978880926370a0823160e01b82523060048301525afa958615611baf575f96611c59575b505191519251905192610258420190814211611c455760609360c492604051968795869463f305d71960e01b86528c600487015260248601526044850152606484015230608484015260a4830152865af19081611c1a575b5061199d5761194f613095565b6308c379a014611969575b6376d097f360e11b5f5260045ffd5b6119716130b0565b8061197c575061195a565b604051633c10bbab60e11b81529081906119999060048301613124565b0390fd5b5f926044602092604051958693849263095ea7b360e01b845260048401528160248401525af1918215611baf57602492611bfd575b5060206001600160a01b03845116604051938480926370a0823160e01b82523060048301525afa8015611baf575f90611bc9575b611a1092506125d8565b80845215611bba576001600160a01b03905116915191611a32601054426125cb565b60405163095ea7b360e01b81526001600160a01b037f0000000000000000000000000000000000000000000000000000000000000000166004820181905260248201869052919491906020816044815f885af18015611baf57611b92575b506001600160a01b035f5416813b1561039e575f9160848392604051948593849263042964f560e11b84528960048501528860248501528b604485015260648401525af19081611b7d575b50611b335784611ae9613095565b6308c379a014611b03575b63a14cffc560e01b8152600490fd5b611b0b6130b0565b80611b165750611af4565b604051630822993160e31b81529081906119999060048301613124565b60407fac1d76749e5447b7b16f5ab61447e1bd502f3bb4807af3b28e620d1700a6ee45916116169582519182526020820152a2611b74601e54601c546125d8565b601c555f6115b9565b611b8a9196505f906125a9565b5f945f611adb565b611baa9060203d6020116114a25761149581836125a9565b611a90565b6040513d5f823e3d90fd5b630bdc07d160e21b5f5260045ffd5b506020823d602011611bf5575b81611be3602093836125a9565b8101031261039e57611a109151611a06565b3d9150611bd6565b611c159060203d6020116114a25761149581836125a9565b6119d2565b606090813d8311611c3e575b611c3081836125a9565b8101031261039e575f611942565b503d611c26565b634e487b7160e01b5f52601160045260245ffd5b9095506020813d602011611c85575b81611c75602093836125a9565b8101031261039e5751945f6118ea565b3d9150611c68565b611ca59060203d6020116114a25761149581836125a9565b6118b5565b63284dbaed60e01b5f5260045ffd5b6040516364e329cb60e11b81526001600160a01b03898116600483015283166024820152919a97999798969594939250602090829060449082905f905af15f9181611d3e575b50611d24576001600160a01b038a8a634fe1e92b60e11b5f526004521660245260445ffd5b6001600160a01b039192939495979950979597905f61183c565b611d6191925060203d602011611d68575b611d5981836125a9565b810190613076565b905f611cff565b503d611d4f565b611d8991935060203d602011611d6857611d5981836125a9565b915f61182b565b936117a9565b63d69ebc4560e01b5f5260045ffd5b5081156116fa565b632bdc91ad60e01b5f5260045ffd5b63dfc7e2e560e01b5f5260045ffd5b3461039e575f36600319011261039e5760206040517f00000000000000000000000000000000000000000000000000000000000000008152f35b3461039e57602036600319011261039e576001600160a01b03611e266122b0565b165f526018602052602060405f2054604051908152f35b3461039e575f36600319011261039e5760206040516001600160a01b037f0000000000000000000000000000000000000000000000000000000000000000168152f35b3461039e575f36600319011261039e57611e986127f2565b60035460ff811615611ed25760ff1916600355337f5db9ee0a495bf2e6ff9c91a7834c1ba4fdd244a5e8aa4e537bd38aeae4b073aa5f80a2005b636cd6020160e01b5f5260045ffd5b3461039e575f36600319011261039e57611ef96127f2565b611f01612818565b60ff6017541660048110156103aa57600381036103e7576004548015611f61575f600455611f2f8133612838565b6040519081527f7084f5476618d8e60b11ef0d7d3f06914655adb8793e28ff7f018d4c76d505d560203392a260018055005b6367e3990d60e01b5f5260045ffd5b3461039e57602036600319011261039e57600435601a5481101561039e576001600160a01b03611fa16020926122c6565b90549060031b1c16604051908152f35b3461039e575f36600319011261039e5760208054604051908152f35b3461039e575f36600319011261039e576020601d54604051908152f35b3461039e575f36600319011261039e576020601a54604051908152f35b3461039e575f36600319011261039e576020601f54604051908152f35b3461039e575f36600319011261039e576001600160a01b037f00000000000000000000000000000000000000000000000000000000000000001633036121a35760ff600354166103f95760ff6017541660048110156103aa57806103e757600e544210156103cd576040516370a0823160e01b81523060048201526020816024817f00000000000000000000000000000000000000000000000000000000000000006001600160a01b03165afa908115611baf575f91612171575b5080156102bc576121076120f16127c4565b80601d556120fd6127d3565b9081601e556125cb565b9081811061215c5780602091601c55600160ff19601754161760175560405181815242838201527f90890809c654f11d6e72a28fa60149770a0d11ec6c92319d6ceb2bb0a4ea1a1560403392a2604051908152f35b630d25268d60e01b5f5260045260245260445ffd5b90506020813d60201161219b575b8161218c602093836125a9565b8101031261039e5751816120df565b3d915061217f565b631966391b60e11b5f5260045ffd5b3461039e575f36600319011261039e57600554608052600654600754600854600954600a54600b54600c54600d54600e54600f5491601054936011549560125497601354996014549b6015549d6016546001600160a01b03169f60805160a05260a06020015260a06040015260a06060015260a06080015260a080015260a060c0015260a060e0015260a0610100015260a0610120015260a0610140015260a0610160015260a0610180015260a06101a0015260a06101c001526001600160a01b03811660a06101e0015260a0610200019060a01c60ff1690612294916122a3565b6102c0526102e05261026060a0f35b9060038210156103aa5752565b600435906001600160a01b038216820361039e57565b601a548110156122de57601a5f5260205f2001905f90565b634e487b7160e01b5f52603260045260245ffd5b60043590811515820361039e57565b60243590811515820361039e57565b9181601f8401121561039e5782359167ffffffffffffffff831161039e576020808501948460051b01011161039e57565b3461039e575f36600319011261039e575f6102406040516123618161258c565b8281528260208201528260408201528260608201528260808201528260a08201528260c08201528260e08201528261010082015282610120820152826101408201528261016082015282610180820152826101a0820152826101c0820152826101e0820152826102008201528261022082015201526040516123e28161258c565b60055481526006546020820152600754604082015260085460608201526009546080820152600a5460a0820152600b5460c0820152600c5460e0820152600d54610100820152600e54610120820152600f546101408201526010546101608201526011546101808201526012546101a08201526013546101c082015260ff6014546001600160a01b0381166101e084015260a01c169060038210156103aa57610260916102008201526015546102208201526001600160a01b03601654166102408201526001600160a01b0361024060405192805184526020810151602085015260408101516040850152606081015160608501526080810151608085015260a081015160a085015260c081015160c085015260e081015160e08501526101008101516101008501526101208101516101208501526101408101516101408501526101608101516101608501526101808101516101808501526101a08101516101a08501526101c08101516101c0850152826101e0820151166101e08501526125756102008201516102008601906122a3565b610220810151610220850152015116610240820152f35b610260810190811067ffffffffffffffff82111761026957604052565b90601f8019910116810190811067ffffffffffffffff82111761026957604052565b91908201809211611c4557565b91908203918211611c4557565b81810292918115918404141715611c4557565b8115612602570490565b634e487b7160e01b5f52601260045260245ffd5b9291909267ffffffffffffffff8411610269578360051b90602060405161263f828501826125a9565b809681520191810192831161039e57905b82821061265c57505050565b8135815260209182019101612650565b601b5490815f5b83811061268257505050505f90565b818110156122de57601b5f527f3ad8aa4f87544323a9d1e5dd902f40c356527a7955687113db5f9a85ad579dc181015483146126c057600101612673565b50505050600190565b9081602091031261039e575160ff8116810361039e5790565b60ff16604d8111611c4557600a0a90565b6001600160a01b03165f52601860205260405f205480156127bf57600a5461271a916125e5565b60405163313ce56760e01b8152906020826004817f00000000000000000000000000000000000000000000000000000000000000006001600160a01b03165afa908115611baf5761277961277f9261278d945f91612790575b506126e2565b906125e5565b612787612ff9565b906125f8565b90565b6127b2915060203d6020116127b8575b6127aa81836125a9565b8101906126c9565b5f612773565b503d6127a0565b505f90565b61271a600654600a54906125e5565b61271a6127106127e8600654600c54906125e5565b04600b54906125e5565b6001600160a01b035f5416330361280557565b63118cdaa760e01b5f523360045260245ffd5b600260015414612829576002600155565b633ee5aeb560e01b5f5260045ffd5b81156128f3576014546001600160a01b0316806128e657508147106128cf575f8080936001600160a01b038294165af13d156128c7573d9067ffffffffffffffff82116102695760405191612897601f8201601f1916602001846125a9565b82523d5f602084013e5b156128a95750565b8051156128b857805190602001fd5b63d6bda27560e01b5f5260045ffd5b6060906128a1565b504763cf47918160e01b5f5260045260245260445ffd5b906128f19291612fbd565b565b5050565b9081602091031261039e5751801515810361039e5790565b604051906080820182811067ffffffffffffffff821117610269576040525f6060838281528260208201528260408201520152565b61294c61290f565b601f549061295e5f92600a54906125e5565b60405163313ce56760e01b81527f00000000000000000000000000000000000000000000000000000000000000006001600160a01b031691602082600481865afa908115611baf5761277961277f926129bd945f9161279057506126e2565b808352601d54809111612c5e575b6129d68351826125d8565b602084019081526060612a276129ef601e5480956125cb565b92601c5494848695612a0183886125cb565b1115612c5557612a14612a1992876125cb565b6125d8565b905b816040890152516125cb565b94019380855211612c4d575b82518015612c4657612a44916125d8565b601c5560135480612a9a57506001600160a01b037fbf95d20e2a316bd9c3e2efd35653a948438013277330af4b3fee49455a0e637292612a8c60209383875416835191612fbd565b5193541692604051908152a2565b600103612b035790612af97fa23a441fdb6a3236d37796809dafdaba773a27be440ae9746e9b9f8cf2c2106e9360209383516040519263a9059cbb60e01b878501525061dead6024840152604483015260448252610d166064836125a9565b51604051908152a1565b815160405163095ea7b360e01b81526001600160a01b037f0000000000000000000000000000000000000000000000000000000000000000166004820181905260248201929092529091906020816044815f865af18015611baf57612c29575b506001600160a01b035f541683519260125493813b1561039e57604051631bc6452160e31b81523060048201526001600160a01b039384166024820152939092166044840152606483019190915242608483015260a4820192909252905f90829060c490829084905af18015611baf57612c13575b5060206001600160a01b037fffbab51a97c2620266485de4ca0e9acd7a3e7412812e256ff5d6831fa5dacaa9925193541692604051908152a2565b612c209192505f906125a9565b5f906020612bd8565b612c419060203d6020116114a25761149581836125a9565b612b63565b5050505050565b808352612a33565b50505f90612a1b565b8083526129cb565b919260ff6017541660048110156103aa57600181036103e75750600e5442108015612fb2575b6103cd576001600160a01b03831680156103be576014549260ff8460a01c1660038110156103aa5760018103612f0857506015549460405160208101916bffffffffffffffffffffffff199060601b16825260148152612ced6034826125a9565b519020935f945b8751861015612d365760208660051b89010151908181105f14612d25575f52602052600160405f205b950194612cf4565b905f52602052600160405f20612d1d565b919450929550939093036102f5576001600160a01b03905b1615908115612eef5734156102bc575b8115612ee85734915b601f5492612d7581856125cb565b600654106102a657600854811061029757612d9c90855f52601860205260405f20546125cb565b600954106102885715612edd5750612db53480926125cb565b601f55612dc4816002546125cb565b600255815f52601960205260ff60405f20541615612e5d575b60407f08ce00466abd322339ad31e43307a70a872f8c32a13d8b24ed85948ba75ed1b391835f526018602052815f20612e178282546125cb565b9055837f2499a5330ab0979cc612135e7883ebc3cd5c9f7a8508f042540c34723348f63260208451848152a26001600160a01b03601454161582519182526020820152a2565b815f52601960205260405f20600160ff19825416179055601a5468010000000000000000811015610269577f08ce00466abd322339ad31e43307a70a872f8c32a13d8b24ed85948ba75ed1b391612ebc82600160409401601a556122c6565b81549060031b906001600160a01b0387831b921b1916179055915050612ddd565b612db59080926125cb565b8091612d67565b346102e75780612d5e57631f2a200560e01b5f5260045ffd5b9093929550600291945014612f26575b6001600160a01b0390612d4e565b602460206001600160a01b0360165416604051928380926370a0823160e01b82528860048301525afa5f9181612f7e575b50612f6b5763457b8b9360e11b5f5260045ffd5b612f185763e9e7bfc360e01b5f5260045ffd5b9091506020813d602011612faa575b81612f9a602093836125a9565b8101031261039e5751905f612f57565b3d9150612f8d565b50600f544211612c8c565b60405163a9059cbb60e01b60208201526001600160a01b039290921660248301526044808301939093529181526128f191610d166064836125a9565b6001600160a01b036014541680156130695760206004916040519283809263313ce56760e01b82525afa5f9181613048575b5061303f57631da50fef60e01b5f5260045ffd5b61278d906126e2565b61306291925060203d6020116127b8576127aa81836125a9565b905f61302b565b50670de0b6b3a764000090565b9081602091031261039e57516001600160a01b038116810361039e5790565b5f9060033d116130a157565b905060045f803e5f5160e01c90565b5f60443d1061278d576040513d600319016004823e8051913d602484011167ffffffffffffffff84111761311e578282019283519167ffffffffffffffff8311613116573d84016003190185840160200111613116575061278d929101602001906125a9565b949350505050565b92915050565b602060409281835280519182918282860152018484015e5f828201840152601f01601f1916010190565b905f602091828151910182855af115611baf575f513d61319957506001600160a01b0381163b155b61317d5750565b6001600160a01b0390635274afe760e01b5f521660045260245ffd5b6001141561317656fea26469706673582212206385f9e2b3d4d745bf87a3cdb1f321385a6e497213a260f8db7849a6a1b11c4f64736f6c634300081c0033","linkReferences":{}},"methodIdentifiers":{"BASIS_POINTS()":"e1f1c4a7","_presaleFactory()":"95691a6d","calculateTotalTokensNeeded()":"c1d41e95","cancel()":"ea8a1af0","claim()":"4e71d92d","claimDeadline()":"3ba86c44","contribute(bytes32[])":"f7bdc4f7","contributeStablecoin(uint256,bytes32[])":"af1ad48b","contributions(address)":"42e94c90","contributors(uint256)":"3cb5d100","deposit()":"d0e30db0","extendClaimDeadline(uint256)":"7abbc150","factory()":"c45a0155","finalize()":"4bb278f3","getContribution(address)":"21eff7fc","getContributorCount()":"253da8bd","getContributors()":"af157c19","getOptions()":"cc2ee196","getPresaleOptions()":"d02c880a","getTotalContributed()":"18e4274d","houseAddress()":"d7cee31e","housePercentage()":"49d2e277","initializeDeposit()":"13db8238","isAllowedLiquidityBps(uint256)":"ea4a9c85","liquidityLocker()":"9759164a","options()":"1069143a","owner()":"8da5cb5b","ownerBalance()":"bedcf003","pause()":"8456cb59","paused()":"5c975abb","refund()":"590e1ae3","renounceOwnership()":"715018a6","rescueTokens(address,address,uint256)":"cea9d26f","setMerkleRoot(bytes32)":"7cb64759","state()":"c19d93fb","toggleWhitelist(bool)":"80e3f1ad","token()":"fc0c546a","tokenBalance()":"9e1a4d19","tokensClaimable()":"31f684c0","tokensLiquidity()":"b57b92a5","totalRaised()":"c5c4744c","totalRefundable()":"91a9207b","transferOwnership(address)":"f2fde38b","uniswapV2Router02()":"a7c6402c","unpause()":"3f4ba83a","updateWhitelist(address[],bool)":"aff177ca","userTokens(address)":"ed498fa8","vestingContract()":"5e6f6045","weth()":"3fc8cef3","whitelistEnabled()":"51fb012d","withdraw()":"3ccfd60b"},"id":45}