{
  "abi": [
    {
      "type": "constructor",
      "inputs": [
        {
          "name": "_weth",
          "type": "address",
          "internalType": "address"
        },
        {
          "name": "_token",
          "type": "address",
          "internalType": "address"
        },
        {
          "name": "_uniswapV2Router02",
          "type": "address",
          "internalType": "address"
        },
        {
          "name": "_options",
          "type": "tuple",
          "internalType": "struct Presale.PresaleOptions",
          "components": [
            {
              "name": "tokenDeposit",
              "type": "uint256",
              "internalType": "uint256"
            },
            {
              "name": "hardCap",
              "type": "uint256",
              "internalType": "uint256"
            },
            {
              "name": "softCap",
              "type": "uint256",
              "internalType": "uint256"
            },
            {
              "name": "min",
              "type": "uint256",
              "internalType": "uint256"
            },
            {
              "name": "max",
              "type": "uint256",
              "internalType": "uint256"
            },
            {
              "name": "presaleRate",
              "type": "uint256",
              "internalType": "uint256"
            },
            {
              "name": "listingRate",
              "type": "uint256",
              "internalType": "uint256"
            },
            {
              "name": "liquidityBps",
              "type": "uint256",
              "internalType": "uint256"
            },
            {
              "name": "slippageBps",
              "type": "uint256",
              "internalType": "uint256"
            },
            {
              "name": "start",
              "type": "uint256",
              "internalType": "uint256"
            },
            {
              "name": "end",
              "type": "uint256",
              "internalType": "uint256"
            },
            {
              "name": "lockupDuration",
              "type": "uint256",
              "internalType": "uint256"
            },
            {
              "name": "vestingPercentage",
              "type": "uint256",
              "internalType": "uint256"
            },
            {
              "name": "vestingDuration",
              "type": "uint256",
              "internalType": "uint256"
            },
            {
              "name": "leftoverTokenOption",
              "type": "uint256",
              "internalType": "uint256"
            },
            {
              "name": "currency",
              "type": "address",
              "internalType": "address"
            },
            {
              "name": "whitelistType",
              "type": "uint8",
              "internalType": "enum Presale.WhitelistType"
            },
            {
              "name": "merkleRoot",
              "type": "bytes32",
              "internalType": "bytes32"
            },
            {
              "name": "nftContractAddress",
              "type": "address",
              "internalType": "address"
            }
          ]
        },
        {
          "name": "_creator",
          "type": "address",
          "internalType": "address"
        },
        {
          "name": "_liquidityLocker",
          "type": "address",
          "internalType": "address"
        },
        {
          "name": "_vestingContract",
          "type": "address",
          "internalType": "address"
        },
        {
          "name": "_housePercentage",
          "type": "uint256",
          "internalType": "uint256"
        },
        {
          "name": "_houseAddress",
          "type": "address",
          "internalType": "address"
        },
        {
          "name": "_presaleFactoryAddress",
          "type": "address",
          "internalType": "address"
        }
      ],
      "stateMutability": "nonpayable"
    },
    {
      "type": "receive",
      "stateMutability": "payable"
    },
    {
      "type": "function",
      "name": "BASIS_POINTS",
      "inputs": [],
      "outputs": [
        {
          "name": "",
          "type": "uint256",
          "internalType": "uint256"
        }
      ],
      "stateMutability": "view"
    },
    {
      "type": "function",
      "name": "_presaleFactory",
      "inputs": [],
      "outputs": [
        {
          "name": "",
          "type": "address",
          "internalType": "address"
        }
      ],
      "stateMutability": "view"
    },
    {
      "type": "function",
      "name": "calculateTotalTokensNeeded",
      "inputs": [],
      "outputs": [
        {
          "name": "",
          "type": "uint256",
          "internalType": "uint256"
        }
      ],
      "stateMutability": "view"
    },
    {
      "type": "function",
      "name": "cancel",
      "inputs": [],
      "outputs": [
        {
          "name": "",
          "type": "bool",
          "internalType": "bool"
        }
      ],
      "stateMutability": "nonpayable"
    },
    {
      "type": "function",
      "name": "claim",
      "inputs": [],
      "outputs": [
        {
          "name": "",
          "type": "uint256",
          "internalType": "uint256"
        }
      ],
      "stateMutability": "nonpayable"
    },
    {
      "type": "function",
      "name": "claimDeadline",
      "inputs": [],
      "outputs": [
        {
          "name": "",
          "type": "uint256",
          "internalType": "uint256"
        }
      ],
      "stateMutability": "view"
    },
    {
      "type": "function",
      "name": "contribute",
      "inputs": [
        {
          "name": "_merkleProof",
          "type": "bytes32[]",
          "internalType": "bytes32[]"
        }
      ],
      "outputs": [],
      "stateMutability": "payable"
    },
    {
      "type": "function",
      "name": "contributeStablecoin",
      "inputs": [
        {
          "name": "_amount",
          "type": "uint256",
          "internalType": "uint256"
        },
        {
          "name": "_merkleProof",
          "type": "bytes32[]",
          "internalType": "bytes32[]"
        }
      ],
      "outputs": [],
      "stateMutability": "nonpayable"
    },
    {
      "type": "function",
      "name": "contributions",
      "inputs": [
        {
          "name": "",
          "type": "address",
          "internalType": "address"
        }
      ],
      "outputs": [
        {
          "name": "",
          "type": "uint256",
          "internalType": "uint256"
        }
      ],
      "stateMutability": "view"
    },
    {
      "type": "function",
      "name": "contributors",
      "inputs": [
        {
          "name": "",
          "type": "uint256",
          "internalType": "uint256"
        }
      ],
      "outputs": [
        {
          "name": "",
          "type": "address",
          "internalType": "address"
        }
      ],
      "stateMutability": "view"
    },
    {
      "type": "function",
      "name": "deposit",
      "inputs": [],
      "outputs": [
        {
          "name": "",
          "type": "uint256",
          "internalType": "uint256"
        }
      ],
      "stateMutability": "nonpayable"
    },
    {
      "type": "function",
      "name": "extendClaimDeadline",
      "inputs": [
        {
          "name": "_newDeadline",
          "type": "uint256",
          "internalType": "uint256"
        }
      ],
      "outputs": [],
      "stateMutability": "nonpayable"
    },
    {
      "type": "function",
      "name": "factory",
      "inputs": [],
      "outputs": [
        {
          "name": "",
          "type": "address",
          "internalType": "address"
        }
      ],
      "stateMutability": "view"
    },
    {
      "type": "function",
      "name": "finalize",
      "inputs": [],
      "outputs": [
        {
          "name": "",
          "type": "bool",
          "internalType": "bool"
        }
      ],
      "stateMutability": "nonpayable"
    },
    {
      "type": "function",
      "name": "getContribution",
      "inputs": [
        {
          "name": "_contributor",
          "type": "address",
          "internalType": "address"
        }
      ],
      "outputs": [
        {
          "name": "",
          "type": "uint256",
          "internalType": "uint256"
        }
      ],
      "stateMutability": "view"
    },
    {
      "type": "function",
      "name": "getContributorCount",
      "inputs": [],
      "outputs": [
        {
          "name": "",
          "type": "uint256",
          "internalType": "uint256"
        }
      ],
      "stateMutability": "view"
    },
    {
      "type": "function",
      "name": "getContributors",
      "inputs": [],
      "outputs": [
        {
          "name": "",
          "type": "address[]",
          "internalType": "address[]"
        }
      ],
      "stateMutability": "view"
    },
    {
      "type": "function",
      "name": "getOptions",
      "inputs": [],
      "outputs": [
        {
          "name": "",
          "type": "tuple",
          "internalType": "struct Presale.PresaleOptions",
          "components": [
            {
              "name": "tokenDeposit",
              "type": "uint256",
              "internalType": "uint256"
            },
            {
              "name": "hardCap",
              "type": "uint256",
              "internalType": "uint256"
            },
            {
              "name": "softCap",
              "type": "uint256",
              "internalType": "uint256"
            },
            {
              "name": "min",
              "type": "uint256",
              "internalType": "uint256"
            },
            {
              "name": "max",
              "type": "uint256",
              "internalType": "uint256"
            },
            {
              "name": "presaleRate",
              "type": "uint256",
              "internalType": "uint256"
            },
            {
              "name": "listingRate",
              "type": "uint256",
              "internalType": "uint256"
            },
            {
              "name": "liquidityBps",
              "type": "uint256",
              "internalType": "uint256"
            },
            {
              "name": "slippageBps",
              "type": "uint256",
              "internalType": "uint256"
            },
            {
              "name": "start",
              "type": "uint256",
              "internalType": "uint256"
            },
            {
              "name": "end",
              "type": "uint256",
              "internalType": "uint256"
            },
            {
              "name": "lockupDuration",
              "type": "uint256",
              "internalType": "uint256"
            },
            {
              "name": "vestingPercentage",
              "type": "uint256",
              "internalType": "uint256"
            },
            {
              "name": "vestingDuration",
              "type": "uint256",
              "internalType": "uint256"
            },
            {
              "name": "leftoverTokenOption",
              "type": "uint256",
              "internalType": "uint256"
            },
            {
              "name": "currency",
              "type": "address",
              "internalType": "address"
            },
            {
              "name": "whitelistType",
              "type": "uint8",
              "internalType": "enum Presale.WhitelistType"
            },
            {
              "name": "merkleRoot",
              "type": "bytes32",
              "internalType": "bytes32"
            },
            {
              "name": "nftContractAddress",
              "type": "address",
              "internalType": "address"
            }
          ]
        }
      ],
      "stateMutability": "view"
    },
    {
      "type": "function",
      "name": "getPresaleOptions",
      "inputs": [],
      "outputs": [
        {
          "name": "",
          "type": "tuple",
          "internalType": "struct Presale.PresaleOptions",
          "components": [
            {
              "name": "tokenDeposit",
              "type": "uint256",
              "internalType": "uint256"
            },
            {
              "name": "hardCap",
              "type": "uint256",
              "internalType": "uint256"
            },
            {
              "name": "softCap",
              "type": "uint256",
              "internalType": "uint256"
            },
            {
              "name": "min",
              "type": "uint256",
              "internalType": "uint256"
            },
            {
              "name": "max",
              "type": "uint256",
              "internalType": "uint256"
            },
            {
              "name": "presaleRate",
              "type": "uint256",
              "internalType": "uint256"
            },
            {
              "name": "listingRate",
              "type": "uint256",
              "internalType": "uint256"
            },
            {
              "name": "liquidityBps",
              "type": "uint256",
              "internalType": "uint256"
            },
            {
              "name": "slippageBps",
              "type": "uint256",
              "internalType": "uint256"
            },
            {
              "name": "start",
              "type": "uint256",
              "internalType": "uint256"
            },
            {
              "name": "end",
              "type": "uint256",
              "internalType": "uint256"
            },
            {
              "name": "lockupDuration",
              "type": "uint256",
              "internalType": "uint256"
            },
            {
              "name": "vestingPercentage",
              "type": "uint256",
              "internalType": "uint256"
            },
            {
              "name": "vestingDuration",
              "type": "uint256",
              "internalType": "uint256"
            },
            {
              "name": "leftoverTokenOption",
              "type": "uint256",
              "internalType": "uint256"
            },
            {
              "name": "currency",
              "type": "address",
              "internalType": "address"
            },
            {
              "name": "whitelistType",
              "type": "uint8",
              "internalType": "enum Presale.WhitelistType"
            },
            {
              "name": "merkleRoot",
              "type": "bytes32",
              "internalType": "bytes32"
            },
            {
              "name": "nftContractAddress",
              "type": "address",
              "internalType": "address"
            }
          ]
        }
      ],
      "stateMutability": "view"
    },
    {
      "type": "function",
      "name": "getTotalContributed",
      "inputs": [],
      "outputs": [
        {
          "name": "",
          "type": "uint256",
          "internalType": "uint256"
        }
      ],
      "stateMutability": "view"
    },
    {
      "type": "function",
      "name": "houseAddress",
      "inputs": [],
      "outputs": [
        {
          "name": "",
          "type": "address",
          "internalType": "address"
        }
      ],
      "stateMutability": "view"
    },
    {
      "type": "function",
      "name": "housePercentage",
      "inputs": [],
      "outputs": [
        {
          "name": "",
          "type": "uint256",
          "internalType": "uint256"
        }
      ],
      "stateMutability": "view"
    },
    {
      "type": "function",
      "name": "initializeDeposit",
      "inputs": [],
      "outputs": [
        {
          "name": "",
          "type": "uint256",
          "internalType": "uint256"
        }
      ],
      "stateMutability": "nonpayable"
    },
    {
      "type": "function",
      "name": "isAllowedLiquidityBps",
      "inputs": [
        {
          "name": "_bps",
          "type": "uint256",
          "internalType": "uint256"
        }
      ],
      "outputs": [
        {
          "name": "",
          "type": "bool",
          "internalType": "bool"
        }
      ],
      "stateMutability": "view"
    },
    {
      "type": "function",
      "name": "liquidityLocker",
      "inputs": [],
      "outputs": [
        {
          "name": "",
          "type": "address",
          "internalType": "contract LiquidityLocker"
        }
      ],
      "stateMutability": "view"
    },
    {
      "type": "function",
      "name": "options",
      "inputs": [],
      "outputs": [
        {
          "name": "tokenDeposit",
          "type": "uint256",
          "internalType": "uint256"
        },
        {
          "name": "hardCap",
          "type": "uint256",
          "internalType": "uint256"
        },
        {
          "name": "softCap",
          "type": "uint256",
          "internalType": "uint256"
        },
        {
          "name": "min",
          "type": "uint256",
          "internalType": "uint256"
        },
        {
          "name": "max",
          "type": "uint256",
          "internalType": "uint256"
        },
        {
          "name": "presaleRate",
          "type": "uint256",
          "internalType": "uint256"
        },
        {
          "name": "listingRate",
          "type": "uint256",
          "internalType": "uint256"
        },
        {
          "name": "liquidityBps",
          "type": "uint256",
          "internalType": "uint256"
        },
        {
          "name": "slippageBps",
          "type": "uint256",
          "internalType": "uint256"
        },
        {
          "name": "start",
          "type": "uint256",
          "internalType": "uint256"
        },
        {
          "name": "end",
          "type": "uint256",
          "internalType": "uint256"
        },
        {
          "name": "lockupDuration",
          "type": "uint256",
          "internalType": "uint256"
        },
        {
          "name": "vestingPercentage",
          "type": "uint256",
          "internalType": "uint256"
        },
        {
          "name": "vestingDuration",
          "type": "uint256",
          "internalType": "uint256"
        },
        {
          "name": "leftoverTokenOption",
          "type": "uint256",
          "internalType": "uint256"
        },
        {
          "name": "currency",
          "type": "address",
          "internalType": "address"
        },
        {
          "name": "whitelistType",
          "type": "uint8",
          "internalType": "enum Presale.WhitelistType"
        },
        {
          "name": "merkleRoot",
          "type": "bytes32",
          "internalType": "bytes32"
        },
        {
          "name": "nftContractAddress",
          "type": "address",
          "internalType": "address"
        }
      ],
      "stateMutability": "view"
    },
    {
      "type": "function",
      "name": "owner",
      "inputs": [],
      "outputs": [
        {
          "name": "",
          "type": "address",
          "internalType": "address"
        }
      ],
      "stateMutability": "view"
    },
    {
      "type": "function",
      "name": "ownerBalance",
      "inputs": [],
      "outputs": [
        {
          "name": "",
          "type": "uint256",
          "internalType": "uint256"
        }
      ],
      "stateMutability": "view"
    },
    {
      "type": "function",
      "name": "pause",
      "inputs": [],
      "outputs": [],
      "stateMutability": "nonpayable"
    },
    {
      "type": "function",
      "name": "paused",
      "inputs": [],
      "outputs": [
        {
          "name": "",
          "type": "bool",
          "internalType": "bool"
        }
      ],
      "stateMutability": "view"
    },
    {
      "type": "function",
      "name": "refund",
      "inputs": [],
      "outputs": [
        {
          "name": "",
          "type": "uint256",
          "internalType": "uint256"
        }
      ],
      "stateMutability": "nonpayable"
    },
    {
      "type": "function",
      "name": "renounceOwnership",
      "inputs": [],
      "outputs": [],
      "stateMutability": "nonpayable"
    },
    {
      "type": "function",
      "name": "rescueTokens",
      "inputs": [
        {
          "name": "_erc20Token",
          "type": "address",
          "internalType": "address"
        },
        {
          "name": "_to",
          "type": "address",
          "internalType": "address"
        },
        {
          "name": "_amount",
          "type": "uint256",
          "internalType": "uint256"
        }
      ],
      "outputs": [],
      "stateMutability": "nonpayable"
    },
    {
      "type": "function",
      "name": "setMerkleRoot",
      "inputs": [
        {
          "name": "_merkleRoot",
          "type": "bytes32",
          "internalType": "bytes32"
        }
      ],
      "outputs": [],
      "stateMutability": "nonpayable"
    },
    {
      "type": "function",
      "name": "simulateLiquidityAddition",
      "inputs": [],
      "outputs": [
        {
          "name": "",
          "type": "bool",
          "internalType": "bool"
        },
        {
          "name": "",
          "type": "uint256",
          "internalType": "uint256"
        },
        {
          "name": "",
          "type": "uint256",
          "internalType": "uint256"
        }
      ],
      "stateMutability": "view"
    },
    {
      "type": "function",
      "name": "state",
      "inputs": [],
      "outputs": [
        {
          "name": "",
          "type": "uint8",
          "internalType": "enum Presale.PresaleState"
        }
      ],
      "stateMutability": "view"
    },
    {
      "type": "function",
      "name": "toggleWhitelist",
      "inputs": [
        {
          "name": "enabled",
          "type": "bool",
          "internalType": "bool"
        }
      ],
      "outputs": [],
      "stateMutability": "nonpayable"
    },
    {
      "type": "function",
      "name": "token",
      "inputs": [],
      "outputs": [
        {
          "name": "",
          "type": "address",
          "internalType": "contract ERC20"
        }
      ],
      "stateMutability": "view"
    },
    {
      "type": "function",
      "name": "tokenBalance",
      "inputs": [],
      "outputs": [
        {
          "name": "",
          "type": "uint256",
          "internalType": "uint256"
        }
      ],
      "stateMutability": "view"
    },
    {
      "type": "function",
      "name": "tokensClaimable",
      "inputs": [],
      "outputs": [
        {
          "name": "",
          "type": "uint256",
          "internalType": "uint256"
        }
      ],
      "stateMutability": "view"
    },
    {
      "type": "function",
      "name": "tokensLiquidity",
      "inputs": [],
      "outputs": [
        {
          "name": "",
          "type": "uint256",
          "internalType": "uint256"
        }
      ],
      "stateMutability": "view"
    },
    {
      "type": "function",
      "name": "totalRaised",
      "inputs": [],
      "outputs": [
        {
          "name": "",
          "type": "uint256",
          "internalType": "uint256"
        }
      ],
      "stateMutability": "view"
    },
    {
      "type": "function",
      "name": "totalRefundable",
      "inputs": [],
      "outputs": [
        {
          "name": "",
          "type": "uint256",
          "internalType": "uint256"
        }
      ],
      "stateMutability": "view"
    },
    {
      "type": "function",
      "name": "transferOwnership",
      "inputs": [
        {
          "name": "newOwner",
          "type": "address",
          "internalType": "address"
        }
      ],
      "outputs": [],
      "stateMutability": "nonpayable"
    },
    {
      "type": "function",
      "name": "uniswapV2Router02",
      "inputs": [],
      "outputs": [
        {
          "name": "",
          "type": "address",
          "internalType": "contract IUniswapV2Router02"
        }
      ],
      "stateMutability": "view"
    },
    {
      "type": "function",
      "name": "unpause",
      "inputs": [],
      "outputs": [],
      "stateMutability": "nonpayable"
    },
    {
      "type": "function",
      "name": "updateWhitelist",
      "inputs": [
        {
          "name": "addresses",
          "type": "address[]",
          "internalType": "address[]"
        },
        {
          "name": "add",
          "type": "bool",
          "internalType": "bool"
        }
      ],
      "outputs": [],
      "stateMutability": "nonpayable"
    },
    {
      "type": "function",
      "name": "userTokens",
      "inputs": [
        {
          "name": "_contributor",
          "type": "address",
          "internalType": "address"
        }
      ],
      "outputs": [
        {
          "name": "",
          "type": "uint256",
          "internalType": "uint256"
        }
      ],
      "stateMutability": "view"
    },
    {
      "type": "function",
      "name": "vestingContract",
      "inputs": [],
      "outputs": [
        {
          "name": "",
          "type": "address",
          "internalType": "contract Vesting"
        }
      ],
      "stateMutability": "view"
    },
    {
      "type": "function",
      "name": "weth",
      "inputs": [],
      "outputs": [
        {
          "name": "",
          "type": "address",
          "internalType": "address"
        }
      ],
      "stateMutability": "view"
    },
    {
      "type": "function",
      "name": "whitelistEnabled",
      "inputs": [],
      "outputs": [
        {
          "name": "",
          "type": "bool",
          "internalType": "bool"
        }
      ],
      "stateMutability": "view"
    },
    {
      "type": "function",
      "name": "withdraw",
      "inputs": [],
      "outputs": [],
      "stateMutability": "nonpayable"
    },
    {
      "type": "event",
      "name": "Cancel",
      "inputs": [
        {
          "name": "owner",
          "type": "address",
          "indexed": true,
          "internalType": "address"
        },
        {
          "name": "timestamp",
          "type": "uint256",
          "indexed": false,
          "internalType": "uint256"
        }
      ],
      "anonymous": false
    },
    {
      "type": "event",
      "name": "ClaimDeadlineExtended",
      "inputs": [
        {
          "name": "newDeadline",
          "type": "uint256",
          "indexed": false,
          "internalType": "uint256"
        }
      ],
      "anonymous": false
    },
    {
      "type": "event",
      "name": "Contribution",
      "inputs": [
        {
          "name": "contributor",
          "type": "address",
          "indexed": true,
          "internalType": "address"
        },
        {
          "name": "amount",
          "type": "uint256",
          "indexed": false,
          "internalType": "uint256"
        },
        {
          "name": "isETH",
          "type": "bool",
          "indexed": false,
          "internalType": "bool"
        }
      ],
      "anonymous": false
    },
    {
      "type": "event",
      "name": "Deposit",
      "inputs": [
        {
          "name": "sender",
          "type": "address",
          "indexed": true,
          "internalType": "address"
        },
        {
          "name": "amount",
          "type": "uint256",
          "indexed": false,
          "internalType": "uint256"
        },
        {
          "name": "timestamp",
          "type": "uint256",
          "indexed": false,
          "internalType": "uint256"
        }
      ],
      "anonymous": false
    },
    {
      "type": "event",
      "name": "Finalized",
      "inputs": [
        {
          "name": "owner",
          "type": "address",
          "indexed": true,
          "internalType": "address"
        },
        {
          "name": "amountRaised",
          "type": "uint256",
          "indexed": false,
          "internalType": "uint256"
        },
        {
          "name": "timestamp",
          "type": "uint256",
          "indexed": false,
          "internalType": "uint256"
        }
      ],
      "anonymous": false
    },
    {
      "type": "event",
      "name": "HouseFundsDistributed",
      "inputs": [
        {
          "name": "house",
          "type": "address",
          "indexed": true,
          "internalType": "address"
        },
        {
          "name": "amount",
          "type": "uint256",
          "indexed": false,
          "internalType": "uint256"
        }
      ],
      "anonymous": false
    },
    {
      "type": "event",
      "name": "LeftoverTokensBurned",
      "inputs": [
        {
          "name": "amount",
          "type": "uint256",
          "indexed": false,
          "internalType": "uint256"
        }
      ],
      "anonymous": false
    },
    {
      "type": "event",
      "name": "LeftoverTokensReturned",
      "inputs": [
        {
          "name": "amount",
          "type": "uint256",
          "indexed": false,
          "internalType": "uint256"
        },
        {
          "name": "beneficiary",
          "type": "address",
          "indexed": true,
          "internalType": "address"
        }
      ],
      "anonymous": false
    },
    {
      "type": "event",
      "name": "LeftoverTokensVested",
      "inputs": [
        {
          "name": "amount",
          "type": "uint256",
          "indexed": false,
          "internalType": "uint256"
        },
        {
          "name": "beneficiary",
          "type": "address",
          "indexed": true,
          "internalType": "address"
        }
      ],
      "anonymous": false
    },
    {
      "type": "event",
      "name": "LiquidityAdded",
      "inputs": [
        {
          "name": "pair",
          "type": "address",
          "indexed": true,
          "internalType": "address"
        },
        {
          "name": "lpAmount",
          "type": "uint256",
          "indexed": false,
          "internalType": "uint256"
        },
        {
          "name": "unlockTime",
          "type": "uint256",
          "indexed": false,
          "internalType": "uint256"
        }
      ],
      "anonymous": false
    },
    {
      "type": "event",
      "name": "MerkleRootUpdated",
      "inputs": [
        {
          "name": "_merkleRoot",
          "type": "bytes32",
          "indexed": true,
          "internalType": "bytes32"
        }
      ],
      "anonymous": false
    },
    {
      "type": "event",
      "name": "OwnershipTransferred",
      "inputs": [
        {
          "name": "previousOwner",
          "type": "address",
          "indexed": true,
          "internalType": "address"
        },
        {
          "name": "newOwner",
          "type": "address",
          "indexed": true,
          "internalType": "address"
        }
      ],
      "anonymous": false
    },
    {
      "type": "event",
      "name": "Paused",
      "inputs": [
        {
          "name": "account",
          "type": "address",
          "indexed": true,
          "internalType": "address"
        }
      ],
      "anonymous": false
    },
    {
      "type": "event",
      "name": "PresaleCreated",
      "inputs": [
        {
          "name": "creator",
          "type": "address",
          "indexed": true,
          "internalType": "address"
        },
        {
          "name": "presale",
          "type": "address",
          "indexed": true,
          "internalType": "address"
        },
        {
          "name": "token",
          "type": "address",
          "indexed": true,
          "internalType": "address"
        },
        {
          "name": "start",
          "type": "uint256",
          "indexed": false,
          "internalType": "uint256"
        },
        {
          "name": "end",
          "type": "uint256",
          "indexed": false,
          "internalType": "uint256"
        }
      ],
      "anonymous": false
    },
    {
      "type": "event",
      "name": "Purchase",
      "inputs": [
        {
          "name": "buyer",
          "type": "address",
          "indexed": true,
          "internalType": "address"
        },
        {
          "name": "amount",
          "type": "uint256",
          "indexed": false,
          "internalType": "uint256"
        }
      ],
      "anonymous": false
    },
    {
      "type": "event",
      "name": "Refund",
      "inputs": [
        {
          "name": "contributor",
          "type": "address",
          "indexed": true,
          "internalType": "address"
        },
        {
          "name": "amount",
          "type": "uint256",
          "indexed": false,
          "internalType": "uint256"
        },
        {
          "name": "timestamp",
          "type": "uint256",
          "indexed": false,
          "internalType": "uint256"
        }
      ],
      "anonymous": false
    },
    {
      "type": "event",
      "name": "TokenClaim",
      "inputs": [
        {
          "name": "claimer",
          "type": "address",
          "indexed": true,
          "internalType": "address"
        },
        {
          "name": "amount",
          "type": "uint256",
          "indexed": false,
          "internalType": "uint256"
        },
        {
          "name": "timestamp",
          "type": "uint256",
          "indexed": false,
          "internalType": "uint256"
        }
      ],
      "anonymous": false
    },
    {
      "type": "event",
      "name": "TokensRescued",
      "inputs": [
        {
          "name": "token",
          "type": "address",
          "indexed": true,
          "internalType": "address"
        },
        {
          "name": "to",
          "type": "address",
          "indexed": true,
          "internalType": "address"
        },
        {
          "name": "amount",
          "type": "uint256",
          "indexed": false,
          "internalType": "uint256"
        }
      ],
      "anonymous": false
    },
    {
      "type": "event",
      "name": "Unpaused",
      "inputs": [
        {
          "name": "account",
          "type": "address",
          "indexed": true,
          "internalType": "address"
        }
      ],
      "anonymous": false
    },
    {
      "type": "event",
      "name": "WhitelistToggled",
      "inputs": [
        {
          "name": "enabled",
          "type": "bool",
          "indexed": false,
          "internalType": "bool"
        }
      ],
      "anonymous": false
    },
    {
      "type": "event",
      "name": "WhitelistUpdated",
      "inputs": [
        {
          "name": "contributor",
          "type": "address",
          "indexed": true,
          "internalType": "address"
        },
        {
          "name": "added",
          "type": "bool",
          "indexed": false,
          "internalType": "bool"
        }
      ],
      "anonymous": false
    },
    {
      "type": "event",
      "name": "Withdrawn",
      "inputs": [
        {
          "name": "owner",
          "type": "address",
          "indexed": true,
          "internalType": "address"
        },
        {
          "name": "amount",
          "type": "uint256",
          "indexed": false,
          "internalType": "uint256"
        }
      ],
      "anonymous": false
    },
    {
      "type": "error",
      "name": "AlreadyPaused",
      "inputs": []
    },
    {
      "type": "error",
      "name": "BatchTooLarge",
      "inputs": []
    },
    {
      "type": "error",
      "name": "BelowMinimumContribution",
      "inputs": []
    },
    {
      "type": "error",
      "name": "CannotRescueBeforeFinalization",
      "inputs": []
    },
    {
      "type": "error",
      "name": "CannotRescueBeforeFinalizationOrCancellation",
      "inputs": []
    },
    {
      "type": "error",
      "name": "CannotRescuePresaleTokens",
      "inputs": []
    },
    {
      "type": "error",
      "name": "ClaimPeriodExpired",
      "inputs": []
    },
    {
      "type": "error",
      "name": "ContractPaused",
      "inputs": []
    },
    {
      "type": "error",
      "name": "DeprecatedFunction",
      "inputs": []
    },
    {
      "type": "error",
      "name": "ETHNotAccepted",
      "inputs": []
    },
    {
      "type": "error",
      "name": "ExceedsMaximumContribution",
      "inputs": []
    },
    {
      "type": "error",
      "name": "FailedCall",
      "inputs": []
    },
    {
      "type": "error",
      "name": "HardCapExceed",
      "inputs": []
    },
    {
      "type": "error",
      "name": "HardCapExceeded",
      "inputs": []
    },
    {
      "type": "error",
      "name": "InsufficientBalance",
      "inputs": [
        {
          "name": "balance",
          "type": "uint256",
          "internalType": "uint256"
        },
        {
          "name": "needed",
          "type": "uint256",
          "internalType": "uint256"
        }
      ]
    },
    {
      "type": "error",
      "name": "InsufficientContractBalance",
      "inputs": []
    },
    {
      "type": "error",
      "name": "InsufficientTokenBalance",
      "inputs": []
    },
    {
      "type": "error",
      "name": "InsufficientTokenDeposit",
      "inputs": [
        {
          "name": "amount",
          "type": "uint256",
          "internalType": "uint256"
        },
        {
          "name": "totalTokensNeeded",
          "type": "uint256",
          "internalType": "uint256"
        }
      ]
    },
    {
      "type": "error",
      "name": "InsufficientTokensForLiquidity",
      "inputs": [
        {
          "name": "tokenBalance",
          "type": "uint256",
          "internalType": "uint256"
        },
        {
          "name": "actualTokensForLiquidity",
          "type": "uint256",
          "internalType": "uint256"
        }
      ]
    },
    {
      "type": "error",
      "name": "InvalidAddress",
      "inputs": []
    },
    {
      "type": "error",
      "name": "InvalidCapSettings",
      "inputs": []
    },
    {
      "type": "error",
      "name": "InvalidCapValue",
      "inputs": []
    },
    {
      "type": "error",
      "name": "InvalidContributionLimits",
      "inputs": []
    },
    {
      "type": "error",
      "name": "InvalidContributorAddress",
      "inputs": []
    },
    {
      "type": "error",
      "name": "InvalidCurrencyDecimals",
      "inputs": []
    },
    {
      "type": "error",
      "name": "InvalidDeadline",
      "inputs": []
    },
    {
      "type": "error",
      "name": "InvalidHouseAddress",
      "inputs": []
    },
    {
      "type": "error",
      "name": "InvalidHouseConfiguration",
      "inputs": []
    },
    {
      "type": "error",
      "name": "InvalidHousePercentage",
      "inputs": []
    },
    {
      "type": "error",
      "name": "InvalidInitialization",
      "inputs": []
    },
    {
      "type": "error",
      "name": "InvalidInitializationParameters",
      "inputs": []
    },
    {
      "type": "error",
      "name": "InvalidLeftoverTokenOption",
      "inputs": []
    },
    {
      "type": "error",
      "name": "InvalidLimitValue",
      "inputs": []
    },
    {
      "type": "error",
      "name": "InvalidLiquidityAmounts",
      "inputs": []
    },
    {
      "type": "error",
      "name": "InvalidLiquidityBps",
      "inputs": []
    },
    {
      "type": "error",
      "name": "InvalidLiquidityValue",
      "inputs": []
    },
    {
      "type": "error",
      "name": "InvalidLockupDuration",
      "inputs": []
    },
    {
      "type": "error",
      "name": "InvalidMerkleRoot",
      "inputs": []
    },
    {
      "type": "error",
      "name": "InvalidNftContractAddress",
      "inputs": []
    },
    {
      "type": "error",
      "name": "InvalidRates",
      "inputs": []
    },
    {
      "type": "error",
      "name": "InvalidRouter",
      "inputs": []
    },
    {
      "type": "error",
      "name": "InvalidSettings",
      "inputs": []
    },
    {
      "type": "error",
      "name": "InvalidSlippage",
      "inputs": []
    },
    {
      "type": "error",
      "name": "InvalidState",
      "inputs": [
        {
          "name": "currentState",
          "type": "uint8",
          "internalType": "uint8"
        }
      ]
    },
    {
      "type": "error",
      "name": "InvalidTimestampValue",
      "inputs": []
    },
    {
      "type": "error",
      "name": "InvalidTimestamps",
      "inputs": []
    },
    {
      "type": "error",
      "name": "InvalidVestingDuration",
      "inputs": []
    },
    {
      "type": "error",
      "name": "InvalidVestingPercentage",
      "inputs": []
    },
    {
      "type": "error",
      "name": "LPLockFailed",
      "inputs": []
    },
    {
      "type": "error",
      "name": "LPLockFailedReason",
      "inputs": [
        {
          "name": "reason",
          "type": "string",
          "internalType": "string"
        }
      ]
    },
    {
      "type": "error",
      "name": "LiquificationFailed",
      "inputs": []
    },
    {
      "type": "error",
      "name": "LiquificationFailedReason",
      "inputs": [
        {
          "name": "reason",
          "type": "string",
          "internalType": "string"
        }
      ]
    },
    {
      "type": "error",
      "name": "LiquificationFailedReasonBytes",
      "inputs": [
        {
          "name": "reason",
          "type": "bytes",
          "internalType": "bytes"
        }
      ]
    },
    {
      "type": "error",
      "name": "LiquificationYieldedZeroLP",
      "inputs": []
    },
    {
      "type": "error",
      "name": "NftCheckFailed",
      "inputs": []
    },
    {
      "type": "error",
      "name": "NoFundsToRefund",
      "inputs": []
    },
    {
      "type": "error",
      "name": "NoFundsToWithdraw",
      "inputs": []
    },
    {
      "type": "error",
      "name": "NoTokensToClaim",
      "inputs": []
    },
    {
      "type": "error",
      "name": "NotActive",
      "inputs": []
    },
    {
      "type": "error",
      "name": "NotClaimable",
      "inputs": []
    },
    {
      "type": "error",
      "name": "NotFactory",
      "inputs": []
    },
    {
      "type": "error",
      "name": "NotInPurchasePeriod",
      "inputs": []
    },
    {
      "type": "error",
      "name": "NotNftHolder",
      "inputs": []
    },
    {
      "type": "error",
      "name": "NotPaused",
      "inputs": []
    },
    {
      "type": "error",
      "name": "NotRefundable",
      "inputs": []
    },
    {
      "type": "error",
      "name": "NotWhitelisted",
      "inputs": []
    },
    {
      "type": "error",
      "name": "OwnableInvalidOwner",
      "inputs": [
        {
          "name": "owner",
          "type": "address",
          "internalType": "address"
        }
      ]
    },
    {
      "type": "error",
      "name": "OwnableUnauthorizedAccount",
      "inputs": [
        {
          "name": "account",
          "type": "address",
          "internalType": "address"
        }
      ]
    },
    {
      "type": "error",
      "name": "PairAddressZero",
      "inputs": []
    },
    {
      "type": "error",
      "name": "PairAlreadyExists",
      "inputs": [
        {
          "name": "token",
          "type": "address",
          "internalType": "address"
        },
        {
          "name": "currency",
          "type": "address",
          "internalType": "address"
        }
      ]
    },
    {
      "type": "error",
      "name": "PairCreationFailed",
      "inputs": [
        {
          "name": "token",
          "type": "address",
          "internalType": "address"
        },
        {
          "name": "pairCurrency",
          "type": "address",
          "internalType": "address"
        }
      ]
    },
    {
      "type": "error",
      "name": "PresaleNotEnded",
      "inputs": []
    },
    {
      "type": "error",
      "name": "PurchaseBelowMinimum",
      "inputs": []
    },
    {
      "type": "error",
      "name": "PurchaseLimitExceed",
      "inputs": []
    },
    {
      "type": "error",
      "name": "ReentrancyGuardReentrantCall",
      "inputs": []
    },
    {
      "type": "error",
      "name": "SafeERC20FailedOperation",
      "inputs": [
        {
          "name": "token",
          "type": "address",
          "internalType": "address"
        }
      ]
    },
    {
      "type": "error",
      "name": "SoftCapNotReached",
      "inputs": []
    },
    {
      "type": "error",
      "name": "SoftCapTooLow",
      "inputs": []
    },
    {
      "type": "error",
      "name": "StablecoinNotAccepted",
      "inputs": []
    },
    {
      "type": "error",
      "name": "Unauthorized",
      "inputs": []
    },
    {
      "type": "error",
      "name": "ZeroAmount",
      "inputs": []
    },
    {
      "type": "error",
      "name": "ZeroDecimals",
      "inputs": []
    },
    {
      "type": "error",
      "name": "ZeroLiquidityAmounts",
      "inputs": []
    },
    {
      "type": "error",
      "name": "ZeroTokensForContribution",
      "inputs": []
    }
  ],
  "bytecode": {
    "object": "0x6101c0604052346107815761437b803803809161001e826101c0610965565b6101c0396103808112610781576100366101c0610988565b6100416101e0610988565b61026061004f610200610988565b93605f190112610781576040519261026084016001600160401b0381118582101761093e57604090815261022051855261024051602086015261026051908501526102805160608501526102a05160808501526102c05160a08501526102e05160c08501526103005160e0850152610320516101008501526103405161012085015261036051610140850152610380516101608501526103a0516101808501526103c0516101a08501526103e0516101c085015261010e610400610988565b6101e0850152610420516003811015610781576102008501526104405161022085015261013c610460610988565b61024085015261014d610480610988565b926101596104a0610988565b6101646104c0610988565b6104e05190610174610500610988565b92610180610520610988565b60015f55946001600160a01b0389161561095257600180546001600160a01b038b81166001600160a01b031983168117909355167f8be0079c531659141344cd1fd0a4f28419497f9722a3daafe3b4186f6b6457e05f80a3601b546801000000000000000081101561093e578060016101fe9201601b55601b61099c565b81549060031b90611388821b915f19901b1916179055601b546801000000000000000081101561093e5780600161023a9201601b55601b61099c565b81549060031b90611770821b915f19901b1916179055601b546801000000000000000081101561093e578060016102769201601b55601b61099c565b81549060031b90611b58821b915f19901b1916179055601b546801000000000000000081101561093e578060016102b29201601b55601b61099c565b81549060031b90611f40821b915f19901b1916179055601b546801000000000000000081101561093e578060016102ee9201601b55601b61099c565b81549060031b90612328821b915f19901b1916179055601b546801000000000000000081101561093e5780600161032a9201601b55601b61099c565b81545f1960039290921b91821b191661271090911b1790556001600160a01b03811615801561092d575b801561091c575b6108fc576001600160a01b03821615801561090b575b6108fc5760026101c08b0151116108ed576101f484116108d5576001600160a01b03851615806108e4575b6108d55760208a015180159081156108c8575b81156108ba575b506108ab5760808a0151801590811561089e575b811561088f575b8115610881575b506108725760a08a01518015908115610865575b8115610856575b50610847576101208a0151428110908115610837575b50610828576101808a0151612710811190811561080b575b506107fc576102008a0151600381101561079857600114806107ef575b6107e0576102008a0151600381101561079857600214806107ca575b6107bb5761046b60e08b01516109c5565b156107ac576101a09081526001600160a01b0388811661014090815288821661016090815293821660a090815294821660c090815260e09687526101009788528c5160055560208d015160065560408d015160075560608d015160085560808d0151600955948c0151600a55938b0151600b55938a0151600c5593890151600d55610120890151600e5590880151600f55870151601055610180870151601155908601516012556101c08601516013556101e0860151601480546001600160a01b031916919092161790556102008501516003811015610798576014805460ff60a01b191660a09290921b60ff60a01b16919091179055610220850151601555610240850151601680546001600160a01b0319166001600160a01b0392909216919091179055610120526017805460ff19169055610200840151600381101561079857151560805260405163c45a015560e01b815290602090829060049082906001600160a01b03165afa90811561078d575f9161074f575b5061018052610140610120840151930151604051938452602084015260018060a01b0316917fdf058c371fcd1a975a9f8b29fb3823e0f4fcc990e97f681cca2bfe085eae91d96040309360018060a01b031692a46040516139589081610a23823960805181611298015260a051818181610eca0152611b9a015260c051818181611110015281816113e00152613322015260e0518181816116bf01526121cc015261010051818181610975015261179e015261012051818181610f0e015261242801526101405181818161066e0152818161086901528181610a9b015281816114140152818161151d01528181611616015281816124c101528181612baa01528181612ef6015261316a015261016051818181610e3801526119a6015261018051818181610b620152818161183a015281816125070152612c8e01526101a0518181816117f0015281816118e8015281816122460152818161248a01528181612c310152612d170152f35b90506020813d602011610785575b8161076a60209383610965565b810103126107815761077b90610988565b5f6105e4565b5f80fd5b3d915061075d565b6040513d5f823e3d90fd5b634e487b7160e01b5f52602160045260245ffd5b6304b0a71d60e31b5f5260045ffd5b633ab4448b60e01b5f5260045ffd5b506102408a01516001600160a01b03161561045a565b639dd854d360e01b5f5260045ffd5b506102208a01511561043e565b6329a8bc8760e11b5f5260045ffd5b905015158061081b575b5f610421565b506101a08a015115610815565b63d22806e360e01b5f5260045ffd5b90506101408b015111155f610409565b63d1107a7960e01b5f5260045ffd5b905060c08b015110155f6103f3565b60c08c01511591506103ec565b63dcac5ed360e01b5f5260045ffd5b905060208b0151105f6103d8565b80915060608c015111906103d1565b60608c01511591506103ca565b63269ae9a360e01b5f5260045ffd5b905060408b0151115f6103b6565b60408c01511591506103af565b6362c9b89160e11b5f5260045ffd5b5083151561039c565b635ff75f6f60e11b5f5260045ffd5b63f92ee8a960e01b5f5260045ffd5b506001600160a01b03831615610371565b506001600160a01b0387161561035b565b506001600160a01b03881615610354565b634e487b7160e01b5f52604160045260245ffd5b631e4fbdf760e01b5f525f60045260245ffd5b601f909101601f19168101906001600160401b0382119082101761093e57604052565b51906001600160a01b038216820361078157565b80548210156109b1575f5260205f2001905f90565b634e487b7160e01b5f52603260045260245ffd5b601b5490815f5b8381106109db57505050505f90565b818110156109b157601b5f527f3ad8aa4f87544323a9d1e5dd902f40c356527a7955687113db5f9a85ad579dc18101548314610a19576001016109cc565b5050505060019056fe60a06040526004361015610408575b3615610018575f80fd5b610020612f74565b60ff600354166103f95760ff6017541660048110156103aa57600181036103e757600e54421080156103dc575b6103cd5733156103be5760145460ff8160a01c1660038110156103aa5760018103610304575060155460405160208101906bffffffffffffffffffffffff193360601b168252601481526100a2603482612a7c565b5190205f905b6060518210156100e95760808260051b0151908181105f146100d8575f52602052600160405f205b9101906100a8565b905f52602052600160405f206100d0565b9050036102f5576001600160a01b03905b161580156102cb5734156102bc575b80156102b55734905b601f54916101208184612abd565b600654106102a65760085481106102975761014790335f52601860205260405f2054612abd565b60095410610288571561027d5761015f348092612abd565b601f5561016e81600254612abd565b600255335f52601960205260ff60405f20541615610210575b335f52601860205260405f2061019e828254612abd565b90556040518181527f2499a5330ab0979cc612135e7883ebc3cd5c9f7a8508f042540c34723348f63260203392a26001600160a01b03601454161560405191825260208201527f08ce00466abd322339ad31e43307a70a872f8c32a13d8b24ed85948ba75ed1b360403392a260015f55005b335f52601960205260405f20600160ff19825416179055601a54680100000000000000008110156102695780600161024b9201601a55612799565b81549060031b906001600160a01b0333831b921b1916179055610187565b634e487b7160e01b5f52604160045260245ffd5b61015f348092612abd565b639f256db560e01b5f5260045ffd5b632afb507160e21b5f5260045ffd5b631c4af3c960e11b5f5260045ffd5b3490610112565b631f2a200560e01b5f5260045ffd5b341580156102e7571561010957631f2a200560e01b5f5260045ffd5b6248c6b960e61b5f5260045ffd5b630b094f2760e31b5f5260045ffd5b60021461031a575b6001600160a01b03906100fa565b602460206001600160a01b0360165416604051928380926370a0823160e01b82523360048301525afa5f9181610372575b5061035f5763457b8b9360e11b5f5260045ffd5b61030c5763e9e7bfc360e01b5f5260045ffd5b9091506020813d6020116103a2575b8161038e60209383612a7c565b8101031261039e5751908361034b565b5f80fd5b3d9150610381565b634e487b7160e01b5f52602160045260245ffd5b63bc02ea9360e01b5f5260045ffd5b6338e102f160e21b5f5260045ffd5b50600f54421161004d565b63683f44bb60e11b5f5260045260245ffd5b63ab35696f60e01b5f5260045ffd5b5f5f3560e01c80631069143a1461268557806313db82381461240e57806318e4274d146123f157806321eff7fc146121ef578063253da8bd146123d457806331f684c0146123b75780633ba86c441461239b5780633cb5d1001461235a5780633ccfd60b146122cb5780633f4ba83a1461226a5780633fc8cef31461222757806342e94c90146121ef57806349d2e277146121b55780634bb278f3146115905780634e71d92d146112bd57806351fb012d14611280578063590e1ae3146111575780635c975abb146111345780635e6f6045146110f0578063715018a61461109c5780637abbc1501461100b5780637cb6475914610ff657806380e3f1ad14610fdc5780638456cb5914610f775780638da5cb5b14610f5057806391a9207b14610f3257806395691a6d14610eee5780639759164a14610eaa5780639e1a4d1914610e8c578063a0e7f79a14610e5c578063a7c6402c14610e18578063af157c1914610d50578063af1ad48b14610c6e578063aff177ca14610c2e578063b57b92a514610c10578063bedcf00314610bf2578063c19d93fb14610bb2578063c1d41e9514610b86578063c45a015514610b42578063c5c4744c14610b24578063cc2ee196146109b5578063cea9d26f146109ba578063d02c880a146109b5578063d0e30db014610999578063d7cee31e14610955578063e1f1c4a714610938578063ea4a9c851461090f578063ea8a1af0146107b1578063ed498fa814610785578063f2fde38b14610704578063f7bdc4f7146106955763fc0c546a1461064f575061000e565b3461069257806003193601126106925760206040516001600160a01b037f0000000000000000000000000000000000000000000000000000000000000000168152f35b80fd5b5060203660031901126106925760043567ffffffffffffffff8111610700576106c29036906004016127e3565b6106ca612f74565b60ff600354166106f1576106ea916106e3913691612e06565b3433613467565b6001815580f35b63ab35696f60e01b8352600483fd5b5080fd5b5034610692576020366003190112610692576001600160a01b03610726612783565b61072e612f92565b168015610771576001600160a01b03600154828219821617600155167f8be0079c531659141344cd1fd0a4f28419497f9722a3daafe3b4186f6b6457e08380a380f35b631e4fbdf760e01b82526004829052602482fd5b50346106925760203660031901126106925760206107a96107a4612783565b612eb9565b604051908152f35b50346106925780600319360112610692576107ca612f74565b6107d2612f92565b60ff600354166109005760ff601754169060048210156108ec57600182148015906108e0575b80156108d2575b6108c0576017805460ff19166002179055601c546001919080610856575b506040514281527f27f83af92b39768b17fe0c8d6922452702717efb8626d97e7a754e0b27d4f6d260203392a255602060405160018152f35b81601c5561088e81336001600160a01b037f0000000000000000000000000000000000000000000000000000000000000000166137be565b6040519081527fbf95d20e2a316bd9c3e2efd35653a948438013277330af4b3fee49455a0e637260203392a28261081d565b60249163683f44bb60e11b8252600452fd5b50601f5460075411156107ff565b50600f544211156107f8565b634e487b7160e01b81526021600452602490fd5b63ab35696f60e01b8152600490fd5b503461069257602036600319011261069257602061092e600435612e5c565b6040519015158152f35b503461069257806003193601126106925760206040516127108152f35b503461069257806003193601126106925760206040516001600160a01b037f0000000000000000000000000000000000000000000000000000000000000000168152f35b5034610692578060031936011261069257602090604051908152f35b612814565b5034610692576060366003190112610692576109d4612783565b6024356001600160a01b03811691828203610b2057604435906109f5612f92565b8315610b115760ff60175416600481101580610afd57600382149182159081610aee575b50610adf57610acb5780610a90575b80610a84575b610a755781610a6b7f77023e19c7343ad491fd706c36335ca0e738340a91f29b1fd81e2673d44896c4936001600160a01b036020941695866137be565b604051908152a380f35b63d64d4b7160e01b8552600485fd5b50602054421115610a2e565b506001600160a01b037f0000000000000000000000000000000000000000000000000000000000000000166001600160a01b03821614610a28565b634e487b7160e01b86526021600452602486fd5b63662fcd5d60e01b8752600487fd5b9150506002879114155f610a19565b634e487b7160e01b87526021600452602487fd5b63e6c4247b60e01b8552600485fd5b8380fd5b50346106925780600319360112610692576020601f54604051908152f35b503461069257806003193601126106925760206040516001600160a01b037f0000000000000000000000000000000000000000000000000000000000000000168152f35b503461069257806003193601126106925760206107a9610ba4612f46565b610bac612f55565b90612abd565b503461069257806003193601126106925760ff60175416604051906004811015610bde57602092508152f35b634e487b7160e01b83526021600452602483fd5b50346106925780600319360112610692576020600454604051908152f35b50346106925780600319360112610692576020601e54604051908152f35b50346106925760403660031901126106925760043567ffffffffffffffff811161070057610c609036906004016127e3565b5050610c6a6127d4565b5080f35b50346106925760403660031901126106925760043560243567ffffffffffffffff8111610d4c57610ca39036906004016127e3565b610cab612f74565b60ff60035416610d3d576001600160a01b03601454168015610d2e578315610d1f5791610d1891610d116106ea9594604051906323b872dd60e01b602083015233602483015230604483015286606483015260648252610d0c608483612a7c565b6138ce565b3691612e06565b9033613467565b631f2a200560e01b8552600485fd5b6306a39ded60e41b8552600485fd5b63ab35696f60e01b8452600484fd5b8280fd5b5034610692578060031936011261069257604051806020601a5491828152018091601a85527f057c384a7d1c54f3a1b2e5e67b2617b8224fdfd1ea7234eea573a6ff665ff63e90855b818110610df95750505082610daf910383612a7c565b604051928392602084019060208552518091526040840192915b818110610dd7575050500390f35b82516001600160a01b0316845285945060209384019390920191600101610dc9565b82546001600160a01b0316845260209093019260019283019201610d99565b503461069257806003193601126106925760206040516001600160a01b037f0000000000000000000000000000000000000000000000000000000000000000168152f35b50346106925780600319360112610692576060610e77612b7c565b90604051921515835260208301526040820152f35b50346106925780600319360112610692576020601c54604051908152f35b503461069257806003193601126106925760206040516001600160a01b037f0000000000000000000000000000000000000000000000000000000000000000168152f35b503461069257806003193601126106925760206040516001600160a01b037f0000000000000000000000000000000000000000000000000000000000000000168152f35b50346106925780600319360112610692576020600254604051908152f35b503461069257806003193601126106925760206001600160a01b0360015416604051908152f35b5034610692578060031936011261069257610f90612f92565b60035460ff8116610fcd5760ff1916600117600355337f62e78cea01bee320cd4e420270b5ea74000d11b0c9f74754ebdbfc544b05a2588280a280f35b631785c68160e01b8252600482fd5b503461069257602036600319011261069257610c6a6127c5565b50346106925760203660031901126106925780f35b503461069257602036600319011261069257600435611028612f92565b60ff601754166004811015610bde576003810361108a575060205481111561107b576020817ff1178b3c495407dc107b27908c56bee4f47c0295055c88d6110c026737fd2eb3928255604051908152a180f35b631da7447960e21b8252600482fd5b63683f44bb60e11b8352600452602482fd5b50346106925780600319360112610692576110b5612f92565b806001600160a01b0360015481198116600155167f8be0079c531659141344cd1fd0a4f28419497f9722a3daafe3b4186f6b6457e08280a380f35b503461069257806003193601126106925760206040516001600160a01b037f0000000000000000000000000000000000000000000000000000000000000000168152f35b5034610692578060031936011261069257602060ff600354166040519015158152f35b5034610692578060031936011261069257611170612f74565b60ff60175416600481101561126c576002811490811561123d575b501561122e5733815260186020526040812054801561121f576001602092338152601884528060408120558260025410155f14611216576111ce83600254612b25565b6002555b6111dc8333612fb9565b60405183815242858201527f73f04af9dcc582a923ec15d3eea990fe34adabfff2879e28d44572e01a54abb660403392a255604051908152f35b806002556111d2565b634625bdf760e01b8252600482fd5b631ba168fb60e11b8152600490fd5b600191501480611261575b80611254575b5f61118b565b50601f546007541161124e565b50600f544211611248565b634e487b7160e01b82526021600452602482fd5b503461069257806003193601126106925760206040517f000000000000000000000000000000000000000000000000000000000000000015158152f35b50346106925780600319360112610692576112d6612f74565b60ff600354166109005760ff60175416600481101561126c576003810361157e5750602054421161156f5761130a33612eb9565b8015611561573382526018602052816040812055601c54818110611552578161133291612b25565b601c5561133d61310d565b8181526011546020820181905280156115485761271061135f60609285612aca565b04915b61137460408201938085528251612b25565b91829101528061150e575b50805190816113c9575b60208360018660405183815242858201527f30c2341ba3f2142e78472f07dcf018a42044ae1c2c2e7ce867b327257f07ef2b60403392a255604051908152f35b60405163095ea7b360e01b81526001600160a01b037f0000000000000000000000000000000000000000000000000000000000000000811660048301819052602483019490945285927f00000000000000000000000000000000000000000000000000000000000000009091169160208160448187875af18015611503576114d6575b50519260125491813b15610b2057604051631bc6452160e31b81523060048201523360248201526001600160a01b03919091166044820152606481019490945242608485015260a4840191909152829060c490829084905af180156114cb576114b6575b80611389565b6114c1838092612a7c565b610700575f6114b0565b6040513d85823e3d90fd5b6114f79060203d6020116114fc575b6114ef8183612a7c565b8101906130f5565b61144c565b503d6114e5565b6040513d86823e3d90fd5b61154290336001600160a01b037f0000000000000000000000000000000000000000000000000000000000000000166137be565b5f61137f565b5060608391611362565b637222ae5760e11b8352600483fd5b62f3f86160e41b8252600482fd5b632253b77960e01b8152600490fd5b63683f44bb60e11b8252600452602490fd5b503461039e575f36600319011261039e576115a9612f74565b6115b1612f92565b60ff600354166103f95760ff6017541660048110156103aa57600181036103e75750600f544211156121a657601f5460075411612197576127106115fa601f54600c5490612aca565b04611607600b5482612aca565b60405163313ce56760e01b81527f00000000000000000000000000000000000000000000000000000000000000006001600160a01b03169291602082600481875afa908115611cf65761166861166e9261167c945f91611fca575b50612af6565b90612aca565b611676613078565b90612b07565b811515925f91848061218e575b61214f575b50600360ff196017541617601755811515938461213b575b601f54946116ec6116b78688612b25565b6127106116e57f0000000000000000000000000000000000000000000000000000000000000000809a612aca565b0490612b25565b60045562ed4e004201804211611d905760205581612133575b506117d6575b50505090612710611720600193601f54612aca565b0480611771575b50611730613142565b601f546040519081524260208201527f616c9469db50815ae0f1d0a020d9fc9060da7c57f03559afb0d4ebdaa0a3a05e60403392a255602060405160018152f35b7f0f5237766fb8b2313e23d359023b2fe32aa11ff9048495b861341a994d9114bc60206001600160a01b037f00000000000000000000000000000000000000000000000000000000000000006117c78582612fb9565b6040519485521692a25f611727565b8192806001600160a01b036014541680155f1461212e57507f00000000000000000000000000000000000000000000000000000000000000005b60405163e6a4390560e01b81526001600160a01b03858116600483015282811660248301529091907f000000000000000000000000000000000000000000000000000000000000000016602083604481845afa928315611cf6575f9361210d575b506001600160a01b0383161561205b575b50506001600160a01b031693841561204c57604051630240bc6b60e21b8152606081600481895afa908115611cf6575f905f9261200d575b506001600160701b038091169116906001600160a01b036014541680155f14611fff57506001600160a01b037f00000000000000000000000000000000000000000000000000000000000000005b16861015611ff95790915b81611f5b575b50505050600d5461271003936127108511611d90576127106119478161193f8885612aca565b049684612aca565b04946040519560c087019387851067ffffffffffffffff8611176102695760409485528752602080880184815288860193845260608901928352608089019788525f60a08a01818152965163095ea7b360e01b81526001600160a01b037f000000000000000000000000000000000000000000000000000000000000000016600482018190526024820197909752969991939290879060449082908b5af1958615611cf657602496611f3e575b5060206001600160a01b03895116604051978880926370a0823160e01b82523060048301525afa958615611cf6575f96611f0a575b506014546001600160a01b031680611da457505191519251905192610258420190814211611d905760609360c492604051968795869463f305d71960e01b86528c600487015260248601526044850152606484015230608484015260a4830152865af19081611d61575b50611aee57611aa0613815565b6308c379a014611aba575b6376d097f360e11b5f5260045ffd5b611ac2613830565b80611acd5750611aab565b604051633c10bbab60e11b8152908190611aea90600483016138a4565b0390fd5b5f9260446020925b604051958693849263095ea7b360e01b845260048401528160248401525af1918215611cf657602492611d44575b5060206001600160a01b03845116604051938480926370a0823160e01b82523060048301525afa8015611cf6575f90611d10575b611b629250612b25565b80835215611d01576001600160a01b039051169051611b8360105442612abd565b60405163095ea7b360e01b81526001600160a01b037f0000000000000000000000000000000000000000000000000000000000000000166004820181905260248201849052906020816044815f895af18015611cf657611cd9575b506001600160a01b0360015416813b1561039e575f9160848392604051948593849263042964f560e11b84528a600485015289602485015288604485015260648401525af19081611cc4575b50611c825784611c38613815565b6308c379a014611c52575b63a14cffc560e01b8152600490fd5b611c5a613830565b80611c655750611c43565b604051630822993160e31b8152908190611aea90600483016138a4565b92612710927fac1d76749e5447b7b16f5ab61447e1bd502f3bb4807af3b28e620d1700a6ee456040611720946001989782519182526020820152a2929361170b565b611cd19196505f90612a7c565b5f945f611c2a565b611cf19060203d6020116114fc576114ef8183612a7c565b611bde565b6040513d5f823e3d90fd5b630bdc07d160e21b5f5260045ffd5b506020823d602011611d3c575b81611d2a60209383612a7c565b8101031261039e57611b629151611b58565b3d9150611d1d565b611d5c9060203d6020116114fc576114ef8183612a7c565b611b24565b611d829060603d606011611d89575b611d7a8183612a7c565b8101906137fa565b5050611a93565b503d611d70565b634e487b7160e01b5f52601160045260245ffd5b815160405163095ea7b360e01b81526001600160a01b038816600482015260248101919091529597959394919391929190602090829060449082905f905af18015611cf657611eed575b506001600160a01b0360145416935192519151905191610258420193844211611d90576040519562e8e33760e81b8752876004880152602487015260448601526064850152608484015260a48301523060c483015260e4820152606081610104815f885af19081611ece575b50611e6757611aa0613815565b5f9060206001600160a01b036014541660446040518095819363095ea7b360e01b83528960048401528160248401525af18015611cf6575f94602093604492611eb1575b50611af6565b611ec790853d87116114fc576114ef8183612a7c565b505f611eab565b611ee69060603d606011611d8957611d7a8183612a7c565b5050611e5a565b611f059060203d6020116114fc576114ef8183612a7c565b611dee565b9095506020813d602011611f36575b81611f2660209383612a7c565b8101031261039e5751945f611a29565b3d9150611f19565b611f569060203d6020116114fc576114ef8183612a7c565b6119f4565b611f6d92611f6891612aca565b612b07565b809111611f7d575b808080611919565b600b54909450611f8e915084612aca565b60405163313ce56760e01b815290602082600481865afa908115611cf65761166861166e92611fc3945f91611fca5750612af6565b925f611f75565b611fec915060203d602011611ff2575b611fe48183612a7c565b810190612add565b5f611662565b503d611fda565b91611913565b6001600160a01b0390611908565b6001600160701b03925082915061203b9060603d606011612045575b6120338183612a7c565b810190612b46565b50929091506118ba565b503d612029565b63284dbaed60e01b5f5260045ffd5b6040516364e329cb60e11b81526001600160a01b0387811660048301528316602482015291989597959694939250602090829060449082905f905af15f91816120dc575b506120c4576001600160a01b038888634fe1e92b60e11b5f526004521660245260445ffd5b6001600160a01b03919293959750959395905f611882565b6120ff91925060203d602011612106575b6120f78183612a7c565b810190612a9e565b905f61209f565b503d6120ed565b61212791935060203d602011612106576120f78183612a7c565b915f611871565b611810565b90505f611705565b61214783601c54612b25565b601c556116a6565b601e54919250818111156121865750905b81601c54818110612171575061168e565b6310b540af60e21b5f5260045260245260445ffd5b905090612160565b50801515611689565b632bdc91ad60e01b5f5260045ffd5b63dfc7e2e560e01b5f5260045ffd5b3461039e575f36600319011261039e5760206040517f00000000000000000000000000000000000000000000000000000000000000008152f35b3461039e57602036600319011261039e576001600160a01b03612210612783565b165f526018602052602060405f2054604051908152f35b3461039e575f36600319011261039e5760206040516001600160a01b037f0000000000000000000000000000000000000000000000000000000000000000168152f35b3461039e575f36600319011261039e57612282612f92565b60035460ff8116156122bc5760ff1916600355337f5db9ee0a495bf2e6ff9c91a7834c1ba4fdd244a5e8aa4e537bd38aeae4b073aa5f80a2005b636cd6020160e01b5f5260045ffd5b3461039e575f36600319011261039e576122e3612f74565b6122eb612f92565b60ff6017541660048110156103aa57600381036103e757600454801561234b575f6004556123198133612fb9565b6040519081527f7084f5476618d8e60b11ef0d7d3f06914655adb8793e28ff7f018d4c76d505d560203392a260015f55005b6367e3990d60e01b5f5260045ffd5b3461039e57602036600319011261039e57600435601a5481101561039e576001600160a01b0361238b602092612799565b90549060031b1c16604051908152f35b3461039e575f36600319011261039e5760208054604051908152f35b3461039e575f36600319011261039e576020601d54604051908152f35b3461039e575f36600319011261039e576020601a54604051908152f35b3461039e575f36600319011261039e576020601f54604051908152f35b3461039e575f36600319011261039e576001600160a01b037f00000000000000000000000000000000000000000000000000000000000000001633036126765760ff600354166103f95760ff6017541660048110156103aa57806103e757600e544210156103cd576014546001600160a01b03168061267157507f00000000000000000000000000000000000000000000000000000000000000005b60405163e6a4390560e01b81526001600160a01b037f000000000000000000000000000000000000000000000000000000000000000081166004830181905290831660248301529190602081806044810103816001600160a01b037f0000000000000000000000000000000000000000000000000000000000000000165afa8015611cf6576001600160a01b03915f91612652575b5016612633576040516370a0823160e01b8152306004820152602081602481865afa908115611cf6575f91612601575b5080156102bc57612597612581612f46565b80601d5561258d612f55565b9081601e55612abd565b908181106125ec5780602091601c55600160ff19601754161760175560405181815242838201527f90890809c654f11d6e72a28fa60149770a0d11ec6c92319d6ceb2bb0a4ea1a1560403392a2604051908152f35b630d25268d60e01b5f5260045260245260445ffd5b90506020813d60201161262b575b8161261c60209383612a7c565b8101031261039e57518161256f565b3d915061260f565b6001600160a01b0391631c1a784960e21b5f526004521660245260445ffd5b61266b915060203d602011612106576120f78183612a7c565b8461253f565b6124aa565b631966391b60e11b5f5260045ffd5b3461039e575f36600319011261039e57600554608052600654600754600854600954600a54600b54600c54600d54600e54600f5491601054936011549560125497601354996014549b6015549d6016546001600160a01b03169f60805160a05260a06020015260a06040015260a06060015260a06080015260a080015260a060c0015260a060e0015260a0610100015260a0610120015260a0610140015260a0610160015260a0610180015260a06101a0015260a06101c001526001600160a01b03811660a06101e0015260a0610200019060a01c60ff169061276791612776565b6102c0526102e05261026060a0f35b9060038210156103aa5752565b600435906001600160a01b038216820361039e57565b601a548110156127b157601a5f5260205f2001905f90565b634e487b7160e01b5f52603260045260245ffd5b60043590811515820361039e57565b60243590811515820361039e57565b9181601f8401121561039e5782359167ffffffffffffffff831161039e576020808501948460051b01011161039e57565b3461039e575f36600319011261039e575f61024060405161283481612a5f565b8281528260208201528260408201528260608201528260808201528260a08201528260c08201528260e08201528261010082015282610120820152826101408201528261016082015282610180820152826101a0820152826101c0820152826101e0820152826102008201528261022082015201526040516128b581612a5f565b60055481526006546020820152600754604082015260085460608201526009546080820152600a5460a0820152600b5460c0820152600c5460e0820152600d54610100820152600e54610120820152600f546101408201526010546101608201526011546101808201526012546101a08201526013546101c082015260ff6014546001600160a01b0381166101e084015260a01c169060038210156103aa57610260916102008201526015546102208201526001600160a01b03601654166102408201526001600160a01b0361024060405192805184526020810151602085015260408101516040850152606081015160608501526080810151608085015260a081015160a085015260c081015160c085015260e081015160e08501526101008101516101008501526101208101516101208501526101408101516101408501526101608101516101608501526101808101516101808501526101a08101516101a08501526101c08101516101c0850152826101e0820151166101e0850152612a48610200820151610200860190612776565b610220810151610220850152015116610240820152f35b610260810190811067ffffffffffffffff82111761026957604052565b90601f8019910116810190811067ffffffffffffffff82111761026957604052565b9081602091031261039e57516001600160a01b038116810361039e5790565b91908201809211611d9057565b81810292918115918404141715611d9057565b9081602091031261039e575160ff8116810361039e5790565b60ff16604d8111611d9057600a0a90565b8115612b11570490565b634e487b7160e01b5f52601260045260245ffd5b91908203918211611d9057565b51906001600160701b038216820361039e57565b9081606091031261039e57612b5a81612b32565b916040612b6960208401612b32565b92015163ffffffff8116810361039e5790565b612710612b8e601f54600c5490612aca565b04612b9b600b5482612aca565b60405163313ce56760e01b81527f00000000000000000000000000000000000000000000000000000000000000006001600160a01b03169391602082600481885afa908115611cf65761166861166e92612bfb945f91611fca5750612af6565b601e549081811115612dfe5750925b601c54848110612df457506014546001600160a01b03168015918215612de957612c8260207f00000000000000000000000000000000000000000000000000000000000000005b60405163e6a4390560e01b81526001600160a01b038086166004830152909116602482015291829081906044820190565b03816001600160a01b037f0000000000000000000000000000000000000000000000000000000000000000165afa8015611cf6576001600160a01b03915f91612dca575b5016918215612dbf57606060049360405194858092630240bc6b60e21b82525afa928315611cf6575f905f94612d90575b506001600160701b038091169316935f14612d8257506001600160a01b037f00000000000000000000000000000000000000000000000000000000000000005b161115612d7c575b8015612d7457611f68612d529286612aca565b915b6125e483028381046125e41484151715611d905761271090041115929190565b505081612d54565b90612d3f565b6001600160a01b0390612d37565b6001600160701b039450849150612db59060603d606011612045576120338183612a7c565b5094909150612cf7565b505050506001929190565b612de3915060203d602011612106576120f78183612a7c565b5f612cc6565b612c82602083612c51565b939250505f929190565b905092612c0a565b9291909267ffffffffffffffff8411610269578360051b906020604051612e2f82850182612a7c565b809681520191810192831161039e57905b828210612e4c57505050565b8135815260209182019101612e40565b601b5490815f5b838110612e7257505050505f90565b818110156127b157601b5f527f3ad8aa4f87544323a9d1e5dd902f40c356527a7955687113db5f9a85ad579dc18101548314612eb057600101612e63565b50505050600190565b6001600160a01b03165f52601860205260405f20548015612f4157600a54612ee091612aca565b60405163313ce56760e01b8152906020826004817f00000000000000000000000000000000000000000000000000000000000000006001600160a01b03165afa908115611cf65761166861166e92612f3e945f91611fca5750612af6565b90565b505f90565b612ee0600654600a5490612aca565b612ee0612710612f6a600654600c5490612aca565b04600b5490612aca565b60025f5414612f835760025f55565b633ee5aeb560e01b5f5260045ffd5b6001600160a01b03600154163303612fa657565b63118cdaa760e01b5f523360045260245ffd5b8115613074576014546001600160a01b0316806130675750814710613050575f8080936001600160a01b038294165af13d15613048573d9067ffffffffffffffff82116102695760405191613018601f8201601f191660200184612a7c565b82523d5f602084013e5b1561302a5750565b80511561303957805190602001fd5b63d6bda27560e01b5f5260045ffd5b606090613022565b504763cf47918160e01b5f5260045260245260445ffd5b9061307292916137be565b565b5050565b6001600160a01b036014541680156130e85760206004916040519283809263313ce56760e01b82525afa5f91816130c7575b506130be57631da50fef60e01b5f5260045ffd5b612f3e90612af6565b6130e191925060203d602011611ff257611fe48183612a7c565b905f6130aa565b50670de0b6b3a764000090565b9081602091031261039e5751801515810361039e5790565b604051906080820182811067ffffffffffffffff821117610269576040525f6060838281528260208201528260408201520152565b61314a61310d565b601f5461315b5f91600a5490612aca565b60405163313ce56760e01b81527f00000000000000000000000000000000000000000000000000000000000000006001600160a01b031691602082600481865afa908115611cf65761166861166e926131ba945f91611fca5750612af6565b808452601d5480911161345f575b6131d3845182612b25565b6020850190815260606132246131ec601e548095612abd565b92601c54948486956131fe8388612abd565b1115613456576132116132169287612abd565b612b25565b905b8160408a015251612abd565b9501948086521161344e575b835180156134475761324191612b25565b601c55601354806132a0575061326691506001600160a01b03600154168351916137be565b517fbf95d20e2a316bd9c3e2efd35653a948438013277330af4b3fee49455a0e637260206001600160a01b036001541692604051908152a2565b60010361330957916132ff6020927fa23a441fdb6a3236d37796809dafdaba773a27be440ae9746e9b9f8cf2c2106e9483516040519263a9059cbb60e01b878501525061dead6024840152604483015260448252610d0c606483612a7c565b51604051908152a1565b825160405163095ea7b360e01b81526001600160a01b037f0000000000000000000000000000000000000000000000000000000000000000166004820181905260248201929092529092506020816044815f865af18015611cf65761342a575b506001600160a01b036001541683519260125493813b1561039e57604051631bc6452160e31b81523060048201526001600160a01b039384166024820152939092166044840152606483019190915242608483015260a4820192909252905f90829060c490829084905af18015611cf65761341a575b50517fffbab51a97c2620266485de4ca0e9acd7a3e7412812e256ff5d6831fa5dacaa960206001600160a01b036001541692604051908152a2565b5f61342491612a7c565b5f6133df565b6134429060203d6020116114fc576114ef8183612a7c565b613369565b5050505050565b808452613230565b50505f90613218565b8084526131c8565b919260ff6017541660048110156103aa57600181036103e75750600e54421080156137b3575b6103cd576001600160a01b03831680156103be576014549260ff8460a01c1660038110156103aa576001810361370957506015549460405160208101916bffffffffffffffffffffffff199060601b168252601481526134ee603482612a7c565b519020935f945b87518610156135375760208660051b89010151908181105f14613526575f52602052600160405f205b9501946134f5565b905f52602052600160405f2061351e565b919450929550939093036102f5576001600160a01b03905b16159081156136f05734156102bc575b81156136e95734915b601f54926135768185612abd565b600654106102a65760085481106102975761359d90855f52601860205260405f2054612abd565b6009541061028857156136de57506135b6348092612abd565b601f556135c581600254612abd565b600255815f52601960205260ff60405f2054161561365e575b60407f08ce00466abd322339ad31e43307a70a872f8c32a13d8b24ed85948ba75ed1b391835f526018602052815f20613618828254612abd565b9055837f2499a5330ab0979cc612135e7883ebc3cd5c9f7a8508f042540c34723348f63260208451848152a26001600160a01b03601454161582519182526020820152a2565b815f52601960205260405f20600160ff19825416179055601a5468010000000000000000811015610269577f08ce00466abd322339ad31e43307a70a872f8c32a13d8b24ed85948ba75ed1b3916136bd82600160409401601a55612799565b81549060031b906001600160a01b0387831b921b19161790559150506135de565b6135b6908092612abd565b8091613568565b346102e7578061355f57631f2a200560e01b5f5260045ffd5b9093929550600291945014613727575b6001600160a01b039061354f565b602460206001600160a01b0360165416604051928380926370a0823160e01b82528860048301525afa5f918161377f575b5061376c5763457b8b9360e11b5f5260045ffd5b6137195763e9e7bfc360e01b5f5260045ffd5b9091506020813d6020116137ab575b8161379b60209383612a7c565b8101031261039e5751905f613758565b3d915061378e565b50600f54421161348d565b60405163a9059cbb60e01b60208201526001600160a01b0392909216602483015260448083019390935291815261307291610d0c606483612a7c565b9081606091031261039e578051916040602083015192015190565b5f9060033d1161382157565b905060045f803e5f5160e01c90565b5f60443d10612f3e576040513d600319016004823e8051913d602484011167ffffffffffffffff84111761389e578282019283519167ffffffffffffffff8311613896573d840160031901858401602001116138965750612f3e92910160200190612a7c565b949350505050565b92915050565b602060409281835280519182918282860152018484015e5f828201840152601f01601f1916010190565b905f602091828151910182855af115611cf6575f513d61391957506001600160a01b0381163b155b6138fd5750565b6001600160a01b0390635274afe760e01b5f521660045260245ffd5b600114156138f656fea2646970667358221220dc3cdfff5c7cfb3854610d589d01f056bce5846f1a20f4d7ae1cf3cfd02a721864736f6c634300081c0033",
    "linkReferences": {}
  },
  "methodIdentifiers": {
    "BASIS_POINTS()": "e1f1c4a7",
    "_presaleFactory()": "95691a6d",
    "calculateTotalTokensNeeded()": "c1d41e95",
    "cancel()": "ea8a1af0",
    "claim()": "4e71d92d",
    "claimDeadline()": "3ba86c44",
    "contribute(bytes32[])": "f7bdc4f7",
    "contributeStablecoin(uint256,bytes32[])": "af1ad48b",
    "contributions(address)": "42e94c90",
    "contributors(uint256)": "3cb5d100",
    "deposit()": "d0e30db0",
    "extendClaimDeadline(uint256)": "7abbc150",
    "factory()": "c45a0155",
    "finalize()": "4bb278f3",
    "getContribution(address)": "21eff7fc",
    "getContributorCount()": "253da8bd",
    "getContributors()": "af157c19",
    "getOptions()": "cc2ee196",
    "getPresaleOptions()": "d02c880a",
    "getTotalContributed()": "18e4274d",
    "houseAddress()": "d7cee31e",
    "housePercentage()": "49d2e277",
    "initializeDeposit()": "13db8238",
    "isAllowedLiquidityBps(uint256)": "ea4a9c85",
    "liquidityLocker()": "9759164a",
    "options()": "1069143a",
    "owner()": "8da5cb5b",
    "ownerBalance()": "bedcf003",
    "pause()": "8456cb59",
    "paused()": "5c975abb",
    "refund()": "590e1ae3",
    "renounceOwnership()": "715018a6",
    "rescueTokens(address,address,uint256)": "cea9d26f",
    "setMerkleRoot(bytes32)": "7cb64759",
    "simulateLiquidityAddition()": "a0e7f79a",
    "state()": "c19d93fb",
    "toggleWhitelist(bool)": "80e3f1ad",
    "token()": "fc0c546a",
    "tokenBalance()": "9e1a4d19",
    "tokensClaimable()": "31f684c0",
    "tokensLiquidity()": "b57b92a5",
    "totalRaised()": "c5c4744c",
    "totalRefundable()": "91a9207b",
    "transferOwnership(address)": "f2fde38b",
    "uniswapV2Router02()": "a7c6402c",
    "unpause()": "3f4ba83a",
    "updateWhitelist(address[],bool)": "aff177ca",
    "userTokens(address)": "ed498fa8",
    "vestingContract()": "5e6f6045",
    "weth()": "3fc8cef3",
    "whitelistEnabled()": "51fb012d",
    "withdraw()": "3ccfd60b"
  },
  "id": 57
}