{"abi":[{"type":"constructor","inputs":[{"name":"_weth","type":"address","internalType":"address"},{"name":"_token","type":"address","internalType":"address"},{"name":"_uniswapV2Router02","type":"address","internalType":"address"},{"name":"_options","type":"tuple","internalType":"struct Presale.PresaleOptions","components":[{"name":"tokenDeposit","type":"uint256","internalType":"uint256"},{"name":"hardCap","type":"uint256","internalType":"uint256"},{"name":"softCap","type":"uint256","internalType":"uint256"},{"name":"min","type":"uint256","internalType":"uint256"},{"name":"max","type":"uint256","internalType":"uint256"},{"name":"presaleRate","type":"uint256","internalType":"uint256"},{"name":"listingRate","type":"uint256","internalType":"uint256"},{"name":"liquidityBps","type":"uint256","internalType":"uint256"},{"name":"slippageBps","type":"uint256","internalType":"uint256"},{"name":"start","type":"uint256","internalType":"uint256"},{"name":"end","type":"uint256","internalType":"uint256"},{"name":"lockupDuration","type":"uint256","internalType":"uint256"},{"name":"vestingPercentage","type":"uint256","internalType":"uint256"},{"name":"vestingDuration","type":"uint256","internalType":"uint256"},{"name":"leftoverTokenOption","type":"uint256","internalType":"uint256"},{"name":"currency","type":"address","internalType":"address"},{"name":"whitelistType","type":"uint8","internalType":"enum Presale.WhitelistType"},{"name":"merkleRoot","type":"bytes32","internalType":"bytes32"},{"name":"nftContractAddress","type":"address","internalType":"address"}]},{"name":"_creator","type":"address","internalType":"address"},{"name":"_liquidityLocker","type":"address","internalType":"address"},{"name":"_vestingContract","type":"address","internalType":"address"},{"name":"_housePercentage","type":"uint256","internalType":"uint256"},{"name":"_houseAddress","type":"address","internalType":"address"},{"name":"_presaleFactoryAddress","type":"address","internalType":"address"}],"stateMutability":"nonpayable"},{"type":"receive","stateMutability":"payable"},{"type":"function","name":"BASIS_POINTS","inputs":[],"outputs":[{"name":"","type":"uint256","internalType":"uint256"}],"stateMutability":"view"},{"type":"function","name":"_presaleFactory","inputs":[],"outputs":[{"name":"","type":"address","internalType":"address"}],"stateMutability":"view"},{"type":"function","name":"calculateTotalTokensNeeded","inputs":[],"outputs":[{"name":"","type":"uint256","internalType":"uint256"}],"stateMutability":"view"},{"type":"function","name":"cancel","inputs":[],"outputs":[{"name":"","type":"bool","internalType":"bool"}],"stateMutability":"nonpayable"},{"type":"function","name":"claim","inputs":[],"outputs":[{"name":"","type":"uint256","internalType":"uint256"}],"stateMutability":"nonpayable"},{"type":"function","name":"claimDeadline","inputs":[],"outputs":[{"name":"","type":"uint256","internalType":"uint256"}],"stateMutability":"view"},{"type":"function","name":"contribute","inputs":[{"name":"_merkleProof","type":"bytes32[]","internalType":"bytes32[]"}],"outputs":[],"stateMutability":"payable"},{"type":"function","name":"contributeStablecoin","inputs":[{"name":"_amount","type":"uint256","internalType":"uint256"},{"name":"_merkleProof","type":"bytes32[]","internalType":"bytes32[]"}],"outputs":[],"stateMutability":"nonpayable"},{"type":"function","name":"contributions","inputs":[{"name":"","type":"address","internalType":"address"}],"outputs":[{"name":"","type":"uint256","internalType":"uint256"}],"stateMutability":"view"},{"type":"function","name":"contributors","inputs":[{"name":"","type":"uint256","internalType":"uint256"}],"outputs":[{"name":"","type":"address","internalType":"address"}],"stateMutability":"view"},{"type":"function","name":"deposit","inputs":[],"outputs":[{"name":"","type":"uint256","internalType":"uint256"}],"stateMutability":"nonpayable"},{"type":"function","name":"extendClaimDeadline","inputs":[{"name":"_newDeadline","type":"uint256","internalType":"uint256"}],"outputs":[],"stateMutability":"nonpayable"},{"type":"function","name":"factory","inputs":[],"outputs":[{"name":"","type":"address","internalType":"address"}],"stateMutability":"view"},{"type":"function","name":"finalize","inputs":[],"outputs":[{"name":"","type":"bool","internalType":"bool"}],"stateMutability":"nonpayable"},{"type":"function","name":"getContribution","inputs":[{"name":"_contributor","type":"address","internalType":"address"}],"outputs":[{"name":"","type":"uint256","internalType":"uint256"}],"stateMutability":"view"},{"type":"function","name":"getContributorCount","inputs":[],"outputs":[{"name":"","type":"uint256","internalType":"uint256"}],"stateMutability":"view"},{"type":"function","name":"getContributors","inputs":[],"outputs":[{"name":"","type":"address[]","internalType":"address[]"}],"stateMutability":"view"},{"type":"function","name":"getOptions","inputs":[],"outputs":[{"name":"","type":"tuple","internalType":"struct Presale.PresaleOptions","components":[{"name":"tokenDeposit","type":"uint256","internalType":"uint256"},{"name":"hardCap","type":"uint256","internalType":"uint256"},{"name":"softCap","type":"uint256","internalType":"uint256"},{"name":"min","type":"uint256","internalType":"uint256"},{"name":"max","type":"uint256","internalType":"uint256"},{"name":"presaleRate","type":"uint256","internalType":"uint256"},{"name":"listingRate","type":"uint256","internalType":"uint256"},{"name":"liquidityBps","type":"uint256","internalType":"uint256"},{"name":"slippageBps","type":"uint256","internalType":"uint256"},{"name":"start","type":"uint256","internalType":"uint256"},{"name":"end","type":"uint256","internalType":"uint256"},{"name":"lockupDuration","type":"uint256","internalType":"uint256"},{"name":"vestingPercentage","type":"uint256","internalType":"uint256"},{"name":"vestingDuration","type":"uint256","internalType":"uint256"},{"name":"leftoverTokenOption","type":"uint256","internalType":"uint256"},{"name":"currency","type":"address","internalType":"address"},{"name":"whitelistType","type":"uint8","internalType":"enum Presale.WhitelistType"},{"name":"merkleRoot","type":"bytes32","internalType":"bytes32"},{"name":"nftContractAddress","type":"address","internalType":"address"}]}],"stateMutability":"view"},{"type":"function","name":"getPresaleOptions","inputs":[],"outputs":[{"name":"","type":"tuple","internalType":"struct Presale.PresaleOptions","components":[{"name":"tokenDeposit","type":"uint256","internalType":"uint256"},{"name":"hardCap","type":"uint256","internalType":"uint256"},{"name":"softCap","type":"uint256","internalType":"uint256"},{"name":"min","type":"uint256","internalType":"uint256"},{"name":"max","type":"uint256","internalType":"uint256"},{"name":"presaleRate","type":"uint256","internalType":"uint256"},{"name":"listingRate","type":"uint256","internalType":"uint256"},{"name":"liquidityBps","type":"uint256","internalType":"uint256"},{"name":"slippageBps","type":"uint256","internalType":"uint256"},{"name":"start","type":"uint256","internalType":"uint256"},{"name":"end","type":"uint256","internalType":"uint256"},{"name":"lockupDuration","type":"uint256","internalType":"uint256"},{"name":"vestingPercentage","type":"uint256","internalType":"uint256"},{"name":"vestingDuration","type":"uint256","internalType":"uint256"},{"name":"leftoverTokenOption","type":"uint256","internalType":"uint256"},{"name":"currency","type":"address","internalType":"address"},{"name":"whitelistType","type":"uint8","internalType":"enum Presale.WhitelistType"},{"name":"merkleRoot","type":"bytes32","internalType":"bytes32"},{"name":"nftContractAddress","type":"address","internalType":"address"}]}],"stateMutability":"view"},{"type":"function","name":"getTotalContributed","inputs":[],"outputs":[{"name":"","type":"uint256","internalType":"uint256"}],"stateMutability":"view"},{"type":"function","name":"houseAddress","inputs":[],"outputs":[{"name":"","type":"address","internalType":"address"}],"stateMutability":"view"},{"type":"function","name":"housePercentage","inputs":[],"outputs":[{"name":"","type":"uint256","internalType":"uint256"}],"stateMutability":"view"},{"type":"function","name":"initializeDeposit","inputs":[],"outputs":[{"name":"","type":"uint256","internalType":"uint256"}],"stateMutability":"nonpayable"},{"type":"function","name":"isAllowedLiquidityBps","inputs":[{"name":"_bps","type":"uint256","internalType":"uint256"}],"outputs":[{"name":"","type":"bool","internalType":"bool"}],"stateMutability":"view"},{"type":"function","name":"liquidityLocker","inputs":[],"outputs":[{"name":"","type":"address","internalType":"contract LiquidityLocker"}],"stateMutability":"view"},{"type":"function","name":"options","inputs":[],"outputs":[{"name":"tokenDeposit","type":"uint256","internalType":"uint256"},{"name":"hardCap","type":"uint256","internalType":"uint256"},{"name":"softCap","type":"uint256","internalType":"uint256"},{"name":"min","type":"uint256","internalType":"uint256"},{"name":"max","type":"uint256","internalType":"uint256"},{"name":"presaleRate","type":"uint256","internalType":"uint256"},{"name":"listingRate","type":"uint256","internalType":"uint256"},{"name":"liquidityBps","type":"uint256","internalType":"uint256"},{"name":"slippageBps","type":"uint256","internalType":"uint256"},{"name":"start","type":"uint256","internalType":"uint256"},{"name":"end","type":"uint256","internalType":"uint256"},{"name":"lockupDuration","type":"uint256","internalType":"uint256"},{"name":"vestingPercentage","type":"uint256","internalType":"uint256"},{"name":"vestingDuration","type":"uint256","internalType":"uint256"},{"name":"leftoverTokenOption","type":"uint256","internalType":"uint256"},{"name":"currency","type":"address","internalType":"address"},{"name":"whitelistType","type":"uint8","internalType":"enum Presale.WhitelistType"},{"name":"merkleRoot","type":"bytes32","internalType":"bytes32"},{"name":"nftContractAddress","type":"address","internalType":"address"}],"stateMutability":"view"},{"type":"function","name":"owner","inputs":[],"outputs":[{"name":"","type":"address","internalType":"address"}],"stateMutability":"view"},{"type":"function","name":"ownerBalance","inputs":[],"outputs":[{"name":"","type":"uint256","internalType":"uint256"}],"stateMutability":"view"},{"type":"function","name":"pause","inputs":[],"outputs":[],"stateMutability":"nonpayable"},{"type":"function","name":"paused","inputs":[],"outputs":[{"name":"","type":"bool","internalType":"bool"}],"stateMutability":"view"},{"type":"function","name":"refund","inputs":[],"outputs":[{"name":"","type":"uint256","internalType":"uint256"}],"stateMutability":"nonpayable"},{"type":"function","name":"renounceOwnership","inputs":[],"outputs":[],"stateMutability":"nonpayable"},{"type":"function","name":"rescueTokens","inputs":[{"name":"_erc20Token","type":"address","internalType":"address"},{"name":"_to","type":"address","internalType":"address"},{"name":"_amount","type":"uint256","internalType":"uint256"}],"outputs":[],"stateMutability":"nonpayable"},{"type":"function","name":"setMerkleRoot","inputs":[{"name":"_merkleRoot","type":"bytes32","internalType":"bytes32"}],"outputs":[],"stateMutability":"nonpayable"},{"type":"function","name":"simulateLiquidityAddition","inputs":[],"outputs":[{"name":"","type":"bool","internalType":"bool"},{"name":"","type":"uint256","internalType":"uint256"},{"name":"","type":"uint256","internalType":"uint256"}],"stateMutability":"view"},{"type":"function","name":"state","inputs":[],"outputs":[{"name":"","type":"uint8","internalType":"enum Presale.PresaleState"}],"stateMutability":"view"},{"type":"function","name":"toggleWhitelist","inputs":[{"name":"enabled","type":"bool","internalType":"bool"}],"outputs":[],"stateMutability":"nonpayable"},{"type":"function","name":"token","inputs":[],"outputs":[{"name":"","type":"address","internalType":"contract ERC20"}],"stateMutability":"view"},{"type":"function","name":"tokenBalance","inputs":[],"outputs":[{"name":"","type":"uint256","internalType":"uint256"}],"stateMutability":"view"},{"type":"function","name":"tokensClaimable","inputs":[],"outputs":[{"name":"","type":"uint256","internalType":"uint256"}],"stateMutability":"view"},{"type":"function","name":"tokensLiquidity","inputs":[],"outputs":[{"name":"","type":"uint256","internalType":"uint256"}],"stateMutability":"view"},{"type":"function","name":"totalRaised","inputs":[],"outputs":[{"name":"","type":"uint256","internalType":"uint256"}],"stateMutability":"view"},{"type":"function","name":"totalRefundable","inputs":[],"outputs":[{"name":"","type":"uint256","internalType":"uint256"}],"stateMutability":"view"},{"type":"function","name":"transferOwnership","inputs":[{"name":"newOwner","type":"address","internalType":"address"}],"outputs":[],"stateMutability":"nonpayable"},{"type":"function","name":"uniswapV2Router02","inputs":[],"outputs":[{"name":"","type":"address","internalType":"contract IUniswapV2Router02"}],"stateMutability":"view"},{"type":"function","name":"unpause","inputs":[],"outputs":[],"stateMutability":"nonpayable"},{"type":"function","name":"updateWhitelist","inputs":[{"name":"addresses","type":"address[]","internalType":"address[]"},{"name":"add","type":"bool","internalType":"bool"}],"outputs":[],"stateMutability":"nonpayable"},{"type":"function","name":"userTokens","inputs":[{"name":"_contributor","type":"address","internalType":"address"}],"outputs":[{"name":"","type":"uint256","internalType":"uint256"}],"stateMutability":"view"},{"type":"function","name":"vestingContract","inputs":[],"outputs":[{"name":"","type":"address","internalType":"contract Vesting"}],"stateMutability":"view"},{"type":"function","name":"weth","inputs":[],"outputs":[{"name":"","type":"address","internalType":"address"}],"stateMutability":"view"},{"type":"function","name":"whitelistEnabled","inputs":[],"outputs":[{"name":"","type":"bool","internalType":"bool"}],"stateMutability":"view"},{"type":"function","name":"withdraw","inputs":[],"outputs":[],"stateMutability":"nonpayable"},{"type":"event","name":"Cancel","inputs":[{"name":"owner","type":"address","indexed":true,"internalType":"address"},{"name":"timestamp","type":"uint256","indexed":false,"internalType":"uint256"}],"anonymous":false},{"type":"event","name":"ClaimDeadlineExtended","inputs":[{"name":"newDeadline","type":"uint256","indexed":false,"internalType":"uint256"}],"anonymous":false},{"type":"event","name":"Contribution","inputs":[{"name":"contributor","type":"address","indexed":true,"internalType":"address"},{"name":"amount","type":"uint256","indexed":false,"internalType":"uint256"},{"name":"isETH","type":"bool","indexed":false,"internalType":"bool"}],"anonymous":false},{"type":"event","name":"Deposit","inputs":[{"name":"sender","type":"address","indexed":true,"internalType":"address"},{"name":"amount","type":"uint256","indexed":false,"internalType":"uint256"},{"name":"timestamp","type":"uint256","indexed":false,"internalType":"uint256"}],"anonymous":false},{"type":"event","name":"Finalized","inputs":[{"name":"owner","type":"address","indexed":true,"internalType":"address"},{"name":"amountRaised","type":"uint256","indexed":false,"internalType":"uint256"},{"name":"timestamp","type":"uint256","indexed":false,"internalType":"uint256"}],"anonymous":false},{"type":"event","name":"HouseFundsDistributed","inputs":[{"name":"house","type":"address","indexed":true,"internalType":"address"},{"name":"amount","type":"uint256","indexed":false,"internalType":"uint256"}],"anonymous":false},{"type":"event","name":"LeftoverTokensBurned","inputs":[{"name":"amount","type":"uint256","indexed":false,"internalType":"uint256"}],"anonymous":false},{"type":"event","name":"LeftoverTokensReturned","inputs":[{"name":"amount","type":"uint256","indexed":false,"internalType":"uint256"},{"name":"beneficiary","type":"address","indexed":true,"internalType":"address"}],"anonymous":false},{"type":"event","name":"LeftoverTokensVested","inputs":[{"name":"amount","type":"uint256","indexed":false,"internalType":"uint256"},{"name":"beneficiary","type":"address","indexed":true,"internalType":"address"}],"anonymous":false},{"type":"event","name":"LiquidityAdded","inputs":[{"name":"pair","type":"address","indexed":true,"internalType":"address"},{"name":"lpAmount","type":"uint256","indexed":false,"internalType":"uint256"},{"name":"unlockTime","type":"uint256","indexed":false,"internalType":"uint256"}],"anonymous":false},{"type":"event","name":"MerkleRootUpdated","inputs":[{"name":"_merkleRoot","type":"bytes32","indexed":true,"internalType":"bytes32"}],"anonymous":false},{"type":"event","name":"OwnershipTransferred","inputs":[{"name":"previousOwner","type":"address","indexed":true,"internalType":"address"},{"name":"newOwner","type":"address","indexed":true,"internalType":"address"}],"anonymous":false},{"type":"event","name":"Paused","inputs":[{"name":"account","type":"address","indexed":true,"internalType":"address"}],"anonymous":false},{"type":"event","name":"PresaleCreated","inputs":[{"name":"creator","type":"address","indexed":true,"internalType":"address"},{"name":"presale","type":"address","indexed":true,"internalType":"address"},{"name":"token","type":"address","indexed":true,"internalType":"address"},{"name":"start","type":"uint256","indexed":false,"internalType":"uint256"},{"name":"end","type":"uint256","indexed":false,"internalType":"uint256"}],"anonymous":false},{"type":"event","name":"Purchase","inputs":[{"name":"buyer","type":"address","indexed":true,"internalType":"address"},{"name":"amount","type":"uint256","indexed":false,"internalType":"uint256"}],"anonymous":false},{"type":"event","name":"Refund","inputs":[{"name":"contributor","type":"address","indexed":true,"internalType":"address"},{"name":"amount","type":"uint256","indexed":false,"internalType":"uint256"},{"name":"timestamp","type":"uint256","indexed":false,"internalType":"uint256"}],"anonymous":false},{"type":"event","name":"TokenClaim","inputs":[{"name":"claimer","type":"address","indexed":true,"internalType":"address"},{"name":"amount","type":"uint256","indexed":false,"internalType":"uint256"},{"name":"timestamp","type":"uint256","indexed":false,"internalType":"uint256"}],"anonymous":false},{"type":"event","name":"TokensRescued","inputs":[{"name":"token","type":"address","indexed":true,"internalType":"address"},{"name":"to","type":"address","indexed":true,"internalType":"address"},{"name":"amount","type":"uint256","indexed":false,"internalType":"uint256"}],"anonymous":false},{"type":"event","name":"Unpaused","inputs":[{"name":"account","type":"address","indexed":true,"internalType":"address"}],"anonymous":false},{"type":"event","name":"WhitelistToggled","inputs":[{"name":"enabled","type":"bool","indexed":false,"internalType":"bool"}],"anonymous":false},{"type":"event","name":"WhitelistUpdated","inputs":[{"name":"contributor","type":"address","indexed":true,"internalType":"address"},{"name":"added","type":"bool","indexed":false,"internalType":"bool"}],"anonymous":false},{"type":"event","name":"Withdrawn","inputs":[{"name":"owner","type":"address","indexed":true,"internalType":"address"},{"name":"amount","type":"uint256","indexed":false,"internalType":"uint256"}],"anonymous":false},{"type":"error","name":"AlreadyPaused","inputs":[]},{"type":"error","name":"BatchTooLarge","inputs":[]},{"type":"error","name":"BelowMinimumContribution","inputs":[]},{"type":"error","name":"CannotRescueBeforeFinalization","inputs":[]},{"type":"error","name":"CannotRescueBeforeFinalizationOrCancellation","inputs":[]},{"type":"error","name":"CannotRescuePresaleTokens","inputs":[]},{"type":"error","name":"ClaimPeriodExpired","inputs":[]},{"type":"error","name":"ContractPaused","inputs":[]},{"type":"error","name":"DeprecatedFunction","inputs":[]},{"type":"error","name":"ETHNotAccepted","inputs":[]},{"type":"error","name":"ExceedsMaximumContribution","inputs":[]},{"type":"error","name":"FailedCall","inputs":[]},{"type":"error","name":"HardCapExceed","inputs":[]},{"type":"error","name":"HardCapExceeded","inputs":[]},{"type":"error","name":"InsufficientBalance","inputs":[{"name":"balance","type":"uint256","internalType":"uint256"},{"name":"needed","type":"uint256","internalType":"uint256"}]},{"type":"error","name":"InsufficientContractBalance","inputs":[]},{"type":"error","name":"InsufficientTokenBalance","inputs":[]},{"type":"error","name":"InsufficientTokenDeposit","inputs":[{"name":"amount","type":"uint256","internalType":"uint256"},{"name":"totalTokensNeeded","type":"uint256","internalType":"uint256"}]},{"type":"error","name":"InsufficientTokensForLiquidity","inputs":[{"name":"tokenBalance","type":"uint256","internalType":"uint256"},{"name":"actualTokensForLiquidity","type":"uint256","internalType":"uint256"}]},{"type":"error","name":"InvalidAddress","inputs":[]},{"type":"error","name":"InvalidCapSettings","inputs":[]},{"type":"error","name":"InvalidCapValue","inputs":[]},{"type":"error","name":"InvalidContributionLimits","inputs":[]},{"type":"error","name":"InvalidContributorAddress","inputs":[]},{"type":"error","name":"InvalidCurrencyDecimals","inputs":[]},{"type":"error","name":"InvalidDeadline","inputs":[]},{"type":"error","name":"InvalidHouseAddress","inputs":[]},{"type":"error","name":"InvalidHouseConfiguration","inputs":[]},{"type":"error","name":"InvalidHousePercentage","inputs":[]},{"type":"error","name":"InvalidInitialization","inputs":[]},{"type":"error","name":"InvalidInitializationParameters","inputs":[]},{"type":"error","name":"InvalidLeftoverTokenOption","inputs":[]},{"type":"error","name":"InvalidLimitValue","inputs":[]},{"type":"error","name":"InvalidLiquidityAmounts","inputs":[]},{"type":"error","name":"InvalidLiquidityBps","inputs":[]},{"type":"error","name":"InvalidLiquidityValue","inputs":[]},{"type":"error","name":"InvalidLockupDuration","inputs":[]},{"type":"error","name":"InvalidMerkleRoot","inputs":[]},{"type":"error","name":"InvalidNftContractAddress","inputs":[]},{"type":"error","name":"InvalidRates","inputs":[]},{"type":"error","name":"InvalidRouter","inputs":[]},{"type":"error","name":"InvalidSettings","inputs":[]},{"type":"error","name":"InvalidSlippage","inputs":[]},{"type":"error","name":"InvalidState","inputs":[{"name":"currentState","type":"uint8","internalType":"uint8"}]},{"type":"error","name":"InvalidTimestampValue","inputs":[]},{"type":"error","name":"InvalidTimestamps","inputs":[]},{"type":"error","name":"InvalidVestingDuration","inputs":[]},{"type":"error","name":"InvalidVestingPercentage","inputs":[]},{"type":"error","name":"LPLockFailed","inputs":[]},{"type":"error","name":"LPLockFailedReason","inputs":[{"name":"reason","type":"string","internalType":"string"}]},{"type":"error","name":"LiquificationFailed","inputs":[]},{"type":"error","name":"LiquificationFailedReason","inputs":[{"name":"reason","type":"string","internalType":"string"}]},{"type":"error","name":"LiquificationFailedReasonBytes","inputs":[{"name":"reason","type":"bytes","internalType":"bytes"}]},{"type":"error","name":"LiquificationYieldedZeroLP","inputs":[]},{"type":"error","name":"NftCheckFailed","inputs":[]},{"type":"error","name":"NoFundsToRefund","inputs":[]},{"type":"error","name":"NoFundsToWithdraw","inputs":[]},{"type":"error","name":"NoTokensToClaim","inputs":[]},{"type":"error","name":"NotActive","inputs":[]},{"type":"error","name":"NotClaimable","inputs":[]},{"type":"error","name":"NotFactory","inputs":[]},{"type":"error","name":"NotInPurchasePeriod","inputs":[]},{"type":"error","name":"NotNftHolder","inputs":[]},{"type":"error","name":"NotPaused","inputs":[]},{"type":"error","name":"NotRefundable","inputs":[]},{"type":"error","name":"NotWhitelisted","inputs":[]},{"type":"error","name":"OwnableInvalidOwner","inputs":[{"name":"owner","type":"address","internalType":"address"}]},{"type":"error","name":"OwnableUnauthorizedAccount","inputs":[{"name":"account","type":"address","internalType":"address"}]},{"type":"error","name":"PairAddressZero","inputs":[]},{"type":"error","name":"PairAlreadyExists","inputs":[{"name":"token","type":"address","internalType":"address"},{"name":"currency","type":"address","internalType":"address"}]},{"type":"error","name":"PairCreationFailed","inputs":[{"name":"token","type":"address","internalType":"address"},{"name":"pairCurrency","type":"address","internalType":"address"}]},{"type":"error","name":"PresaleNotEnded","inputs":[]},{"type":"error","name":"PurchaseBelowMinimum","inputs":[]},{"type":"error","name":"PurchaseLimitExceed","inputs":[]},{"type":"error","name":"ReentrancyGuardReentrantCall","inputs":[]},{"type":"error","name":"SafeERC20FailedOperation","inputs":[{"name":"token","type":"address","internalType":"address"}]},{"type":"error","name":"SoftCapNotReached","inputs":[]},{"type":"error","name":"SoftCapTooLow","inputs":[]},{"type":"error","name":"StablecoinNotAccepted","inputs":[]},{"type":"error","name":"Unauthorized","inputs":[]},{"type":"error","name":"ZeroAmount","inputs":[]},{"type":"error","name":"ZeroDecimals","inputs":[]},{"type":"error","name":"ZeroLiquidityAmounts","inputs":[]},{"type":"error","name":"ZeroTokensForContribution","inputs":[]}],"bytecode":{"object":"0x6101a06040523461079e57614339803803809161001e826101a061096e565b6101a039610380811261079e576100366101a0610991565b906100426101c0610991565b6102606100506101e0610991565b92605f19011261079e576040519261026084016001600160401b0381118582101761094757604090815261020051855261022051602086015261024051908501526102605160608501526102805160808501526102a05160a08501526102c05160c08501526102e05160e085015261030051610100850152610320516101208501526103405161014085015261036051610160850152610380516101808501526103a0516101a08501526103c0516101c085015261010f6103e0610991565b6101e085015261040051600381101561079e576102008501526104205161022085015261013d610440610991565b61024085015261014e610460610991565b9261015a610480610991565b6101656104a0610991565b6104c051916101756104e0610991565b93610181610500610991565b60015f55956001600160a01b0389161561095b57600180546001600160a01b038b81166001600160a01b031983168117909355167f8be0079c531659141344cd1fd0a4f28419497f9722a3daafe3b4186f6b6457e05f80a3601b5468010000000000000000811015610947578060016101ff9201601b55601b6109a5565b81549060031b90611388821b915f19901b1916179055601b54680100000000000000008110156109475780600161023b9201601b55601b6109a5565b81549060031b90611770821b915f19901b1916179055601b5468010000000000000000811015610947578060016102779201601b55601b6109a5565b81549060031b90611b58821b915f19901b1916179055601b5468010000000000000000811015610947578060016102b39201601b55601b6109a5565b81549060031b90611f40821b915f19901b1916179055601b5468010000000000000000811015610947578060016102ef9201601b55601b6109a5565b81549060031b90612328821b915f19901b1916179055601b54680100000000000000008110156109475780600161032b9201601b55601b6109a5565b81545f1960039290921b91821b191661271090911b1790556001600160a01b038116158015610936575b8015610925575b610905576001600160a01b038316158015610914575b6109055760026101c08b0151116108f6576101f485116108de576001600160a01b03861615806108ed575b6108de5760208a015180159081156108d1575b81156108c3575b506108b45760808a015180159081156108a7575b8115610898575b811561088a575b5061087b5760a08a0151801590811561086e575b811561085f575b50610850576101208a0151428110908115610840575b50610831576101808a01516127108111908115610814575b50610805576102008a0151600381101561075857600114806107f8575b6107e9576102008a0151600381101561075857600214806107d3575b6107c45761046c60e08b01516109ce565b156107b557610180526001600160a01b03878116610120521661014081905260405163c45a015560e01b815290602090829060049082905afa9081156107aa575f9161076c575b506101609081526001600160a01b03918216608090815292821660a090815260c094855260e0958652895160055560208a015160065560408a015160075560608a01516008559289015160095591880151600a5591870151600b5591860151600c55610100860151600d55610120860151600e55610140860151600f55908501516010556101808501516011556101a08501516012556101c08501516013556101e0850151601480546001600160a01b031916919092161790556102008401516003811015610758576014805460ff60a01b191660a09290921b60ff60a01b16919091179055610220840151601555610240840151601680546001600160a01b0319166001600160a01b0392909216919091179055610100526017805460ff1916905561020083015160038110156107585761ff0060035491151560081b169061ff00191617600355610140610120840151930151604051938452602084015260018060a01b0316917fdf058c371fcd1a975a9f8b29fb3823e0f4fcc990e97f681cca2bfe085eae91d96040309360018060a01b031692a460405161390d9081610a2c8239608051818181610ec30152611b88015260a051818181611109015281816113c201526132d7015260c05181818161168e0152612181015260e0518181816109750152611777015261010051818181610f0701526123dd01526101205181818161066e0152818161086901528181610a9b015281816113f6015281816114ff015281816116050152818161247601528181612b5f01528181612eab015261311f015261014051818181610e310152611993015261016051818181610b620152818161182b015281816124bc0152612c430152610180518181816117e1015281816118d9015281816121fb0152818161243f01528181612be60152612ccc0152f35b634e487b7160e01b5f52602160045260245ffd5b90506020813d6020116107a2575b816107876020938361096e565b8101031261079e5761079890610991565b5f6104b3565b5f80fd5b3d915061077a565b6040513d5f823e3d90fd5b6304b0a71d60e31b5f5260045ffd5b633ab4448b60e01b5f5260045ffd5b506102408a01516001600160a01b03161561045b565b639dd854d360e01b5f5260045ffd5b506102208a01511561043f565b6329a8bc8760e11b5f5260045ffd5b9050151580610824575b5f610422565b506101a08a01511561081e565b63d22806e360e01b5f5260045ffd5b90506101408b015111155f61040a565b63d1107a7960e01b5f5260045ffd5b905060c08b015110155f6103f4565b60c08c01511591506103ed565b63dcac5ed360e01b5f5260045ffd5b905060208b0151105f6103d9565b80915060608c015111906103d2565b60608c01511591506103cb565b63269ae9a360e01b5f5260045ffd5b905060408b0151115f6103b7565b60408c01511591506103b0565b6362c9b89160e11b5f5260045ffd5b5084151561039d565b635ff75f6f60e11b5f5260045ffd5b63f92ee8a960e01b5f5260045ffd5b506001600160a01b03841615610372565b506001600160a01b0382161561035c565b506001600160a01b03881615610355565b634e487b7160e01b5f52604160045260245ffd5b631e4fbdf760e01b5f525f60045260245ffd5b601f909101601f19168101906001600160401b0382119082101761094757604052565b51906001600160a01b038216820361079e57565b80548210156109ba575f5260205f2001905f90565b634e487b7160e01b5f52603260045260245ffd5b601b5490815f5b8381106109e457505050505f90565b818110156109ba57601b5f527f3ad8aa4f87544323a9d1e5dd902f40c356527a7955687113db5f9a85ad579dc18101548314610a22576001016109d5565b5050505060019056fe60a06040526004361015610408575b3615610018575f80fd5b60ff600354166103f95761002a612f50565b60ff6017541660048110156103aa57600181036103e757600e54421080156103dc575b6103cd5733156103be5760145460ff8160a01c1660038110156103aa5760018103610304575060155460405160208101906bffffffffffffffffffffffff193360601b168252601481526100a2603482612a31565b5190205f905b6060518210156100e95760808260051b0151908181105f146100d8575f52602052600160405f205b9101906100a8565b905f52602052600160405f206100d0565b9050036102f5576001600160a01b03905b161580156102cb5734156102bc575b80156102b55734905b601f54916101208184612a72565b600654106102a65760085481106102975761014790335f52601860205260405f2054612a72565b60095410610288571561027d5761015f348092612a72565b601f5561016e81600254612a72565b600255335f52601960205260ff60405f20541615610210575b335f52601860205260405f2061019e828254612a72565b90556040518181527f2499a5330ab0979cc612135e7883ebc3cd5c9f7a8508f042540c34723348f63260203392a26001600160a01b03601454161560405191825260208201527f08ce00466abd322339ad31e43307a70a872f8c32a13d8b24ed85948ba75ed1b360403392a260015f55005b335f52601960205260405f20600160ff19825416179055601a54680100000000000000008110156102695780600161024b9201601a5561274e565b81549060031b906001600160a01b0333831b921b1916179055610187565b634e487b7160e01b5f52604160045260245ffd5b61015f348092612a72565b639f256db560e01b5f5260045ffd5b632afb507160e21b5f5260045ffd5b631c4af3c960e11b5f5260045ffd5b3490610112565b631f2a200560e01b5f5260045ffd5b341580156102e7571561010957631f2a200560e01b5f5260045ffd5b6248c6b960e61b5f5260045ffd5b630b094f2760e31b5f5260045ffd5b60021461031a575b6001600160a01b03906100fa565b602460206001600160a01b0360165416604051928380926370a0823160e01b82523360048301525afa5f9181610372575b5061035f5763457b8b9360e11b5f5260045ffd5b61030c5763e9e7bfc360e01b5f5260045ffd5b9091506020813d6020116103a2575b8161038e60209383612a31565b8101031261039e5751908361034b565b5f80fd5b3d9150610381565b634e487b7160e01b5f52602160045260245ffd5b63bc02ea9360e01b5f5260045ffd5b6338e102f160e21b5f5260045ffd5b50600f54421161004d565b63683f44bb60e11b5f5260045260245ffd5b63ab35696f60e01b5f5260045ffd5b5f5f3560e01c80631069143a1461263a57806313db8238146123c357806318e4274d146123a657806321eff7fc146121a4578063253da8bd1461238957806331f684c01461236c5780633ba86c44146123505780633cb5d1001461230f5780633ccfd60b146122805780633f4ba83a1461221f5780633fc8cef3146121dc57806342e94c90146121a457806349d2e2771461216a5780634bb278f3146115725780634e71d92d1461129f57806351fb012d14611279578063590e1ae3146111505780635c975abb1461112d5780635e6f6045146110e9578063715018a6146110955780637abbc150146110045780637cb6475914610fef57806380e3f1ad14610fd55780638456cb5914610f705780638da5cb5b14610f4957806391a9207b14610f2b57806395691a6d14610ee75780639759164a14610ea35780639e1a4d1914610e85578063a0e7f79a14610e55578063a7c6402c14610e11578063af157c1914610d49578063af1ad48b14610c6e578063aff177ca14610c2e578063b57b92a514610c10578063bedcf00314610bf2578063c19d93fb14610bb2578063c1d41e9514610b86578063c45a015514610b42578063c5c4744c14610b24578063cc2ee196146109b5578063cea9d26f146109ba578063d02c880a146109b5578063d0e30db014610999578063d7cee31e14610955578063e1f1c4a714610938578063ea4a9c851461090f578063ea8a1af0146107b1578063ed498fa814610785578063f2fde38b14610704578063f7bdc4f7146106955763fc0c546a1461064f575061000e565b3461069257806003193601126106925760206040516001600160a01b037f0000000000000000000000000000000000000000000000000000000000000000168152f35b80fd5b5060203660031901126106925760043567ffffffffffffffff8111610700576106c2903690600401612798565b60ff600354166106f1576106ea916106e3916106dc612f50565b3691612dbb565b343361341c565b6001815580f35b63ab35696f60e01b8352600483fd5b5080fd5b5034610692576020366003190112610692576001600160a01b03610726612738565b61072e612f29565b168015610771576001600160a01b03600154828219821617600155167f8be0079c531659141344cd1fd0a4f28419497f9722a3daafe3b4186f6b6457e08380a380f35b631e4fbdf760e01b82526004829052602482fd5b50346106925760203660031901126106925760206107a96107a4612738565b612e6e565b604051908152f35b50346106925780600319360112610692576107ca612f50565b6107d2612f29565b60ff600354166109005760ff601754169060048210156108ec57600182148015906108e0575b80156108d2575b6108c0576017805460ff19166002179055601c546001919080610856575b506040514281527f27f83af92b39768b17fe0c8d6922452702717efb8626d97e7a754e0b27d4f6d260203392a255602060405160018152f35b81601c5561088e81336001600160a01b037f000000000000000000000000000000000000000000000000000000000000000016613773565b6040519081527fbf95d20e2a316bd9c3e2efd35653a948438013277330af4b3fee49455a0e637260203392a28261081d565b60249163683f44bb60e11b8252600452fd5b50601f5460075411156107ff565b50600f544211156107f8565b634e487b7160e01b81526021600452602490fd5b63ab35696f60e01b8152600490fd5b503461069257602036600319011261069257602061092e600435612e11565b6040519015158152f35b503461069257806003193601126106925760206040516127108152f35b503461069257806003193601126106925760206040516001600160a01b037f0000000000000000000000000000000000000000000000000000000000000000168152f35b5034610692578060031936011261069257602090604051908152f35b6127c9565b5034610692576060366003190112610692576109d4612738565b6024356001600160a01b03811691828203610b2057604435906109f5612f29565b8315610b115760ff60175416600481101580610afd57600382149182159081610aee575b50610adf57610acb5780610a90575b80610a84575b610a755781610a6b7f77023e19c7343ad491fd706c36335ca0e738340a91f29b1fd81e2673d44896c4936001600160a01b03602094169586613773565b604051908152a380f35b63d64d4b7160e01b8552600485fd5b50602054421115610a2e565b506001600160a01b037f0000000000000000000000000000000000000000000000000000000000000000166001600160a01b03821614610a28565b634e487b7160e01b86526021600452602486fd5b63662fcd5d60e01b8752600487fd5b9150506002879114155f610a19565b634e487b7160e01b87526021600452602487fd5b63e6c4247b60e01b8552600485fd5b8380fd5b50346106925780600319360112610692576020601f54604051908152f35b503461069257806003193601126106925760206040516001600160a01b037f0000000000000000000000000000000000000000000000000000000000000000168152f35b503461069257806003193601126106925760206107a9610ba4612efb565b610bac612f0a565b90612a72565b503461069257806003193601126106925760ff60175416604051906004811015610bde57602092508152f35b634e487b7160e01b83526021600452602483fd5b50346106925780600319360112610692576020600454604051908152f35b50346106925780600319360112610692576020601e54604051908152f35b50346106925760403660031901126106925760043567ffffffffffffffff811161070057610c60903690600401612798565b5050610c6a612789565b5080f35b50346106925760403660031901126106925760043560243567ffffffffffffffff8111610d4557610ca3903690600401612798565b60ff60035416610d3657610cb5612f50565b6001600160a01b03601454168015610d27578315610d185791610d11916106dc6106ea9594604051906323b872dd60e01b602083015233602483015230604483015286606483015260648252610d0c608483612a31565b613883565b903361341c565b631f2a200560e01b8552600485fd5b6306a39ded60e41b8552600485fd5b63ab35696f60e01b8452600484fd5b8280fd5b5034610692578060031936011261069257604051806020601a5491828152018091601a85527f057c384a7d1c54f3a1b2e5e67b2617b8224fdfd1ea7234eea573a6ff665ff63e90855b818110610df25750505082610da8910383612a31565b604051928392602084019060208552518091526040840192915b818110610dd0575050500390f35b82516001600160a01b0316845285945060209384019390920191600101610dc2565b82546001600160a01b0316845260209093019260019283019201610d92565b503461069257806003193601126106925760206040516001600160a01b037f0000000000000000000000000000000000000000000000000000000000000000168152f35b50346106925780600319360112610692576060610e70612b31565b90604051921515835260208301526040820152f35b50346106925780600319360112610692576020601c54604051908152f35b503461069257806003193601126106925760206040516001600160a01b037f0000000000000000000000000000000000000000000000000000000000000000168152f35b503461069257806003193601126106925760206040516001600160a01b037f0000000000000000000000000000000000000000000000000000000000000000168152f35b50346106925780600319360112610692576020600254604051908152f35b503461069257806003193601126106925760206001600160a01b0360015416604051908152f35b5034610692578060031936011261069257610f89612f29565b60035460ff8116610fc65760ff1916600117600355337f62e78cea01bee320cd4e420270b5ea74000d11b0c9f74754ebdbfc544b05a2588280a280f35b631785c68160e01b8252600482fd5b503461069257602036600319011261069257610c6a61277a565b50346106925760203660031901126106925780f35b503461069257602036600319011261069257600435611021612f29565b60ff601754166004811015610bde57600381036110835750602054811115611074576020817ff1178b3c495407dc107b27908c56bee4f47c0295055c88d6110c026737fd2eb3928255604051908152a180f35b631da7447960e21b8252600482fd5b63683f44bb60e11b8352600452602482fd5b50346106925780600319360112610692576110ae612f29565b806001600160a01b0360015481198116600155167f8be0079c531659141344cd1fd0a4f28419497f9722a3daafe3b4186f6b6457e08280a380f35b503461069257806003193601126106925760206040516001600160a01b037f0000000000000000000000000000000000000000000000000000000000000000168152f35b5034610692578060031936011261069257602060ff600354166040519015158152f35b5034610692578060031936011261069257611169612f50565b60ff6017541660048110156112655760028114908115611236575b501561122757338152601860205260408120548015611218576001602092338152601884528060408120558260025410155f1461120f576111c783600254612ada565b6002555b6111d58333612f6e565b60405183815242858201527f73f04af9dcc582a923ec15d3eea990fe34adabfff2879e28d44572e01a54abb660403392a255604051908152f35b806002556111cb565b634625bdf760e01b8252600482fd5b631ba168fb60e11b8152600490fd5b60019150148061125a575b8061124d575b5f611184565b50601f5460075411611247565b50600f544211611241565b634e487b7160e01b82526021600452602482fd5b5034610692578060031936011261069257602060ff60035460081c166040519015158152f35b50346106925780600319360112610692576112b8612f50565b60ff600354166109005760ff601754166004811015611265576003810361156057506020544211611551576112ec33612e6e565b8015611543573382526018602052816040812055601c54818110611534578161131491612ada565b601c5561131f6130c2565b81815260115460208201819052801561152a5761271061134160609285612a7f565b04915b61135660408201938085528251612ada565b9182910152806114f0575b50805190816113ab575b60208360018660405183815242858201527f30c2341ba3f2142e78472f07dcf018a42044ae1c2c2e7ce867b327257f07ef2b60403392a255604051908152f35b60405163095ea7b360e01b81526001600160a01b037f0000000000000000000000000000000000000000000000000000000000000000811660048301819052602483019490945285927f00000000000000000000000000000000000000000000000000000000000000009091169160208160448187875af180156114e5576114b8575b50519260125491813b15610b2057604051631bc6452160e31b81523060048201523360248201526001600160a01b03919091166044820152606481019490945242608485015260a4840191909152829060c490829084905af180156114ad57611498575b8061136b565b6114a3838092612a31565b610700575f611492565b6040513d85823e3d90fd5b6114d99060203d6020116114de575b6114d18183612a31565b8101906130aa565b61142e565b503d6114c7565b6040513d86823e3d90fd5b61152490336001600160a01b037f000000000000000000000000000000000000000000000000000000000000000016613773565b5f611361565b5060608391611344565b637222ae5760e11b8352600483fd5b62f3f86160e41b8252600482fd5b632253b77960e01b8152600490fd5b63683f44bb60e11b8252600452602490fd5b503461039e575f36600319011261039e5761158b612f29565b60ff600354166103f95761159d612f50565b60ff6017541660048110156103aa57600181036103e75750600f5442111561215b57601f546007541161214c57600360ff1960175416176017556127106115e9601f54600c5490612a7f565b046115f6600b5482612a7f565b60405163313ce56760e01b81527f00000000000000000000000000000000000000000000000000000000000000006001600160a01b03169291602082600481875afa908115611cec5761165761165d9261166b945f91611fbe575b50612aab565b90612a7f565b61166561302d565b90612abc565b81151580612143575b6117af575b506116d691506127106116cf601f54826116b47f00000000000000000000000000000000000000000000000000000000000000008093612a7f565b048061174a575b506116c9601f549485612ada565b93612a7f565b0490612ada565b60045562ed4e00420190814211611736576001916020556116f56130f7565b601f546040519081524260208201527f616c9469db50815ae0f1d0a020d9fc9060da7c57f03559afb0d4ebdaa0a3a05e60403392a255602060405160018152f35b634e487b7160e01b81526011600452602490fd5b7f0f5237766fb8b2313e23d359023b2fe32aa11ff9048495b861341a994d9114bc60206001600160a01b037f00000000000000000000000000000000000000000000000000000000000000006117a08582612f6e565b6040519485521692a25f6116bb565b601e54908181111561213b5750915b601c548381106121245750601454839183916001600160a01b03168061211f57507f00000000000000000000000000000000000000000000000000000000000000005b60405163e6a4390560e01b81526001600160a01b03838116600483015282811660248301529091907f000000000000000000000000000000000000000000000000000000000000000016602083604481845afa928315611cec575f936120fe575b506001600160a01b0383161561204f575b50506001600160a01b031691821561204057604051630240bc6b60e21b8152606081600481875afa908115611cec575f905f92612001575b506001600160701b038091169116906001600160a01b036014541680155f14611ff357506001600160a01b037f00000000000000000000000000000000000000000000000000000000000000005b16841015611fed575b80611f51575b5050600d5461271003936127108511611d86576127106119348161192c8885612a7f565b049684612a7f565b04946040519560c087019387851067ffffffffffffffff8611176102695760409485528752602080880184815288860193845260608901928352608089019788525f60a08a01818152965163095ea7b360e01b81526001600160a01b037f000000000000000000000000000000000000000000000000000000000000000016600482018190526024820197909752969991939290879060449082908b5af1958615611cec57602496611f34575b5060206001600160a01b03895116604051978880926370a0823160e01b82523060048301525afa958615611cec575f96611f00575b506014546001600160a01b031680611d9a57505191519251905192610258420190814211611d865760609360c492604051968795869463f305d71960e01b86528c600487015260248601526044850152606484015230608484015260a4830152865af19081611d57575b50611adb57611a8d6137ca565b6308c379a014611aa7575b6376d097f360e11b5f5260045ffd5b611aaf6137e5565b80611aba5750611a98565b604051633c10bbab60e11b8152908190611ad79060048301613859565b0390fd5b5f9260446020925b604051958693849263095ea7b360e01b845260048401528160248401525af1918215611cec57602492611d3a575b5060206001600160a01b03845116604051938480926370a0823160e01b82523060048301525afa8015611cec575f90611d06575b611b4f9250612ada565b80835215611cf7576001600160a01b03905116905192611b7160105442612a72565b60405163095ea7b360e01b81526001600160a01b037f0000000000000000000000000000000000000000000000000000000000000000166004820181905260248201879052919391906020816044815f875af18015611cec57611ccf575b506001600160a01b0360015416813b1561039e575f9160848392604051948593849263042964f560e11b84528860048501528c60248501528a604485015260648401525af19081611cba575b50611c735785611c296137ca565b6308c379a014611c43575b63a14cffc560e01b8152600490fd5b611c4b6137e5565b80611c565750611c34565b604051630822993160e31b8152908190611ad79060048301613859565b7fac1d76749e5447b7b16f5ab61447e1bd502f3bb4807af3b28e620d1700a6ee4560406116d696611cb19582519182526020820152a2601c54612ada565b601c555f611679565b611cc79197505f90612a31565b5f955f611c1b565b611ce79060203d6020116114de576114d18183612a31565b611bcf565b6040513d5f823e3d90fd5b630bdc07d160e21b5f5260045ffd5b506020823d602011611d32575b81611d2060209383612a31565b8101031261039e57611b4f9151611b45565b3d9150611d13565b611d529060203d6020116114de576114d18183612a31565b611b11565b611d789060603d606011611d7f575b611d708183612a31565b8101906137af565b5050611a80565b503d611d66565b634e487b7160e01b5f52601160045260245ffd5b815160405163095ea7b360e01b81526001600160a01b038816600482015260248101919091529597959394919391929190602090829060449082905f905af18015611cec57611ee3575b506001600160a01b0360145416935192519151905191610258420193844211611d86576040519562e8e33760e81b8752876004880152602487015260448601526064850152608484015260a48301523060c483015260e4820152606081610104815f885af19081611ec4575b50611e5d57611a8d6137ca565b5f9060206001600160a01b036014541660446040518095819363095ea7b360e01b83528960048401528160248401525af18015611cec575f94602093604492611ea7575b50611ae3565b611ebd90853d87116114de576114d18183612a31565b505f611ea1565b611edc9060603d606011611d7f57611d708183612a31565b5050611e50565b611efb9060203d6020116114de576114d18183612a31565b611de4565b9095506020813d602011611f2c575b81611f1c60209383612a31565b8101031261039e5751945f611a16565b3d9150611f0f565b611f4c9060203d6020116114de576114d18183612a31565b6119e1565b611f5e611f639289612a7f565b612abc565b808611611f71575b80611908565b600b54909450611f82915084612a7f565b60405163313ce56760e01b815290602082600481865afa908115611cec5761165761165d92611fb7945f91611fbe5750612aab565b925f611f6b565b611fe0915060203d602011611fe6575b611fd88183612a31565b810190612a92565b5f611651565b503d611fce565b90611902565b6001600160a01b03906118f9565b6001600160701b03925082915061202f9060603d606011612039575b6120278183612a31565b810190612afb565b50929091506118ab565b503d61201d565b63284dbaed60e01b5f5260045ffd5b6040516364e329cb60e11b81526001600160a01b0385811660048301528316602482015291979396939593949250602090829060449082905f905af15f91816120cd575b506120b8576001600160a01b038787634fe1e92b60e11b5f526004521660245260445ffd5b939550919390926001600160a01b035f611873565b6120f091925060203d6020116120f7575b6120e88183612a31565b810190612a53565b905f612093565b503d6120de565b61211891935060203d6020116120f7576120e88183612a31565b915f611862565b611801565b83906310b540af60e21b5f5260045260245260445ffd5b9050916117be565b50801515611674565b632bdc91ad60e01b5f5260045ffd5b63dfc7e2e560e01b5f5260045ffd5b3461039e575f36600319011261039e5760206040517f00000000000000000000000000000000000000000000000000000000000000008152f35b3461039e57602036600319011261039e576001600160a01b036121c5612738565b165f526018602052602060405f2054604051908152f35b3461039e575f36600319011261039e5760206040516001600160a01b037f0000000000000000000000000000000000000000000000000000000000000000168152f35b3461039e575f36600319011261039e57612237612f29565b60035460ff8116156122715760ff1916600355337f5db9ee0a495bf2e6ff9c91a7834c1ba4fdd244a5e8aa4e537bd38aeae4b073aa5f80a2005b636cd6020160e01b5f5260045ffd5b3461039e575f36600319011261039e57612298612f29565b6122a0612f50565b60ff6017541660048110156103aa57600381036103e7576004548015612300575f6004556122ce8133612f6e565b6040519081527f7084f5476618d8e60b11ef0d7d3f06914655adb8793e28ff7f018d4c76d505d560203392a260015f55005b6367e3990d60e01b5f5260045ffd5b3461039e57602036600319011261039e57600435601a5481101561039e576001600160a01b0361234060209261274e565b90549060031b1c16604051908152f35b3461039e575f36600319011261039e5760208054604051908152f35b3461039e575f36600319011261039e576020601d54604051908152f35b3461039e575f36600319011261039e576020601a54604051908152f35b3461039e575f36600319011261039e576020601f54604051908152f35b3461039e575f36600319011261039e576001600160a01b037f000000000000000000000000000000000000000000000000000000000000000016330361262b5760ff600354166103f95760ff6017541660048110156103aa57806103e757600e544210156103cd576014546001600160a01b03168061262657507f00000000000000000000000000000000000000000000000000000000000000005b60405163e6a4390560e01b81526001600160a01b037f000000000000000000000000000000000000000000000000000000000000000081166004830181905290831660248301529190602081806044810103816001600160a01b037f0000000000000000000000000000000000000000000000000000000000000000165afa8015611cec576001600160a01b03915f91612607575b50166125e8576040516370a0823160e01b8152306004820152602081602481865afa908115611cec575f916125b6575b5080156102bc5761254c612536612efb565b80601d55612542612f0a565b9081601e55612a72565b908181106125a15780602091601c55600160ff19601754161760175560405181815242838201527f90890809c654f11d6e72a28fa60149770a0d11ec6c92319d6ceb2bb0a4ea1a1560403392a2604051908152f35b630d25268d60e01b5f5260045260245260445ffd5b90506020813d6020116125e0575b816125d160209383612a31565b8101031261039e575181612524565b3d91506125c4565b6001600160a01b0391631c1a784960e21b5f526004521660245260445ffd5b612620915060203d6020116120f7576120e88183612a31565b846124f4565b61245f565b631966391b60e11b5f5260045ffd5b3461039e575f36600319011261039e57600554608052600654600754600854600954600a54600b54600c54600d54600e54600f5491601054936011549560125497601354996014549b6015549d6016546001600160a01b03169f60805160a05260a06020015260a06040015260a06060015260a06080015260a080015260a060c0015260a060e0015260a0610100015260a0610120015260a0610140015260a0610160015260a0610180015260a06101a0015260a06101c001526001600160a01b03811660a06101e0015260a0610200019060a01c60ff169061271c9161272b565b6102c0526102e05261026060a0f35b9060038210156103aa5752565b600435906001600160a01b038216820361039e57565b601a5481101561276657601a5f5260205f2001905f90565b634e487b7160e01b5f52603260045260245ffd5b60043590811515820361039e57565b60243590811515820361039e57565b9181601f8401121561039e5782359167ffffffffffffffff831161039e576020808501948460051b01011161039e57565b3461039e575f36600319011261039e575f6102406040516127e981612a14565b8281528260208201528260408201528260608201528260808201528260a08201528260c08201528260e08201528261010082015282610120820152826101408201528261016082015282610180820152826101a0820152826101c0820152826101e08201528261020082015282610220820152015260405161286a81612a14565b60055481526006546020820152600754604082015260085460608201526009546080820152600a5460a0820152600b5460c0820152600c5460e0820152600d54610100820152600e54610120820152600f546101408201526010546101608201526011546101808201526012546101a08201526013546101c082015260ff6014546001600160a01b0381166101e084015260a01c169060038210156103aa57610260916102008201526015546102208201526001600160a01b03601654166102408201526001600160a01b0361024060405192805184526020810151602085015260408101516040850152606081015160608501526080810151608085015260a081015160a085015260c081015160c085015260e081015160e08501526101008101516101008501526101208101516101208501526101408101516101408501526101608101516101608501526101808101516101808501526101a08101516101a08501526101c08101516101c0850152826101e0820151166101e08501526129fd61020082015161020086019061272b565b610220810151610220850152015116610240820152f35b610260810190811067ffffffffffffffff82111761026957604052565b90601f8019910116810190811067ffffffffffffffff82111761026957604052565b9081602091031261039e57516001600160a01b038116810361039e5790565b91908201809211611d8657565b81810292918115918404141715611d8657565b9081602091031261039e575160ff8116810361039e5790565b60ff16604d8111611d8657600a0a90565b8115612ac6570490565b634e487b7160e01b5f52601260045260245ffd5b91908203918211611d8657565b51906001600160701b038216820361039e57565b9081606091031261039e57612b0f81612ae7565b916040612b1e60208401612ae7565b92015163ffffffff8116810361039e5790565b612710612b43601f54600c5490612a7f565b04612b50600b5482612a7f565b60405163313ce56760e01b81527f00000000000000000000000000000000000000000000000000000000000000006001600160a01b03169391602082600481885afa908115611cec5761165761165d92612bb0945f91611fbe5750612aab565b601e549081811115612db35750925b601c54848110612da957506014546001600160a01b03168015918215612d9e57612c3760207f00000000000000000000000000000000000000000000000000000000000000005b60405163e6a4390560e01b81526001600160a01b038086166004830152909116602482015291829081906044820190565b03816001600160a01b037f0000000000000000000000000000000000000000000000000000000000000000165afa8015611cec576001600160a01b03915f91612d7f575b5016918215612d7457606060049360405194858092630240bc6b60e21b82525afa928315611cec575f905f94612d45575b506001600160701b038091169316935f14612d3757506001600160a01b037f00000000000000000000000000000000000000000000000000000000000000005b161115612d31575b8015612d2957611f5e612d079286612a7f565b915b6125e483028381046125e41484151715611d865761271090041115929190565b505081612d09565b90612cf4565b6001600160a01b0390612cec565b6001600160701b039450849150612d6a9060603d606011612039576120278183612a31565b5094909150612cac565b505050506001929190565b612d98915060203d6020116120f7576120e88183612a31565b5f612c7b565b612c37602083612c06565b939250505f929190565b905092612bbf565b9291909267ffffffffffffffff8411610269578360051b906020604051612de482850182612a31565b809681520191810192831161039e57905b828210612e0157505050565b8135815260209182019101612df5565b601b5490815f5b838110612e2757505050505f90565b8181101561276657601b5f527f3ad8aa4f87544323a9d1e5dd902f40c356527a7955687113db5f9a85ad579dc18101548314612e6557600101612e18565b50505050600190565b6001600160a01b03165f52601860205260405f20548015612ef657600a54612e9591612a7f565b60405163313ce56760e01b8152906020826004817f00000000000000000000000000000000000000000000000000000000000000006001600160a01b03165afa908115611cec5761165761165d92612ef3945f91611fbe5750612aab565b90565b505f90565b612e95600654600a5490612a7f565b612e95612710612f1f600654600c5490612a7f565b04600b5490612a7f565b6001600160a01b03600154163303612f3d57565b63118cdaa760e01b5f523360045260245ffd5b60025f5414612f5f5760025f55565b633ee5aeb560e01b5f5260045ffd5b8115613029576014546001600160a01b03168061301c5750814710613005575f8080936001600160a01b038294165af13d15612ffd573d9067ffffffffffffffff82116102695760405191612fcd601f8201601f191660200184612a31565b82523d5f602084013e5b15612fdf5750565b805115612fee57805190602001fd5b63d6bda27560e01b5f5260045ffd5b606090612fd7565b504763cf47918160e01b5f5260045260245260445ffd5b906130279291613773565b565b5050565b6001600160a01b0360145416801561309d5760206004916040519283809263313ce56760e01b82525afa5f918161307c575b5061307357631da50fef60e01b5f5260045ffd5b612ef390612aab565b61309691925060203d602011611fe657611fd88183612a31565b905f61305f565b50670de0b6b3a764000090565b9081602091031261039e5751801515810361039e5790565b604051906080820182811067ffffffffffffffff821117610269576040525f6060838281528260208201528260408201520152565b6130ff6130c2565b601f546131105f91600a5490612a7f565b60405163313ce56760e01b81527f00000000000000000000000000000000000000000000000000000000000000006001600160a01b031691602082600481865afa908115611cec5761165761165d9261316f945f91611fbe5750612aab565b808452601d54809111613414575b613188845182612ada565b6020850190815260606131d96131a1601e548095612a72565b92601c54948486956131b38388612a72565b111561340b576131c66131cb9287612a72565b612ada565b905b8160408a015251612a72565b95019480865211613403575b835180156133fc576131f691612ada565b601c5560135480613255575061321b91506001600160a01b0360015416835191613773565b517fbf95d20e2a316bd9c3e2efd35653a948438013277330af4b3fee49455a0e637260206001600160a01b036001541692604051908152a2565b6001036132be57916132b46020927fa23a441fdb6a3236d37796809dafdaba773a27be440ae9746e9b9f8cf2c2106e9483516040519263a9059cbb60e01b878501525061dead6024840152604483015260448252610d0c606483612a31565b51604051908152a1565b825160405163095ea7b360e01b81526001600160a01b037f0000000000000000000000000000000000000000000000000000000000000000166004820181905260248201929092529092506020816044815f865af18015611cec576133df575b506001600160a01b036001541683519260125493813b1561039e57604051631bc6452160e31b81523060048201526001600160a01b039384166024820152939092166044840152606483019190915242608483015260a4820192909252905f90829060c490829084905af18015611cec576133cf575b50517fffbab51a97c2620266485de4ca0e9acd7a3e7412812e256ff5d6831fa5dacaa960206001600160a01b036001541692604051908152a2565b5f6133d991612a31565b5f613394565b6133f79060203d6020116114de576114d18183612a31565b61331e565b5050505050565b8084526131e5565b50505f906131cd565b80845261317d565b919260ff6017541660048110156103aa57600181036103e75750600e5442108015613768575b6103cd576001600160a01b03831680156103be576014549260ff8460a01c1660038110156103aa57600181036136be57506015549460405160208101916bffffffffffffffffffffffff199060601b168252601481526134a3603482612a31565b519020935f945b87518610156134ec5760208660051b89010151908181105f146134db575f52602052600160405f205b9501946134aa565b905f52602052600160405f206134d3565b919450929550939093036102f5576001600160a01b03905b16159081156136a55734156102bc575b811561369e5734915b601f549261352b8185612a72565b600654106102a65760085481106102975761355290855f52601860205260405f2054612a72565b600954106102885715613693575061356b348092612a72565b601f5561357a81600254612a72565b600255815f52601960205260ff60405f20541615613613575b60407f08ce00466abd322339ad31e43307a70a872f8c32a13d8b24ed85948ba75ed1b391835f526018602052815f206135cd828254612a72565b9055837f2499a5330ab0979cc612135e7883ebc3cd5c9f7a8508f042540c34723348f63260208451848152a26001600160a01b03601454161582519182526020820152a2565b815f52601960205260405f20600160ff19825416179055601a5468010000000000000000811015610269577f08ce00466abd322339ad31e43307a70a872f8c32a13d8b24ed85948ba75ed1b39161367282600160409401601a5561274e565b81549060031b906001600160a01b0387831b921b1916179055915050613593565b61356b908092612a72565b809161351d565b346102e7578061351457631f2a200560e01b5f5260045ffd5b90939295506002919450146136dc575b6001600160a01b0390613504565b602460206001600160a01b0360165416604051928380926370a0823160e01b82528860048301525afa5f9181613734575b506137215763457b8b9360e11b5f5260045ffd5b6136ce5763e9e7bfc360e01b5f5260045ffd5b9091506020813d602011613760575b8161375060209383612a31565b8101031261039e5751905f61370d565b3d9150613743565b50600f544211613442565b60405163a9059cbb60e01b60208201526001600160a01b0392909216602483015260448083019390935291815261302791610d0c606483612a31565b9081606091031261039e578051916040602083015192015190565b5f9060033d116137d657565b905060045f803e5f5160e01c90565b5f60443d10612ef3576040513d600319016004823e8051913d602484011167ffffffffffffffff841117613853578282019283519167ffffffffffffffff831161384b573d8401600319018584016020011161384b5750612ef392910160200190612a31565b949350505050565b92915050565b602060409281835280519182918282860152018484015e5f828201840152601f01601f1916010190565b905f602091828151910182855af115611cec575f513d6138ce57506001600160a01b0381163b155b6138b25750565b6001600160a01b0390635274afe760e01b5f521660045260245ffd5b600114156138ab56fea2646970667358221220aa043644cd932589359bc3722bbf4150a3e8bee1cb21c2d5ee4df1590b05479264736f6c634300081c0033","linkReferences":{}},"methodIdentifiers":{"BASIS_POINTS()":"e1f1c4a7","_presaleFactory()":"95691a6d","calculateTotalTokensNeeded()":"c1d41e95","cancel()":"ea8a1af0","claim()":"4e71d92d","claimDeadline()":"3ba86c44","contribute(bytes32[])":"f7bdc4f7","contributeStablecoin(uint256,bytes32[])":"af1ad48b","contributions(address)":"42e94c90","contributors(uint256)":"3cb5d100","deposit()":"d0e30db0","extendClaimDeadline(uint256)":"7abbc150","factory()":"c45a0155","finalize()":"4bb278f3","getContribution(address)":"21eff7fc","getContributorCount()":"253da8bd","getContributors()":"af157c19","getOptions()":"cc2ee196","getPresaleOptions()":"d02c880a","getTotalContributed()":"18e4274d","houseAddress()":"d7cee31e","housePercentage()":"49d2e277","initializeDeposit()":"13db8238","isAllowedLiquidityBps(uint256)":"ea4a9c85","liquidityLocker()":"9759164a","options()":"1069143a","owner()":"8da5cb5b","ownerBalance()":"bedcf003","pause()":"8456cb59","paused()":"5c975abb","refund()":"590e1ae3","renounceOwnership()":"715018a6","rescueTokens(address,address,uint256)":"cea9d26f","setMerkleRoot(bytes32)":"7cb64759","simulateLiquidityAddition()":"a0e7f79a","state()":"c19d93fb","toggleWhitelist(bool)":"80e3f1ad","token()":"fc0c546a","tokenBalance()":"9e1a4d19","tokensClaimable()":"31f684c0","tokensLiquidity()":"b57b92a5","totalRaised()":"c5c4744c","totalRefundable()":"91a9207b","transferOwnership(address)":"f2fde38b","uniswapV2Router02()":"a7c6402c","unpause()":"3f4ba83a","updateWhitelist(address[],bool)":"aff177ca","userTokens(address)":"ed498fa8","vestingContract()":"5e6f6045","weth()":"3fc8cef3","whitelistEnabled()":"51fb012d","withdraw()":"3ccfd60b"},"id":41}