{
  "abi": [
    {
      "type": "constructor",
      "inputs": [
        {
          "name": "_creationFee",
          "type": "uint256",
          "internalType": "uint256"
        },
        {
          "name": "_feeToken",
          "type": "address",
          "internalType": "address"
        },
        {
          "name": "_housePercentage",
          "type": "uint256",
          "internalType": "uint256"
        },
        {
          "name": "_houseAddress",
          "type": "address",
          "internalType": "address"
        }
      ],
      "stateMutability": "nonpayable"
    },
    {
      "type": "function",
      "name": "BASIS_POINTS",
      "inputs": [],
      "outputs": [
        {
          "name": "",
          "type": "uint256",
          "internalType": "uint256"
        }
      ],
      "stateMutability": "view"
    },
    {
      "type": "function",
      "name": "LOCKER_ROLE",
      "inputs": [],
      "outputs": [
        {
          "name": "",
          "type": "bytes32",
          "internalType": "bytes32"
        }
      ],
      "stateMutability": "view"
    },
    {
      "type": "function",
      "name": "VESTER_ROLE",
      "inputs": [],
      "outputs": [
        {
          "name": "",
          "type": "bytes32",
          "internalType": "bytes32"
        }
      ],
      "stateMutability": "view"
    },
    {
      "type": "function",
      "name": "calculateTotalTokensNeededForPresale",
      "inputs": [
        {
          "name": "_options",
          "type": "tuple",
          "internalType": "struct Presale.PresaleOptions",
          "components": [
            {
              "name": "tokenDeposit",
              "type": "uint256",
              "internalType": "uint256"
            },
            {
              "name": "hardCap",
              "type": "uint256",
              "internalType": "uint256"
            },
            {
              "name": "softCap",
              "type": "uint256",
              "internalType": "uint256"
            },
            {
              "name": "min",
              "type": "uint256",
              "internalType": "uint256"
            },
            {
              "name": "max",
              "type": "uint256",
              "internalType": "uint256"
            },
            {
              "name": "presaleRate",
              "type": "uint256",
              "internalType": "uint256"
            },
            {
              "name": "listingRate",
              "type": "uint256",
              "internalType": "uint256"
            },
            {
              "name": "liquidityBps",
              "type": "uint256",
              "internalType": "uint256"
            },
            {
              "name": "slippageBps",
              "type": "uint256",
              "internalType": "uint256"
            },
            {
              "name": "start",
              "type": "uint256",
              "internalType": "uint256"
            },
            {
              "name": "end",
              "type": "uint256",
              "internalType": "uint256"
            },
            {
              "name": "lockupDuration",
              "type": "uint256",
              "internalType": "uint256"
            },
            {
              "name": "vestingPercentage",
              "type": "uint256",
              "internalType": "uint256"
            },
            {
              "name": "vestingDuration",
              "type": "uint256",
              "internalType": "uint256"
            },
            {
              "name": "leftoverTokenOption",
              "type": "uint256",
              "internalType": "uint256"
            },
            {
              "name": "currency",
              "type": "address",
              "internalType": "address"
            },
            {
              "name": "whitelistType",
              "type": "uint8",
              "internalType": "enum Presale.WhitelistType"
            },
            {
              "name": "merkleRoot",
              "type": "bytes32",
              "internalType": "bytes32"
            },
            {
              "name": "nftContractAddress",
              "type": "address",
              "internalType": "address"
            }
          ]
        },
        {
          "name": "_token",
          "type": "address",
          "internalType": "address"
        }
      ],
      "outputs": [
        {
          "name": "totalTokensNeeded",
          "type": "uint256",
          "internalType": "uint256"
        }
      ],
      "stateMutability": "view"
    },
    {
      "type": "function",
      "name": "createPresale",
      "inputs": [
        {
          "name": "_options",
          "type": "tuple",
          "internalType": "struct Presale.PresaleOptions",
          "components": [
            {
              "name": "tokenDeposit",
              "type": "uint256",
              "internalType": "uint256"
            },
            {
              "name": "hardCap",
              "type": "uint256",
              "internalType": "uint256"
            },
            {
              "name": "softCap",
              "type": "uint256",
              "internalType": "uint256"
            },
            {
              "name": "min",
              "type": "uint256",
              "internalType": "uint256"
            },
            {
              "name": "max",
              "type": "uint256",
              "internalType": "uint256"
            },
            {
              "name": "presaleRate",
              "type": "uint256",
              "internalType": "uint256"
            },
            {
              "name": "listingRate",
              "type": "uint256",
              "internalType": "uint256"
            },
            {
              "name": "liquidityBps",
              "type": "uint256",
              "internalType": "uint256"
            },
            {
              "name": "slippageBps",
              "type": "uint256",
              "internalType": "uint256"
            },
            {
              "name": "start",
              "type": "uint256",
              "internalType": "uint256"
            },
            {
              "name": "end",
              "type": "uint256",
              "internalType": "uint256"
            },
            {
              "name": "lockupDuration",
              "type": "uint256",
              "internalType": "uint256"
            },
            {
              "name": "vestingPercentage",
              "type": "uint256",
              "internalType": "uint256"
            },
            {
              "name": "vestingDuration",
              "type": "uint256",
              "internalType": "uint256"
            },
            {
              "name": "leftoverTokenOption",
              "type": "uint256",
              "internalType": "uint256"
            },
            {
              "name": "currency",
              "type": "address",
              "internalType": "address"
            },
            {
              "name": "whitelistType",
              "type": "uint8",
              "internalType": "enum Presale.WhitelistType"
            },
            {
              "name": "merkleRoot",
              "type": "bytes32",
              "internalType": "bytes32"
            },
            {
              "name": "nftContractAddress",
              "type": "address",
              "internalType": "address"
            }
          ]
        },
        {
          "name": "_token",
          "type": "address",
          "internalType": "address"
        },
        {
          "name": "_weth",
          "type": "address",
          "internalType": "address"
        },
        {
          "name": "_uniswapV2Router02",
          "type": "address",
          "internalType": "address"
        }
      ],
      "outputs": [
        {
          "name": "presaleAddress",
          "type": "address",
          "internalType": "address"
        }
      ],
      "stateMutability": "payable"
    },
    {
      "type": "function",
      "name": "createdPresales",
      "inputs": [
        {
          "name": "",
          "type": "uint256",
          "internalType": "uint256"
        }
      ],
      "outputs": [
        {
          "name": "",
          "type": "address",
          "internalType": "address"
        }
      ],
      "stateMutability": "view"
    },
    {
      "type": "function",
      "name": "creationFee",
      "inputs": [],
      "outputs": [
        {
          "name": "",
          "type": "uint256",
          "internalType": "uint256"
        }
      ],
      "stateMutability": "view"
    },
    {
      "type": "function",
      "name": "feeToken",
      "inputs": [],
      "outputs": [
        {
          "name": "",
          "type": "address",
          "internalType": "address"
        }
      ],
      "stateMutability": "view"
    },
    {
      "type": "function",
      "name": "getAllPresales",
      "inputs": [],
      "outputs": [
        {
          "name": "",
          "type": "address[]",
          "internalType": "address[]"
        }
      ],
      "stateMutability": "view"
    },
    {
      "type": "function",
      "name": "getCreationFee",
      "inputs": [],
      "outputs": [
        {
          "name": "",
          "type": "uint256",
          "internalType": "uint256"
        }
      ],
      "stateMutability": "view"
    },
    {
      "type": "function",
      "name": "getHouseAddress",
      "inputs": [],
      "outputs": [
        {
          "name": "",
          "type": "address",
          "internalType": "address"
        }
      ],
      "stateMutability": "view"
    },
    {
      "type": "function",
      "name": "getHousePercentage",
      "inputs": [],
      "outputs": [
        {
          "name": "",
          "type": "uint256",
          "internalType": "uint256"
        }
      ],
      "stateMutability": "view"
    },
    {
      "type": "function",
      "name": "getPresaleAt",
      "inputs": [
        {
          "name": "index",
          "type": "uint256",
          "internalType": "uint256"
        }
      ],
      "outputs": [
        {
          "name": "",
          "type": "address",
          "internalType": "address"
        }
      ],
      "stateMutability": "view"
    },
    {
      "type": "function",
      "name": "getPresaleCount",
      "inputs": [],
      "outputs": [
        {
          "name": "",
          "type": "uint256",
          "internalType": "uint256"
        }
      ],
      "stateMutability": "view"
    },
    {
      "type": "function",
      "name": "getPresaleOptionsByAddress",
      "inputs": [
        {
          "name": "_presaleAddress",
          "type": "address",
          "internalType": "address"
        }
      ],
      "outputs": [
        {
          "name": "options",
          "type": "tuple",
          "internalType": "struct Presale.PresaleOptions",
          "components": [
            {
              "name": "tokenDeposit",
              "type": "uint256",
              "internalType": "uint256"
            },
            {
              "name": "hardCap",
              "type": "uint256",
              "internalType": "uint256"
            },
            {
              "name": "softCap",
              "type": "uint256",
              "internalType": "uint256"
            },
            {
              "name": "min",
              "type": "uint256",
              "internalType": "uint256"
            },
            {
              "name": "max",
              "type": "uint256",
              "internalType": "uint256"
            },
            {
              "name": "presaleRate",
              "type": "uint256",
              "internalType": "uint256"
            },
            {
              "name": "listingRate",
              "type": "uint256",
              "internalType": "uint256"
            },
            {
              "name": "liquidityBps",
              "type": "uint256",
              "internalType": "uint256"
            },
            {
              "name": "slippageBps",
              "type": "uint256",
              "internalType": "uint256"
            },
            {
              "name": "start",
              "type": "uint256",
              "internalType": "uint256"
            },
            {
              "name": "end",
              "type": "uint256",
              "internalType": "uint256"
            },
            {
              "name": "lockupDuration",
              "type": "uint256",
              "internalType": "uint256"
            },
            {
              "name": "vestingPercentage",
              "type": "uint256",
              "internalType": "uint256"
            },
            {
              "name": "vestingDuration",
              "type": "uint256",
              "internalType": "uint256"
            },
            {
              "name": "leftoverTokenOption",
              "type": "uint256",
              "internalType": "uint256"
            },
            {
              "name": "currency",
              "type": "address",
              "internalType": "address"
            },
            {
              "name": "whitelistType",
              "type": "uint8",
              "internalType": "enum Presale.WhitelistType"
            },
            {
              "name": "merkleRoot",
              "type": "bytes32",
              "internalType": "bytes32"
            },
            {
              "name": "nftContractAddress",
              "type": "address",
              "internalType": "address"
            }
          ]
        }
      ],
      "stateMutability": "view"
    },
    {
      "type": "function",
      "name": "houseAddress",
      "inputs": [],
      "outputs": [
        {
          "name": "",
          "type": "address",
          "internalType": "address"
        }
      ],
      "stateMutability": "view"
    },
    {
      "type": "function",
      "name": "housePercentage",
      "inputs": [],
      "outputs": [
        {
          "name": "",
          "type": "uint256",
          "internalType": "uint256"
        }
      ],
      "stateMutability": "view"
    },
    {
      "type": "function",
      "name": "liquidityLocker",
      "inputs": [],
      "outputs": [
        {
          "name": "",
          "type": "address",
          "internalType": "contract LiquidityLocker"
        }
      ],
      "stateMutability": "view"
    },
    {
      "type": "function",
      "name": "owner",
      "inputs": [],
      "outputs": [
        {
          "name": "",
          "type": "address",
          "internalType": "address"
        }
      ],
      "stateMutability": "view"
    },
    {
      "type": "function",
      "name": "presaleConfigurations",
      "inputs": [
        {
          "name": "",
          "type": "address",
          "internalType": "address"
        }
      ],
      "outputs": [
        {
          "name": "tokenDeposit",
          "type": "uint256",
          "internalType": "uint256"
        },
        {
          "name": "hardCap",
          "type": "uint256",
          "internalType": "uint256"
        },
        {
          "name": "softCap",
          "type": "uint256",
          "internalType": "uint256"
        },
        {
          "name": "min",
          "type": "uint256",
          "internalType": "uint256"
        },
        {
          "name": "max",
          "type": "uint256",
          "internalType": "uint256"
        },
        {
          "name": "presaleRate",
          "type": "uint256",
          "internalType": "uint256"
        },
        {
          "name": "listingRate",
          "type": "uint256",
          "internalType": "uint256"
        },
        {
          "name": "liquidityBps",
          "type": "uint256",
          "internalType": "uint256"
        },
        {
          "name": "slippageBps",
          "type": "uint256",
          "internalType": "uint256"
        },
        {
          "name": "start",
          "type": "uint256",
          "internalType": "uint256"
        },
        {
          "name": "end",
          "type": "uint256",
          "internalType": "uint256"
        },
        {
          "name": "lockupDuration",
          "type": "uint256",
          "internalType": "uint256"
        },
        {
          "name": "vestingPercentage",
          "type": "uint256",
          "internalType": "uint256"
        },
        {
          "name": "vestingDuration",
          "type": "uint256",
          "internalType": "uint256"
        },
        {
          "name": "leftoverTokenOption",
          "type": "uint256",
          "internalType": "uint256"
        },
        {
          "name": "currency",
          "type": "address",
          "internalType": "address"
        },
        {
          "name": "whitelistType",
          "type": "uint8",
          "internalType": "enum Presale.WhitelistType"
        },
        {
          "name": "merkleRoot",
          "type": "bytes32",
          "internalType": "bytes32"
        },
        {
          "name": "nftContractAddress",
          "type": "address",
          "internalType": "address"
        }
      ],
      "stateMutability": "view"
    },
    {
      "type": "function",
      "name": "renounceOwnership",
      "inputs": [],
      "outputs": [],
      "stateMutability": "nonpayable"
    },
    {
      "type": "function",
      "name": "setFeeConfiguration",
      "inputs": [
        {
          "name": "_newCreationFee",
          "type": "uint256",
          "internalType": "uint256"
        },
        {
          "name": "_newFeeToken",
          "type": "address",
          "internalType": "address"
        }
      ],
      "outputs": [],
      "stateMutability": "nonpayable"
    },
    {
      "type": "function",
      "name": "setHouseConfiguration",
      "inputs": [
        {
          "name": "_newHousePercentage",
          "type": "uint256",
          "internalType": "uint256"
        },
        {
          "name": "_newHouseAddress",
          "type": "address",
          "internalType": "address"
        }
      ],
      "outputs": [],
      "stateMutability": "nonpayable"
    },
    {
      "type": "function",
      "name": "transferOwnership",
      "inputs": [
        {
          "name": "newOwner",
          "type": "address",
          "internalType": "address"
        }
      ],
      "outputs": [],
      "stateMutability": "nonpayable"
    },
    {
      "type": "function",
      "name": "vestingContract",
      "inputs": [],
      "outputs": [
        {
          "name": "",
          "type": "address",
          "internalType": "contract Vesting"
        }
      ],
      "stateMutability": "view"
    },
    {
      "type": "function",
      "name": "withdrawFees",
      "inputs": [],
      "outputs": [],
      "stateMutability": "nonpayable"
    },
    {
      "type": "event",
      "name": "FeeConfigurationChanged",
      "inputs": [
        {
          "name": "newCreationFee",
          "type": "uint256",
          "indexed": false,
          "internalType": "uint256"
        },
        {
          "name": "newFeeToken",
          "type": "address",
          "indexed": false,
          "internalType": "address"
        }
      ],
      "anonymous": false
    },
    {
      "type": "event",
      "name": "HouseConfigurationChanged",
      "inputs": [
        {
          "name": "newHousePercentage",
          "type": "uint256",
          "indexed": false,
          "internalType": "uint256"
        },
        {
          "name": "newHouseAddress",
          "type": "address",
          "indexed": false,
          "internalType": "address"
        }
      ],
      "anonymous": false
    },
    {
      "type": "event",
      "name": "OwnershipTransferred",
      "inputs": [
        {
          "name": "previousOwner",
          "type": "address",
          "indexed": true,
          "internalType": "address"
        },
        {
          "name": "newOwner",
          "type": "address",
          "indexed": true,
          "internalType": "address"
        }
      ],
      "anonymous": false
    },
    {
      "type": "event",
      "name": "PresaleConfiguration",
      "inputs": [
        {
          "name": "options",
          "type": "tuple",
          "indexed": true,
          "internalType": "struct Presale.PresaleOptions",
          "components": [
            {
              "name": "tokenDeposit",
              "type": "uint256",
              "internalType": "uint256"
            },
            {
              "name": "hardCap",
              "type": "uint256",
              "internalType": "uint256"
            },
            {
              "name": "softCap",
              "type": "uint256",
              "internalType": "uint256"
            },
            {
              "name": "min",
              "type": "uint256",
              "internalType": "uint256"
            },
            {
              "name": "max",
              "type": "uint256",
              "internalType": "uint256"
            },
            {
              "name": "presaleRate",
              "type": "uint256",
              "internalType": "uint256"
            },
            {
              "name": "listingRate",
              "type": "uint256",
              "internalType": "uint256"
            },
            {
              "name": "liquidityBps",
              "type": "uint256",
              "internalType": "uint256"
            },
            {
              "name": "slippageBps",
              "type": "uint256",
              "internalType": "uint256"
            },
            {
              "name": "start",
              "type": "uint256",
              "internalType": "uint256"
            },
            {
              "name": "end",
              "type": "uint256",
              "internalType": "uint256"
            },
            {
              "name": "lockupDuration",
              "type": "uint256",
              "internalType": "uint256"
            },
            {
              "name": "vestingPercentage",
              "type": "uint256",
              "internalType": "uint256"
            },
            {
              "name": "vestingDuration",
              "type": "uint256",
              "internalType": "uint256"
            },
            {
              "name": "leftoverTokenOption",
              "type": "uint256",
              "internalType": "uint256"
            },
            {
              "name": "currency",
              "type": "address",
              "internalType": "address"
            },
            {
              "name": "whitelistType",
              "type": "uint8",
              "internalType": "enum Presale.WhitelistType"
            },
            {
              "name": "merkleRoot",
              "type": "bytes32",
              "internalType": "bytes32"
            },
            {
              "name": "nftContractAddress",
              "type": "address",
              "internalType": "address"
            }
          ]
        }
      ],
      "anonymous": false
    },
    {
      "type": "event",
      "name": "PresaleCreated",
      "inputs": [
        {
          "name": "creator",
          "type": "address",
          "indexed": true,
          "internalType": "address"
        },
        {
          "name": "presaleContract",
          "type": "address",
          "indexed": true,
          "internalType": "address"
        },
        {
          "name": "token",
          "type": "address",
          "indexed": true,
          "internalType": "address"
        },
        {
          "name": "start",
          "type": "uint256",
          "indexed": false,
          "internalType": "uint256"
        },
        {
          "name": "end",
          "type": "uint256",
          "indexed": false,
          "internalType": "uint256"
        }
      ],
      "anonymous": false
    },
    {
      "type": "error",
      "name": "FeePaymentFailed",
      "inputs": []
    },
    {
      "type": "error",
      "name": "IndexOutOfBounds",
      "inputs": []
    },
    {
      "type": "error",
      "name": "InvalidCapSettings",
      "inputs": []
    },
    {
      "type": "error",
      "name": "InvalidCurrencyDecimals",
      "inputs": []
    },
    {
      "type": "error",
      "name": "InvalidFeeConfiguration",
      "inputs": []
    },
    {
      "type": "error",
      "name": "InvalidHouseConfiguration",
      "inputs": []
    },
    {
      "type": "error",
      "name": "NotAPresaleContract",
      "inputs": []
    },
    {
      "type": "error",
      "name": "OwnableInvalidOwner",
      "inputs": [
        {
          "name": "owner",
          "type": "address",
          "internalType": "address"
        }
      ]
    },
    {
      "type": "error",
      "name": "OwnableUnauthorizedAccount",
      "inputs": [
        {
          "name": "account",
          "type": "address",
          "internalType": "address"
        }
      ]
    },
    {
      "type": "error",
      "name": "RoleGrantFailed",
      "inputs": []
    },
    {
      "type": "error",
      "name": "SafeERC20FailedOperation",
      "inputs": [
        {
          "name": "token",
          "type": "address",
          "internalType": "address"
        }
      ]
    },
    {
      "type": "error",
      "name": "ZeroAddress",
      "inputs": []
    }
  ],
  "bytecode": {
    "object": "0x60c0346101d957601f61810038819003918201601f19168301916001600160401b03831184841017610195578084926080946040528339810103126101d957805161004c602083016101dd565b9161005e6060604083015192016101dd565b33156101c6575f8054336001600160a01b0319821681178355604051969290916001600160a01b0316907f8be0079c531659141344cd1fd0a4f28419497f9722a3daafe3b4186f6b6457e09080a36001600160a01b031690816101c1575b6101f483116101a9576001600160a01b0316928315806101b8575b6101a95760015560018060a01b0319600254161760025560035560018060a01b03196004541617600455610ed680820182811060018060401b03821117610195578291615c03833903905ff0801561018a576080526040516116278082016001600160401b03811183821017610195578291616ad9833903905ff0801561018a5760a052604051615a1190816101f282396080518181816104b30152610b80015260a0518181816105e70152610bab0152f35b6040513d5f823e3d90fd5b634e487b7160e01b5f52604160045260245ffd5b6362c9b89160e11b5f5260045ffd5b508215156100d7565b6100bc565b631e4fbdf760e01b5f525f60045260245ffd5b5f80fd5b51906001600160a01b03821682036101d95756fe6101006040526004361015610012575f80fd5b5f5f3560e01c80630b8c156314610af95780631be06f6314610ac5578063275fea2c1461094857806337a9ab4c1461087e578063476343ee1461076957806349d2e277146104fd57806359e7412b1461060b5780635e6f6045146105c757806362e6b3a914610594578063647846a51461056d578063715018a61461051b5780637ef97d73146104fd5780638da5cb5b146104d757806392144b62146103df5780639759164a14610493578063a725976714610441578063ae5ad22714610406578063d7cee31e146103df578063db07b68e146103c1578063dce0b4e4146103c1578063defbdb83146103a3578063e1f1c4a714610386578063ea9160dd146102be578063f2fde38b1461022b578063f3621367146101f05763fae8592714610139575f80fd5b346101ed5760403660031901126101ed5760043590610156611083565b61015e61163a565b6001600160a01b03811692836101d2575b7f4cd68e04e888ae02296b686261dd66226ff1d60291837212646f8e05727d59459293816001556001600160a01b031960025416176002556101cc604051928392839092916001600160a01b036020916040840195845216910152565b0390a180f35b63ffffffff823b1661016f5763d92e233d60e01b8352600483fd5b80fd5b50346101ed57806003193601126101ed5760206040517faf9a8bb3cbd6b84fbccefa71ff73e26e798553c6914585a84886212a46a902798152f35b50346101ed5760203660031901126101ed576001600160a01b0361024d61106d565b61025561163a565b1680156102aa57815473ffffffffffffffffffffffffffffffffffffffff198116821783556001600160a01b03167f8be0079c531659141344cd1fd0a4f28419497f9722a3daafe3b4186f6b6457e08380a380f35b631e4fbdf760e01b82526004829052602482fd5b50346101ed57806003193601126101ed5760405180602060055491828152018091600585527f036b6384b5eca791c62761152d0c79bb0604c104a5fb6f4eb0703f3154bb3db090855b818110610367575050508261031d910383611034565b604051928392602084019060208552518091526040840192915b818110610345575050500390f35b82516001600160a01b0316845285945060209384019390920191600101610337565b82546001600160a01b0316845260209093019260019283019201610307565b50346101ed57806003193601126101ed5760206040516127108152f35b50346101ed57806003193601126101ed576020600554604051908152f35b50346101ed57806003193601126101ed576020600154604051908152f35b50346101ed57806003193601126101ed5760206001600160a01b0360045416604051908152f35b50346101ed57806003193601126101ed5760206040517f64ed6499e2f5a7ea55dfd56da361bf9d48064843bb3891c36f1dabd9ba2461358152f35b50346101ed5760203660031901126101ed57600435906005548210156104845760206001600160a01b036104748461128c565b90549060031b1c16604051908152f35b634e23d03560e01b8152600490fd5b50346101ed57806003193601126101ed5760206040516001600160a01b037f0000000000000000000000000000000000000000000000000000000000000000168152f35b50346101ed57806003193601126101ed576001600160a01b036020915416604051908152f35b50346101ed57806003193601126101ed576020600354604051908152f35b50346101ed57806003193601126101ed5761053461163a565b806001600160a01b038154811981168355167f8be0079c531659141344cd1fd0a4f28419497f9722a3daafe3b4186f6b6457e08280a380f35b50346101ed57806003193601126101ed5760206001600160a01b0360025416604051908152f35b50346101ed5760203660031901126101ed57600435906005548210156101ed5760206001600160a01b036104748461128c565b50346101ed57806003193601126101ed5760206040516001600160a01b037f0000000000000000000000000000000000000000000000000000000000000000168152f35b50346101ed5760203660031901126101ed5761062561106d565b6001600160a01b0316815260066020526040902080808054600182015460e05260028201546003830154600484015460058501546006860154600787015490600888015492600989015494600a8a015496600b8b015498600c8c01549a600d8d01549c600e01549d600f01549e6010810154608052601101546001600160a01b031660c05260405160a05260a0515260e05160a0516020015260a0516040015260a0516060015260a0516080015260a05160a0015260a05160c0015260a05160e0015260a051610100015260a051610120015260a051610140015260a051610160015260a051610180015260a0516101a0015260a0516101c001526001600160a01b03811660a0516101e0015260a051610200019060a01c60ff169061074a9161118a565b60805160a051610220015260c05160a051610240015260a05161026090f35b50346101ed57806003193601126101ed5761078261163a565b4780156108395781808080936001600160a01b038254165af13d15610834573d67ffffffffffffffff811161082057604051906107c9601f8201601f191660200183611034565b81528260203d92013e5b156107db5780f35b60405162461bcd60e51b815260206004820152601960248201527f45544820666565207769746864726177616c206661696c6564000000000000006044820152606490fd5b634e487b7160e01b83526041600452602483fd5b6107d3565b60405162461bcd60e51b815260206004820152601360248201527f4e6f206665657320746f207769746864726177000000000000000000000000006044820152606490fd5b50346101ed5760403660031901126101ed576004359061089c611083565b6108a461163a565b6101f48311610939576001600160a01b03811692831580610930575b610921577f7f2d9545e28909b66063433f41db88f48e1a8d0217e0f2d0991e0a02e33ebdae9293816003556001600160a01b031960045416176004556101cc604051928392839092916001600160a01b036020916040840195845216910152565b6362c9b89160e11b8352600483fd5b508015156108c0565b6362c9b89160e11b8252600482fd5b50346101ed576102803660031901126101ed5761096436611099565b906001600160a01b03610975611056565b168015610ab65760208301928351158015610aaa575b8015610a9e575b610a8f57600460206109b16001600160a01b036101e0850151166115c0565b936040519283809263313ce56760e01b82525afa908115610a8457610a0c849360c0612710610a23610a16610a2d99610a118d6109fd610a119b8f9b610a0c9c91610a55575b506114f0565b998a915160a08a015190611501565b611501565b611514565b9a5160e085015190611501565b0491015190611501565b8201809211610a4157602082604051908152f35b634e487b7160e01b81526011600452602490fd5b610a77915060203d602011610a7d575b610a6f8183611034565b8101906114d7565b5f6109f7565b503d610a65565b6040513d86823e3d90fd5b63269ae9a360e01b8352600483fd5b5060c081015115610992565b5060a08101511561098b565b63d92e233d60e01b8252600482fd5b50346101ed5760203660031901126101ed57610260610aea610ae561106d565b6112cc565b610af760405180926111ab565bf35b506102c0366003190112610f2b57610b1036611099565b90610b19611056565b61028435926001600160a01b038416809403610f2b576102a435936001600160a01b038516809503610f2b576001548015611001576002546001600160a01b03169081610fd1575050600154803410610fc257803411610f7d575b505b6001600160a01b037f000000000000000000000000000000000000000000000000000000000000000016906001600160a01b037f00000000000000000000000000000000000000000000000000000000000000001693600354916001600160a01b0360045416926040519361437b918286019286841067ffffffffffffffff851117610f69576103809587956001600160a01b039261166188398552169a8b60208501526040840152610c2c60608401896111ab565b336102c0840152866102e084015288610300840152610320830152610340820152306103608201520301905ff08015610f5e576001600160a01b031692610c768351853389611532565b60405163027b704760e31b81526020816004815f895af18015610f5e57610f2f575b50803b15610f2b575f8091604460405180948193632f2ff15d60e01b83527f64ed6499e2f5a7ea55dfd56da361bf9d48064843bb3891c36f1dabd9ba24613560048401528960248401525af19081610f16575b50610cff576323266a9d60e01b8452600484fd5b803b15610f125783808092604460405180958193632f2ff15d60e01b83527faf9a8bb3cbd6b84fbccefa71ff73e26e798553c6914585a84886212a46a9027960048401528960248401525af19182610efd575b5050610d67576323266a9d60e01b8352600483fd5b60055468010000000000000000811015610ee957936001600160a01b0361024061026093610d9d88600160209a0160055561128c565b81549060031b908589831b921b19161790556101208101938451908761014084019283516040519182528c8201527fdf058c371fcd1a975a9f8b29fb3823e0f4fcc990e97f681cca2bfe085eae91d960403392a46040519482518652898301518a87015260408301516040870152606083015160608701526080830151608087015260a083015160a087015260c083015160c087015260e083015160e087015261010083015161010087015251610120860152516101408501526101608101516101608501526101808101516101808501526101a08101516101a08501526101c08101516101c0850152826101e0820151166101e0850152610ea8610200850161020083015161118a565b610220810151610220850152015116610240820152207fc272bd4cec71bc1976c5adac5ebd9987e476359e1fa0041907090d8c4c4025786040519380a28152f35b634e487b7160e01b84526041600452602484fd5b81610f0791611034565b610f1257835f610d52565b8380fd5b610f239195505f90611034565b5f935f610ceb565b5f80fd5b6020813d602011610f56575b81610f4860209383611034565b81010312610f2b5751610c98565b3d9150610f3b565b6040513d5f823e3d90fd5b634e487b7160e01b5f52604160045260245ffd5b80340390348211610fae575f808093819382903414610fa5575b3390f115610f5e575f610b74565b506108fc610f97565b634e487b7160e01b5f52601160045260245ffd5b63f0e492a360e01b5f5260045ffd5b34610ff257610fed916001600160a01b035f5416903390611532565b610b76565b63369276d760e11b5f5260045ffd5b503415610b765763369276d760e11b5f5260045ffd5b610260810190811067ffffffffffffffff821117610f6957604052565b90601f8019910116810190811067ffffffffffffffff821117610f6957604052565b61026435906001600160a01b0382168203610f2b57565b600435906001600160a01b0382168203610f2b57565b602435906001600160a01b0382168203610f2b57565b610260906003190112610f2b57604051906110b382611017565b816004358152602435602082015260443560408201526064356060820152608435608082015260a43560a082015260c43560c082015260e43560e082015261010435610100820152610124356101208201526101443561014082015261016435610160820152610184356101808201526101a4356101a08201526101c4356101c08201526101e4356001600160a01b0381168103610f2b576101e0820152610204356003811015610f2b576102008201526102243561022082015261024435906001600160a01b0382168203610f2b576102400152565b9060038210156111975752565b634e487b7160e01b5f52602160045260245ffd5b6001600160a01b036102408092805185526020810151602086015260408101516040860152606081015160608601526080810151608086015260a081015160a086015260c081015160c086015260e081015160e08601526101008101516101008601526101208101516101208601526101408101516101408601526101608101516101608601526101808101516101808601526101a08101516101a08601526101c08101516101c0860152826101e0820151166101e086015261127861020082015161020087019061118a565b610220810151610220860152015116910152565b6005548110156112a45760055f5260205f2001905f90565b634e487b7160e01b5f52603260045260245ffd5b51906001600160a01b0382168203610f2b57565b6040516112d881611017565b5f81525f60208201525f60408201525f60608201525f60808201525f60a08201525f60c08201525f60e08201525f6101008201525f6101208201525f6101408201525f6101608201525f6101808201525f6101a08201525f6101c08201525f6101e08201525f6102008201525f6102208201525f6102408201525063ffffffff813b16156114c8576102606001600160a01b039160046040518094819363661770cb60e11b8352165afa5f91816113a1575b5061139e57631aecebf760e01b5f5260045ffd5b90565b909150610260813d82116114c0575b816113be6102609383611034565b81010312610f2b57604051906113d382611017565b805182526020810151602083015260408101516040830152606081015160608301526080810151608083015260a081015160a083015260c081015160c083015260e081015160e08301526101008101516101008301526101208101516101208301526101408101516101408301526101608101516101608301526101808101516101808301526101a08101516101a08301526101c08101516101c083015261147e6101e082016112b8565b6101e08301526102008101516003811015610f2b576114b39161024091610200850152610220810151610220850152016112b8565b610240820152905f61138a565b3d91506113b0565b631aecebf760e01b5f5260045ffd5b90816020910312610f2b575160ff81168103610f2b5790565b60ff16604d8111610fae57600a0a90565b81810292918115918404141715610fae57565b811561151e570490565b634e487b7160e01b5f52601260045260245ffd5b92906020925f926001600160a01b036040519281878501956323b872dd60e01b8752166024850152166044830152606482015260648152611574608482611034565b519082855af115610f5e575f513d6115b757506001600160a01b0381163b155b61159b5750565b6001600160a01b0390635274afe760e01b5f521660045260245ffd5b60011415611594565b6001600160a01b0316801561162d5760206004916040519283809263313ce56760e01b82525afa5f918161160c575b5061160357631da50fef60e01b5f5260045ffd5b61139e906114f0565b61162691925060203d602011610a7d57610a6f8183611034565b905f6115ef565b50670de0b6b3a764000090565b6001600160a01b035f5416330361164d57565b63118cdaa760e01b5f523360045260245ffdfe6101c0604052346107815761437b803803809161001e826101c0610965565b6101c0396103808112610781576100366101c0610988565b6100416101e0610988565b61026061004f610200610988565b93605f190112610781576040519261026084016001600160401b0381118582101761093e57604090815261022051855261024051602086015261026051908501526102805160608501526102a05160808501526102c05160a08501526102e05160c08501526103005160e0850152610320516101008501526103405161012085015261036051610140850152610380516101608501526103a0516101808501526103c0516101a08501526103e0516101c085015261010e610400610988565b6101e0850152610420516003811015610781576102008501526104405161022085015261013c610460610988565b61024085015261014d610480610988565b926101596104a0610988565b6101646104c0610988565b6104e05190610174610500610988565b92610180610520610988565b60015f55946001600160a01b0389161561095257600180546001600160a01b038b81166001600160a01b031983168117909355167f8be0079c531659141344cd1fd0a4f28419497f9722a3daafe3b4186f6b6457e05f80a3601b546801000000000000000081101561093e578060016101fe9201601b55601b61099c565b81549060031b90611388821b915f19901b1916179055601b546801000000000000000081101561093e5780600161023a9201601b55601b61099c565b81549060031b90611770821b915f19901b1916179055601b546801000000000000000081101561093e578060016102769201601b55601b61099c565b81549060031b90611b58821b915f19901b1916179055601b546801000000000000000081101561093e578060016102b29201601b55601b61099c565b81549060031b90611f40821b915f19901b1916179055601b546801000000000000000081101561093e578060016102ee9201601b55601b61099c565b81549060031b90612328821b915f19901b1916179055601b546801000000000000000081101561093e5780600161032a9201601b55601b61099c565b81545f1960039290921b91821b191661271090911b1790556001600160a01b03811615801561092d575b801561091c575b6108fc576001600160a01b03821615801561090b575b6108fc5760026101c08b0151116108ed576101f484116108d5576001600160a01b03851615806108e4575b6108d55760208a015180159081156108c8575b81156108ba575b506108ab5760808a0151801590811561089e575b811561088f575b8115610881575b506108725760a08a01518015908115610865575b8115610856575b50610847576101208a0151428110908115610837575b50610828576101808a0151612710811190811561080b575b506107fc576102008a0151600381101561079857600114806107ef575b6107e0576102008a0151600381101561079857600214806107ca575b6107bb5761046b60e08b01516109c5565b156107ac576101a09081526001600160a01b0388811661014090815288821661016090815293821660a090815294821660c090815260e09687526101009788528c5160055560208d015160065560408d015160075560608d015160085560808d0151600955948c0151600a55938b0151600b55938a0151600c5593890151600d55610120890151600e5590880151600f55870151601055610180870151601155908601516012556101c08601516013556101e0860151601480546001600160a01b031916919092161790556102008501516003811015610798576014805460ff60a01b191660a09290921b60ff60a01b16919091179055610220850151601555610240850151601680546001600160a01b0319166001600160a01b0392909216919091179055610120526017805460ff19169055610200840151600381101561079857151560805260405163c45a015560e01b815290602090829060049082906001600160a01b03165afa90811561078d575f9161074f575b5061018052610140610120840151930151604051938452602084015260018060a01b0316917fdf058c371fcd1a975a9f8b29fb3823e0f4fcc990e97f681cca2bfe085eae91d96040309360018060a01b031692a46040516139589081610a23823960805181611298015260a051818181610eca0152611b9a015260c051818181611110015281816113e00152613322015260e0518181816116bf01526121cc015261010051818181610975015261179e015261012051818181610f0e015261242801526101405181818161066e0152818161086901528181610a9b015281816114140152818161151d01528181611616015281816124c101528181612baa01528181612ef6015261316a015261016051818181610e3801526119a6015261018051818181610b620152818161183a015281816125070152612c8e01526101a0518181816117f0015281816118e8015281816122460152818161248a01528181612c310152612d170152f35b90506020813d602011610785575b8161076a60209383610965565b810103126107815761077b90610988565b5f6105e4565b5f80fd5b3d915061075d565b6040513d5f823e3d90fd5b634e487b7160e01b5f52602160045260245ffd5b6304b0a71d60e31b5f5260045ffd5b633ab4448b60e01b5f5260045ffd5b506102408a01516001600160a01b03161561045a565b639dd854d360e01b5f5260045ffd5b506102208a01511561043e565b6329a8bc8760e11b5f5260045ffd5b905015158061081b575b5f610421565b506101a08a015115610815565b63d22806e360e01b5f5260045ffd5b90506101408b015111155f610409565b63d1107a7960e01b5f5260045ffd5b905060c08b015110155f6103f3565b60c08c01511591506103ec565b63dcac5ed360e01b5f5260045ffd5b905060208b0151105f6103d8565b80915060608c015111906103d1565b60608c01511591506103ca565b63269ae9a360e01b5f5260045ffd5b905060408b0151115f6103b6565b60408c01511591506103af565b6362c9b89160e11b5f5260045ffd5b5083151561039c565b635ff75f6f60e11b5f5260045ffd5b63f92ee8a960e01b5f5260045ffd5b506001600160a01b03831615610371565b506001600160a01b0387161561035b565b506001600160a01b03881615610354565b634e487b7160e01b5f52604160045260245ffd5b631e4fbdf760e01b5f525f60045260245ffd5b601f909101601f19168101906001600160401b0382119082101761093e57604052565b51906001600160a01b038216820361078157565b80548210156109b1575f5260205f2001905f90565b634e487b7160e01b5f52603260045260245ffd5b601b5490815f5b8381106109db57505050505f90565b818110156109b157601b5f527f3ad8aa4f87544323a9d1e5dd902f40c356527a7955687113db5f9a85ad579dc18101548314610a19576001016109cc565b5050505060019056fe60a06040526004361015610408575b3615610018575f80fd5b610020612f74565b60ff600354166103f95760ff6017541660048110156103aa57600181036103e757600e54421080156103dc575b6103cd5733156103be5760145460ff8160a01c1660038110156103aa5760018103610304575060155460405160208101906bffffffffffffffffffffffff193360601b168252601481526100a2603482612a7c565b5190205f905b6060518210156100e95760808260051b0151908181105f146100d8575f52602052600160405f205b9101906100a8565b905f52602052600160405f206100d0565b9050036102f5576001600160a01b03905b161580156102cb5734156102bc575b80156102b55734905b601f54916101208184612abd565b600654106102a65760085481106102975761014790335f52601860205260405f2054612abd565b60095410610288571561027d5761015f348092612abd565b601f5561016e81600254612abd565b600255335f52601960205260ff60405f20541615610210575b335f52601860205260405f2061019e828254612abd565b90556040518181527f2499a5330ab0979cc612135e7883ebc3cd5c9f7a8508f042540c34723348f63260203392a26001600160a01b03601454161560405191825260208201527f08ce00466abd322339ad31e43307a70a872f8c32a13d8b24ed85948ba75ed1b360403392a260015f55005b335f52601960205260405f20600160ff19825416179055601a54680100000000000000008110156102695780600161024b9201601a55612799565b81549060031b906001600160a01b0333831b921b1916179055610187565b634e487b7160e01b5f52604160045260245ffd5b61015f348092612abd565b639f256db560e01b5f5260045ffd5b632afb507160e21b5f5260045ffd5b631c4af3c960e11b5f5260045ffd5b3490610112565b631f2a200560e01b5f5260045ffd5b341580156102e7571561010957631f2a200560e01b5f5260045ffd5b6248c6b960e61b5f5260045ffd5b630b094f2760e31b5f5260045ffd5b60021461031a575b6001600160a01b03906100fa565b602460206001600160a01b0360165416604051928380926370a0823160e01b82523360048301525afa5f9181610372575b5061035f5763457b8b9360e11b5f5260045ffd5b61030c5763e9e7bfc360e01b5f5260045ffd5b9091506020813d6020116103a2575b8161038e60209383612a7c565b8101031261039e5751908361034b565b5f80fd5b3d9150610381565b634e487b7160e01b5f52602160045260245ffd5b63bc02ea9360e01b5f5260045ffd5b6338e102f160e21b5f5260045ffd5b50600f54421161004d565b63683f44bb60e11b5f5260045260245ffd5b63ab35696f60e01b5f5260045ffd5b5f5f3560e01c80631069143a1461268557806313db82381461240e57806318e4274d146123f157806321eff7fc146121ef578063253da8bd146123d457806331f684c0146123b75780633ba86c441461239b5780633cb5d1001461235a5780633ccfd60b146122cb5780633f4ba83a1461226a5780633fc8cef31461222757806342e94c90146121ef57806349d2e277146121b55780634bb278f3146115905780634e71d92d146112bd57806351fb012d14611280578063590e1ae3146111575780635c975abb146111345780635e6f6045146110f0578063715018a61461109c5780637abbc1501461100b5780637cb6475914610ff657806380e3f1ad14610fdc5780638456cb5914610f775780638da5cb5b14610f5057806391a9207b14610f3257806395691a6d14610eee5780639759164a14610eaa5780639e1a4d1914610e8c578063a0e7f79a14610e5c578063a7c6402c14610e18578063af157c1914610d50578063af1ad48b14610c6e578063aff177ca14610c2e578063b57b92a514610c10578063bedcf00314610bf2578063c19d93fb14610bb2578063c1d41e9514610b86578063c45a015514610b42578063c5c4744c14610b24578063cc2ee196146109b5578063cea9d26f146109ba578063d02c880a146109b5578063d0e30db014610999578063d7cee31e14610955578063e1f1c4a714610938578063ea4a9c851461090f578063ea8a1af0146107b1578063ed498fa814610785578063f2fde38b14610704578063f7bdc4f7146106955763fc0c546a1461064f575061000e565b3461069257806003193601126106925760206040516001600160a01b037f0000000000000000000000000000000000000000000000000000000000000000168152f35b80fd5b5060203660031901126106925760043567ffffffffffffffff8111610700576106c29036906004016127e3565b6106ca612f74565b60ff600354166106f1576106ea916106e3913691612e06565b3433613467565b6001815580f35b63ab35696f60e01b8352600483fd5b5080fd5b5034610692576020366003190112610692576001600160a01b03610726612783565b61072e612f92565b168015610771576001600160a01b03600154828219821617600155167f8be0079c531659141344cd1fd0a4f28419497f9722a3daafe3b4186f6b6457e08380a380f35b631e4fbdf760e01b82526004829052602482fd5b50346106925760203660031901126106925760206107a96107a4612783565b612eb9565b604051908152f35b50346106925780600319360112610692576107ca612f74565b6107d2612f92565b60ff600354166109005760ff601754169060048210156108ec57600182148015906108e0575b80156108d2575b6108c0576017805460ff19166002179055601c546001919080610856575b506040514281527f27f83af92b39768b17fe0c8d6922452702717efb8626d97e7a754e0b27d4f6d260203392a255602060405160018152f35b81601c5561088e81336001600160a01b037f0000000000000000000000000000000000000000000000000000000000000000166137be565b6040519081527fbf95d20e2a316bd9c3e2efd35653a948438013277330af4b3fee49455a0e637260203392a28261081d565b60249163683f44bb60e11b8252600452fd5b50601f5460075411156107ff565b50600f544211156107f8565b634e487b7160e01b81526021600452602490fd5b63ab35696f60e01b8152600490fd5b503461069257602036600319011261069257602061092e600435612e5c565b6040519015158152f35b503461069257806003193601126106925760206040516127108152f35b503461069257806003193601126106925760206040516001600160a01b037f0000000000000000000000000000000000000000000000000000000000000000168152f35b5034610692578060031936011261069257602090604051908152f35b612814565b5034610692576060366003190112610692576109d4612783565b6024356001600160a01b03811691828203610b2057604435906109f5612f92565b8315610b115760ff60175416600481101580610afd57600382149182159081610aee575b50610adf57610acb5780610a90575b80610a84575b610a755781610a6b7f77023e19c7343ad491fd706c36335ca0e738340a91f29b1fd81e2673d44896c4936001600160a01b036020941695866137be565b604051908152a380f35b63d64d4b7160e01b8552600485fd5b50602054421115610a2e565b506001600160a01b037f0000000000000000000000000000000000000000000000000000000000000000166001600160a01b03821614610a28565b634e487b7160e01b86526021600452602486fd5b63662fcd5d60e01b8752600487fd5b9150506002879114155f610a19565b634e487b7160e01b87526021600452602487fd5b63e6c4247b60e01b8552600485fd5b8380fd5b50346106925780600319360112610692576020601f54604051908152f35b503461069257806003193601126106925760206040516001600160a01b037f0000000000000000000000000000000000000000000000000000000000000000168152f35b503461069257806003193601126106925760206107a9610ba4612f46565b610bac612f55565b90612abd565b503461069257806003193601126106925760ff60175416604051906004811015610bde57602092508152f35b634e487b7160e01b83526021600452602483fd5b50346106925780600319360112610692576020600454604051908152f35b50346106925780600319360112610692576020601e54604051908152f35b50346106925760403660031901126106925760043567ffffffffffffffff811161070057610c609036906004016127e3565b5050610c6a6127d4565b5080f35b50346106925760403660031901126106925760043560243567ffffffffffffffff8111610d4c57610ca39036906004016127e3565b610cab612f74565b60ff60035416610d3d576001600160a01b03601454168015610d2e578315610d1f5791610d1891610d116106ea9594604051906323b872dd60e01b602083015233602483015230604483015286606483015260648252610d0c608483612a7c565b6138ce565b3691612e06565b9033613467565b631f2a200560e01b8552600485fd5b6306a39ded60e41b8552600485fd5b63ab35696f60e01b8452600484fd5b8280fd5b5034610692578060031936011261069257604051806020601a5491828152018091601a85527f057c384a7d1c54f3a1b2e5e67b2617b8224fdfd1ea7234eea573a6ff665ff63e90855b818110610df95750505082610daf910383612a7c565b604051928392602084019060208552518091526040840192915b818110610dd7575050500390f35b82516001600160a01b0316845285945060209384019390920191600101610dc9565b82546001600160a01b0316845260209093019260019283019201610d99565b503461069257806003193601126106925760206040516001600160a01b037f0000000000000000000000000000000000000000000000000000000000000000168152f35b50346106925780600319360112610692576060610e77612b7c565b90604051921515835260208301526040820152f35b50346106925780600319360112610692576020601c54604051908152f35b503461069257806003193601126106925760206040516001600160a01b037f0000000000000000000000000000000000000000000000000000000000000000168152f35b503461069257806003193601126106925760206040516001600160a01b037f0000000000000000000000000000000000000000000000000000000000000000168152f35b50346106925780600319360112610692576020600254604051908152f35b503461069257806003193601126106925760206001600160a01b0360015416604051908152f35b5034610692578060031936011261069257610f90612f92565b60035460ff8116610fcd5760ff1916600117600355337f62e78cea01bee320cd4e420270b5ea74000d11b0c9f74754ebdbfc544b05a2588280a280f35b631785c68160e01b8252600482fd5b503461069257602036600319011261069257610c6a6127c5565b50346106925760203660031901126106925780f35b503461069257602036600319011261069257600435611028612f92565b60ff601754166004811015610bde576003810361108a575060205481111561107b576020817ff1178b3c495407dc107b27908c56bee4f47c0295055c88d6110c026737fd2eb3928255604051908152a180f35b631da7447960e21b8252600482fd5b63683f44bb60e11b8352600452602482fd5b50346106925780600319360112610692576110b5612f92565b806001600160a01b0360015481198116600155167f8be0079c531659141344cd1fd0a4f28419497f9722a3daafe3b4186f6b6457e08280a380f35b503461069257806003193601126106925760206040516001600160a01b037f0000000000000000000000000000000000000000000000000000000000000000168152f35b5034610692578060031936011261069257602060ff600354166040519015158152f35b5034610692578060031936011261069257611170612f74565b60ff60175416600481101561126c576002811490811561123d575b501561122e5733815260186020526040812054801561121f576001602092338152601884528060408120558260025410155f14611216576111ce83600254612b25565b6002555b6111dc8333612fb9565b60405183815242858201527f73f04af9dcc582a923ec15d3eea990fe34adabfff2879e28d44572e01a54abb660403392a255604051908152f35b806002556111d2565b634625bdf760e01b8252600482fd5b631ba168fb60e11b8152600490fd5b600191501480611261575b80611254575b5f61118b565b50601f546007541161124e565b50600f544211611248565b634e487b7160e01b82526021600452602482fd5b503461069257806003193601126106925760206040517f000000000000000000000000000000000000000000000000000000000000000015158152f35b50346106925780600319360112610692576112d6612f74565b60ff600354166109005760ff60175416600481101561126c576003810361157e5750602054421161156f5761130a33612eb9565b8015611561573382526018602052816040812055601c54818110611552578161133291612b25565b601c5561133d61310d565b8181526011546020820181905280156115485761271061135f60609285612aca565b04915b61137460408201938085528251612b25565b91829101528061150e575b50805190816113c9575b60208360018660405183815242858201527f30c2341ba3f2142e78472f07dcf018a42044ae1c2c2e7ce867b327257f07ef2b60403392a255604051908152f35b60405163095ea7b360e01b81526001600160a01b037f0000000000000000000000000000000000000000000000000000000000000000811660048301819052602483019490945285927f00000000000000000000000000000000000000000000000000000000000000009091169160208160448187875af18015611503576114d6575b50519260125491813b15610b2057604051631bc6452160e31b81523060048201523360248201526001600160a01b03919091166044820152606481019490945242608485015260a4840191909152829060c490829084905af180156114cb576114b6575b80611389565b6114c1838092612a7c565b610700575f6114b0565b6040513d85823e3d90fd5b6114f79060203d6020116114fc575b6114ef8183612a7c565b8101906130f5565b61144c565b503d6114e5565b6040513d86823e3d90fd5b61154290336001600160a01b037f0000000000000000000000000000000000000000000000000000000000000000166137be565b5f61137f565b5060608391611362565b637222ae5760e11b8352600483fd5b62f3f86160e41b8252600482fd5b632253b77960e01b8152600490fd5b63683f44bb60e11b8252600452602490fd5b503461039e575f36600319011261039e576115a9612f74565b6115b1612f92565b60ff600354166103f95760ff6017541660048110156103aa57600181036103e75750600f544211156121a657601f5460075411612197576127106115fa601f54600c5490612aca565b04611607600b5482612aca565b60405163313ce56760e01b81527f00000000000000000000000000000000000000000000000000000000000000006001600160a01b03169291602082600481875afa908115611cf65761166861166e9261167c945f91611fca575b50612af6565b90612aca565b611676613078565b90612b07565b811515925f91848061218e575b61214f575b50600360ff196017541617601755811515938461213b575b601f54946116ec6116b78688612b25565b6127106116e57f0000000000000000000000000000000000000000000000000000000000000000809a612aca565b0490612b25565b60045562ed4e004201804211611d905760205581612133575b506117d6575b50505090612710611720600193601f54612aca565b0480611771575b50611730613142565b601f546040519081524260208201527f616c9469db50815ae0f1d0a020d9fc9060da7c57f03559afb0d4ebdaa0a3a05e60403392a255602060405160018152f35b7f0f5237766fb8b2313e23d359023b2fe32aa11ff9048495b861341a994d9114bc60206001600160a01b037f00000000000000000000000000000000000000000000000000000000000000006117c78582612fb9565b6040519485521692a25f611727565b8192806001600160a01b036014541680155f1461212e57507f00000000000000000000000000000000000000000000000000000000000000005b60405163e6a4390560e01b81526001600160a01b03858116600483015282811660248301529091907f000000000000000000000000000000000000000000000000000000000000000016602083604481845afa928315611cf6575f9361210d575b506001600160a01b0383161561205b575b50506001600160a01b031693841561204c57604051630240bc6b60e21b8152606081600481895afa908115611cf6575f905f9261200d575b506001600160701b038091169116906001600160a01b036014541680155f14611fff57506001600160a01b037f00000000000000000000000000000000000000000000000000000000000000005b16861015611ff95790915b81611f5b575b50505050600d5461271003936127108511611d90576127106119478161193f8885612aca565b049684612aca565b04946040519560c087019387851067ffffffffffffffff8611176102695760409485528752602080880184815288860193845260608901928352608089019788525f60a08a01818152965163095ea7b360e01b81526001600160a01b037f000000000000000000000000000000000000000000000000000000000000000016600482018190526024820197909752969991939290879060449082908b5af1958615611cf657602496611f3e575b5060206001600160a01b03895116604051978880926370a0823160e01b82523060048301525afa958615611cf6575f96611f0a575b506014546001600160a01b031680611da457505191519251905192610258420190814211611d905760609360c492604051968795869463f305d71960e01b86528c600487015260248601526044850152606484015230608484015260a4830152865af19081611d61575b50611aee57611aa0613815565b6308c379a014611aba575b6376d097f360e11b5f5260045ffd5b611ac2613830565b80611acd5750611aab565b604051633c10bbab60e11b8152908190611aea90600483016138a4565b0390fd5b5f9260446020925b604051958693849263095ea7b360e01b845260048401528160248401525af1918215611cf657602492611d44575b5060206001600160a01b03845116604051938480926370a0823160e01b82523060048301525afa8015611cf6575f90611d10575b611b629250612b25565b80835215611d01576001600160a01b039051169051611b8360105442612abd565b60405163095ea7b360e01b81526001600160a01b037f0000000000000000000000000000000000000000000000000000000000000000166004820181905260248201849052906020816044815f895af18015611cf657611cd9575b506001600160a01b0360015416813b1561039e575f9160848392604051948593849263042964f560e11b84528a600485015289602485015288604485015260648401525af19081611cc4575b50611c825784611c38613815565b6308c379a014611c52575b63a14cffc560e01b8152600490fd5b611c5a613830565b80611c655750611c43565b604051630822993160e31b8152908190611aea90600483016138a4565b92612710927fac1d76749e5447b7b16f5ab61447e1bd502f3bb4807af3b28e620d1700a6ee456040611720946001989782519182526020820152a2929361170b565b611cd19196505f90612a7c565b5f945f611c2a565b611cf19060203d6020116114fc576114ef8183612a7c565b611bde565b6040513d5f823e3d90fd5b630bdc07d160e21b5f5260045ffd5b506020823d602011611d3c575b81611d2a60209383612a7c565b8101031261039e57611b629151611b58565b3d9150611d1d565b611d5c9060203d6020116114fc576114ef8183612a7c565b611b24565b611d829060603d606011611d89575b611d7a8183612a7c565b8101906137fa565b5050611a93565b503d611d70565b634e487b7160e01b5f52601160045260245ffd5b815160405163095ea7b360e01b81526001600160a01b038816600482015260248101919091529597959394919391929190602090829060449082905f905af18015611cf657611eed575b506001600160a01b0360145416935192519151905191610258420193844211611d90576040519562e8e33760e81b8752876004880152602487015260448601526064850152608484015260a48301523060c483015260e4820152606081610104815f885af19081611ece575b50611e6757611aa0613815565b5f9060206001600160a01b036014541660446040518095819363095ea7b360e01b83528960048401528160248401525af18015611cf6575f94602093604492611eb1575b50611af6565b611ec790853d87116114fc576114ef8183612a7c565b505f611eab565b611ee69060603d606011611d8957611d7a8183612a7c565b5050611e5a565b611f059060203d6020116114fc576114ef8183612a7c565b611dee565b9095506020813d602011611f36575b81611f2660209383612a7c565b8101031261039e5751945f611a29565b3d9150611f19565b611f569060203d6020116114fc576114ef8183612a7c565b6119f4565b611f6d92611f6891612aca565b612b07565b809111611f7d575b808080611919565b600b54909450611f8e915084612aca565b60405163313ce56760e01b815290602082600481865afa908115611cf65761166861166e92611fc3945f91611fca5750612af6565b925f611f75565b611fec915060203d602011611ff2575b611fe48183612a7c565b810190612add565b5f611662565b503d611fda565b91611913565b6001600160a01b0390611908565b6001600160701b03925082915061203b9060603d606011612045575b6120338183612a7c565b810190612b46565b50929091506118ba565b503d612029565b63284dbaed60e01b5f5260045ffd5b6040516364e329cb60e11b81526001600160a01b0387811660048301528316602482015291989597959694939250602090829060449082905f905af15f91816120dc575b506120c4576001600160a01b038888634fe1e92b60e11b5f526004521660245260445ffd5b6001600160a01b03919293959750959395905f611882565b6120ff91925060203d602011612106575b6120f78183612a7c565b810190612a9e565b905f61209f565b503d6120ed565b61212791935060203d602011612106576120f78183612a7c565b915f611871565b611810565b90505f611705565b61214783601c54612b25565b601c556116a6565b601e54919250818111156121865750905b81601c54818110612171575061168e565b6310b540af60e21b5f5260045260245260445ffd5b905090612160565b50801515611689565b632bdc91ad60e01b5f5260045ffd5b63dfc7e2e560e01b5f5260045ffd5b3461039e575f36600319011261039e5760206040517f00000000000000000000000000000000000000000000000000000000000000008152f35b3461039e57602036600319011261039e576001600160a01b03612210612783565b165f526018602052602060405f2054604051908152f35b3461039e575f36600319011261039e5760206040516001600160a01b037f0000000000000000000000000000000000000000000000000000000000000000168152f35b3461039e575f36600319011261039e57612282612f92565b60035460ff8116156122bc5760ff1916600355337f5db9ee0a495bf2e6ff9c91a7834c1ba4fdd244a5e8aa4e537bd38aeae4b073aa5f80a2005b636cd6020160e01b5f5260045ffd5b3461039e575f36600319011261039e576122e3612f74565b6122eb612f92565b60ff6017541660048110156103aa57600381036103e757600454801561234b575f6004556123198133612fb9565b6040519081527f7084f5476618d8e60b11ef0d7d3f06914655adb8793e28ff7f018d4c76d505d560203392a260015f55005b6367e3990d60e01b5f5260045ffd5b3461039e57602036600319011261039e57600435601a5481101561039e576001600160a01b0361238b602092612799565b90549060031b1c16604051908152f35b3461039e575f36600319011261039e5760208054604051908152f35b3461039e575f36600319011261039e576020601d54604051908152f35b3461039e575f36600319011261039e576020601a54604051908152f35b3461039e575f36600319011261039e576020601f54604051908152f35b3461039e575f36600319011261039e576001600160a01b037f00000000000000000000000000000000000000000000000000000000000000001633036126765760ff600354166103f95760ff6017541660048110156103aa57806103e757600e544210156103cd576014546001600160a01b03168061267157507f00000000000000000000000000000000000000000000000000000000000000005b60405163e6a4390560e01b81526001600160a01b037f000000000000000000000000000000000000000000000000000000000000000081166004830181905290831660248301529190602081806044810103816001600160a01b037f0000000000000000000000000000000000000000000000000000000000000000165afa8015611cf6576001600160a01b03915f91612652575b5016612633576040516370a0823160e01b8152306004820152602081602481865afa908115611cf6575f91612601575b5080156102bc57612597612581612f46565b80601d5561258d612f55565b9081601e55612abd565b908181106125ec5780602091601c55600160ff19601754161760175560405181815242838201527f90890809c654f11d6e72a28fa60149770a0d11ec6c92319d6ceb2bb0a4ea1a1560403392a2604051908152f35b630d25268d60e01b5f5260045260245260445ffd5b90506020813d60201161262b575b8161261c60209383612a7c565b8101031261039e57518161256f565b3d915061260f565b6001600160a01b0391631c1a784960e21b5f526004521660245260445ffd5b61266b915060203d602011612106576120f78183612a7c565b8461253f565b6124aa565b631966391b60e11b5f5260045ffd5b3461039e575f36600319011261039e57600554608052600654600754600854600954600a54600b54600c54600d54600e54600f5491601054936011549560125497601354996014549b6015549d6016546001600160a01b03169f60805160a05260a06020015260a06040015260a06060015260a06080015260a080015260a060c0015260a060e0015260a0610100015260a0610120015260a0610140015260a0610160015260a0610180015260a06101a0015260a06101c001526001600160a01b03811660a06101e0015260a0610200019060a01c60ff169061276791612776565b6102c0526102e05261026060a0f35b9060038210156103aa5752565b600435906001600160a01b038216820361039e57565b601a548110156127b157601a5f5260205f2001905f90565b634e487b7160e01b5f52603260045260245ffd5b60043590811515820361039e57565b60243590811515820361039e57565b9181601f8401121561039e5782359167ffffffffffffffff831161039e576020808501948460051b01011161039e57565b3461039e575f36600319011261039e575f61024060405161283481612a5f565b8281528260208201528260408201528260608201528260808201528260a08201528260c08201528260e08201528261010082015282610120820152826101408201528261016082015282610180820152826101a0820152826101c0820152826101e0820152826102008201528261022082015201526040516128b581612a5f565b60055481526006546020820152600754604082015260085460608201526009546080820152600a5460a0820152600b5460c0820152600c5460e0820152600d54610100820152600e54610120820152600f546101408201526010546101608201526011546101808201526012546101a08201526013546101c082015260ff6014546001600160a01b0381166101e084015260a01c169060038210156103aa57610260916102008201526015546102208201526001600160a01b03601654166102408201526001600160a01b0361024060405192805184526020810151602085015260408101516040850152606081015160608501526080810151608085015260a081015160a085015260c081015160c085015260e081015160e08501526101008101516101008501526101208101516101208501526101408101516101408501526101608101516101608501526101808101516101808501526101a08101516101a08501526101c08101516101c0850152826101e0820151166101e0850152612a48610200820151610200860190612776565b610220810151610220850152015116610240820152f35b610260810190811067ffffffffffffffff82111761026957604052565b90601f8019910116810190811067ffffffffffffffff82111761026957604052565b9081602091031261039e57516001600160a01b038116810361039e5790565b91908201809211611d9057565b81810292918115918404141715611d9057565b9081602091031261039e575160ff8116810361039e5790565b60ff16604d8111611d9057600a0a90565b8115612b11570490565b634e487b7160e01b5f52601260045260245ffd5b91908203918211611d9057565b51906001600160701b038216820361039e57565b9081606091031261039e57612b5a81612b32565b916040612b6960208401612b32565b92015163ffffffff8116810361039e5790565b612710612b8e601f54600c5490612aca565b04612b9b600b5482612aca565b60405163313ce56760e01b81527f00000000000000000000000000000000000000000000000000000000000000006001600160a01b03169391602082600481885afa908115611cf65761166861166e92612bfb945f91611fca5750612af6565b601e549081811115612dfe5750925b601c54848110612df457506014546001600160a01b03168015918215612de957612c8260207f00000000000000000000000000000000000000000000000000000000000000005b60405163e6a4390560e01b81526001600160a01b038086166004830152909116602482015291829081906044820190565b03816001600160a01b037f0000000000000000000000000000000000000000000000000000000000000000165afa8015611cf6576001600160a01b03915f91612dca575b5016918215612dbf57606060049360405194858092630240bc6b60e21b82525afa928315611cf6575f905f94612d90575b506001600160701b038091169316935f14612d8257506001600160a01b037f00000000000000000000000000000000000000000000000000000000000000005b161115612d7c575b8015612d7457611f68612d529286612aca565b915b6125e483028381046125e41484151715611d905761271090041115929190565b505081612d54565b90612d3f565b6001600160a01b0390612d37565b6001600160701b039450849150612db59060603d606011612045576120338183612a7c565b5094909150612cf7565b505050506001929190565b612de3915060203d602011612106576120f78183612a7c565b5f612cc6565b612c82602083612c51565b939250505f929190565b905092612c0a565b9291909267ffffffffffffffff8411610269578360051b906020604051612e2f82850182612a7c565b809681520191810192831161039e57905b828210612e4c57505050565b8135815260209182019101612e40565b601b5490815f5b838110612e7257505050505f90565b818110156127b157601b5f527f3ad8aa4f87544323a9d1e5dd902f40c356527a7955687113db5f9a85ad579dc18101548314612eb057600101612e63565b50505050600190565b6001600160a01b03165f52601860205260405f20548015612f4157600a54612ee091612aca565b60405163313ce56760e01b8152906020826004817f00000000000000000000000000000000000000000000000000000000000000006001600160a01b03165afa908115611cf65761166861166e92612f3e945f91611fca5750612af6565b90565b505f90565b612ee0600654600a5490612aca565b612ee0612710612f6a600654600c5490612aca565b04600b5490612aca565b60025f5414612f835760025f55565b633ee5aeb560e01b5f5260045ffd5b6001600160a01b03600154163303612fa657565b63118cdaa760e01b5f523360045260245ffd5b8115613074576014546001600160a01b0316806130675750814710613050575f8080936001600160a01b038294165af13d15613048573d9067ffffffffffffffff82116102695760405191613018601f8201601f191660200184612a7c565b82523d5f602084013e5b1561302a5750565b80511561303957805190602001fd5b63d6bda27560e01b5f5260045ffd5b606090613022565b504763cf47918160e01b5f5260045260245260445ffd5b9061307292916137be565b565b5050565b6001600160a01b036014541680156130e85760206004916040519283809263313ce56760e01b82525afa5f91816130c7575b506130be57631da50fef60e01b5f5260045ffd5b612f3e90612af6565b6130e191925060203d602011611ff257611fe48183612a7c565b905f6130aa565b50670de0b6b3a764000090565b9081602091031261039e5751801515810361039e5790565b604051906080820182811067ffffffffffffffff821117610269576040525f6060838281528260208201528260408201520152565b61314a61310d565b601f5461315b5f91600a5490612aca565b60405163313ce56760e01b81527f00000000000000000000000000000000000000000000000000000000000000006001600160a01b031691602082600481865afa908115611cf65761166861166e926131ba945f91611fca5750612af6565b808452601d5480911161345f575b6131d3845182612b25565b6020850190815260606132246131ec601e548095612abd565b92601c54948486956131fe8388612abd565b1115613456576132116132169287612abd565b612b25565b905b8160408a015251612abd565b9501948086521161344e575b835180156134475761324191612b25565b601c55601354806132a0575061326691506001600160a01b03600154168351916137be565b517fbf95d20e2a316bd9c3e2efd35653a948438013277330af4b3fee49455a0e637260206001600160a01b036001541692604051908152a2565b60010361330957916132ff6020927fa23a441fdb6a3236d37796809dafdaba773a27be440ae9746e9b9f8cf2c2106e9483516040519263a9059cbb60e01b878501525061dead6024840152604483015260448252610d0c606483612a7c565b51604051908152a1565b825160405163095ea7b360e01b81526001600160a01b037f0000000000000000000000000000000000000000000000000000000000000000166004820181905260248201929092529092506020816044815f865af18015611cf65761342a575b506001600160a01b036001541683519260125493813b1561039e57604051631bc6452160e31b81523060048201526001600160a01b039384166024820152939092166044840152606483019190915242608483015260a4820192909252905f90829060c490829084905af18015611cf65761341a575b50517fffbab51a97c2620266485de4ca0e9acd7a3e7412812e256ff5d6831fa5dacaa960206001600160a01b036001541692604051908152a2565b5f61342491612a7c565b5f6133df565b6134429060203d6020116114fc576114ef8183612a7c565b613369565b5050505050565b808452613230565b50505f90613218565b8084526131c8565b919260ff6017541660048110156103aa57600181036103e75750600e54421080156137b3575b6103cd576001600160a01b03831680156103be576014549260ff8460a01c1660038110156103aa576001810361370957506015549460405160208101916bffffffffffffffffffffffff199060601b168252601481526134ee603482612a7c565b519020935f945b87518610156135375760208660051b89010151908181105f14613526575f52602052600160405f205b9501946134f5565b905f52602052600160405f2061351e565b919450929550939093036102f5576001600160a01b03905b16159081156136f05734156102bc575b81156136e95734915b601f54926135768185612abd565b600654106102a65760085481106102975761359d90855f52601860205260405f2054612abd565b6009541061028857156136de57506135b6348092612abd565b601f556135c581600254612abd565b600255815f52601960205260ff60405f2054161561365e575b60407f08ce00466abd322339ad31e43307a70a872f8c32a13d8b24ed85948ba75ed1b391835f526018602052815f20613618828254612abd565b9055837f2499a5330ab0979cc612135e7883ebc3cd5c9f7a8508f042540c34723348f63260208451848152a26001600160a01b03601454161582519182526020820152a2565b815f52601960205260405f20600160ff19825416179055601a5468010000000000000000811015610269577f08ce00466abd322339ad31e43307a70a872f8c32a13d8b24ed85948ba75ed1b3916136bd82600160409401601a55612799565b81549060031b906001600160a01b0387831b921b19161790559150506135de565b6135b6908092612abd565b8091613568565b346102e7578061355f57631f2a200560e01b5f5260045ffd5b9093929550600291945014613727575b6001600160a01b039061354f565b602460206001600160a01b0360165416604051928380926370a0823160e01b82528860048301525afa5f918161377f575b5061376c5763457b8b9360e11b5f5260045ffd5b6137195763e9e7bfc360e01b5f5260045ffd5b9091506020813d6020116137ab575b8161379b60209383612a7c565b8101031261039e5751905f613758565b3d915061378e565b50600f54421161348d565b60405163a9059cbb60e01b60208201526001600160a01b0392909216602483015260448083019390935291815261307291610d0c606483612a7c565b9081606091031261039e578051916040602083015192015190565b5f9060033d1161382157565b905060045f803e5f5160e01c90565b5f60443d10612f3e576040513d600319016004823e8051913d602484011167ffffffffffffffff84111761389e578282019283519167ffffffffffffffff8311613896573d840160031901858401602001116138965750612f3e92910160200190612a7c565b949350505050565b92915050565b602060409281835280519182918282860152018484015e5f828201840152601f01601f1916010190565b905f602091828151910182855af115611cf6575f513d61391957506001600160a01b0381163b155b6138fd5750565b6001600160a01b0390635274afe760e01b5f521660045260245ffd5b600114156138f656fea2646970667358221220dc3cdfff5c7cfb3854610d589d01f056bce5846f1a20f4d7ae1cf3cfd02a721864736f6c634300081c0033a2646970667358221220dfac41b3e781dd37b42bd42139ad1fb5228ec5c5c48ecee1c848c59ff8cbe3cc64736f6c634300081c0033608060405234602357600180556013336027565b50604051610e0690816100b08239f35b5f80fd5b6001600160a01b0381165f9081525f516020610eb65f395f51905f52602052604090205460ff1660aa576001600160a01b03165f8181525f516020610eb65f395f51905f5260205260408120805460ff191660011790553391907f2f8788117e7eff1d82e926ec794901d17c78024a50270940304540a733656f0d8180a4600190565b505f9056fe6080806040526004361015610012575f80fd5b5f3560e01c90816301ffc9a7146109c0575080630852c9ea1461075957806323a35de9146106a5578063248a9ca3146106735780632905bc23146105785780632e1a7d4d146104635780632f2ff15d1461042657806336568abe146103e257806391d14854146103995780639b10b6f51461037c578063a217fddf14610362578063aa33fedb1461030d578063d547741f146102c9578063d68f4dd114610252578063f234eae01461017f578063f3621367146101455763f4dadc61146100d7575f80fd5b3461014157602036600319011261014157600435600254811015610141576100fe90610ace565b50805460018201546002830154600390930154604080516001600160a01b03948516815260208101939093528201939093529116606082015280608081015b0390f35b5f80fd5b34610141575f3660031901126101415760206040517faf9a8bb3cbd6b84fbccefa71ff73e26e798553c6914585a84886212a46a902798152f35b34610141576020366003190112610141576001600160a01b036101a0610a13565b165f52600360205260405f20604051808260208294549384815201905f5260205f20925f5b8181106102395750506101da92500382610b22565b6101e48151610b69565b905f5b815181101561022b578061020f61020961020360019486610bd0565b51610ace565b50610be4565b6102198286610bd0565b526102248185610bd0565b50016101e7565b6040518061013d8582610a3f565b84548352600194850194869450602090930192016101c5565b34610141576020366003190112610141576004356002548110156102ba5761020961027c91610ace565b805160208083015160408085015160609586015182516001600160a01b03968716815294850193909352908301529190911691810191909152608090f35b63aefe60c360e01b5f5260045ffd5b346101415760403660031901126101415761030b6004356102e8610a29565b90610306610301825f525f602052600160405f20015490565b610c21565b610cee565b005b3461014157604036600319011261014157610326610a13565b6001600160a01b0360243591165f52600360205260405f2080548210156101415760209161035391610aa5565b90549060031b1c604051908152f35b34610141575f3660031901126101415760206040515f8152f35b34610141575f366003190112610141576020600254604051908152f35b34610141576040366003190112610141576103b2610a29565b6004355f525f6020526001600160a01b0360405f2091165f52602052602060ff60405f2054166040519015158152f35b34610141576040366003190112610141576103fb610a29565b336001600160a01b038216036104175761030b90600435610cee565b63334bd91960e11b5f5260045ffd5b346101415760403660031901126101415761030b600435610445610a29565b9061045e610301825f525f602052600160405f20015490565b610c61565b34610141576020366003190112610141576004356002600154146105695760026001556002548110156102ba5761049981610ace565b50906001600160a01b03600383015416330361055a576002820154421061054b576001820190815492831561053c576001600160a01b035f915416925561050a60405163a9059cbb60e01b602082015233602482015284604482015260448152610504606482610b22565b83610d71565b6040519283527f02d31f34254298313e6778d666b4072bcd026b864c045d3c3691db90d26b048260203394a460018055005b637dd28aa760e11b5f5260045ffd5b636f832da560e11b5f5260045ffd5b630472b49d60e51b5f5260045ffd5b633ee5aeb560e01b5f5260045ffd5b34610141576040366003190112610141576004356002548082101561062e5760243582019081831161061a57808211610612575b506105bf6105ba8383610b44565b610b69565b91805b8281106105d7576040518061013d8682610a3f565b8061060b6105e6600193610ace565b506105fa6105f48685610b44565b91610be4565b6106048289610bd0565b5286610bd0565b50016105c2565b9050826105ac565b634e487b7160e01b5f52601160045260245ffd5b60405162461bcd60e51b815260206004820152601460248201527f4f6666736574206f7574206f6620626f756e64730000000000000000000000006044820152606490fd5b3461014157602036600319011261014157602061069d6004355f525f602052600160405f20015490565b604051908152f35b34610141576020366003190112610141576001600160a01b036106c6610a13565b165f52600360205260405f20604051806020835491828152019081935f5260205f20905f5b8181106107435750505081610701910382610b22565b604051918291602083019060208452518091526040830191905f5b81811061072a575050500390f35b825184528594506020938401939092019160010161071c565b82548452602090930192600192830192016106eb565b3461014157608036600319011261014157610772610a13565b602435604435606435926001600160a01b03841680940361014157335f9081527f3e7a7484ad32e5d459b6ed6a870672becd5b865934878407075b570e26e63f9b602052604090205460ff1615610989576001600160a01b031691821561097a57801561096b574282111561095c57831561094d5760025491845f52600360205260405f208054680100000000000000008110156109395761081991600182018155610aa5565b81549060031b9085821b915f19901b19161790556040519161083a83610b06565b84835260208301918183526040840192818452606085019388855260025468010000000000000000811015610939578060016108799201600255610ace565b929092610926576001600160a01b03604096819360039383807f3e9c5371795df8e8c4d64fabb2cf571f5ac7cdfbd38820c269a31497baa1eaf49c51161684198854161787555160018701555160028601555116920191166001600160a01b031982541617905561091983516323b872dd60e01b602082015233602482015230604482015283606482015260648152610913608482610b22565b87610d71565b82519182526020820152a4005b634e487b7160e01b5f525f60045260245ffd5b634e487b7160e01b5f52604160045260245ffd5b633649397d60e21b5f5260045ffd5b6352aba6d360e11b5f5260045ffd5b631f2a200560e01b5f5260045ffd5b630f58058360e11b5f5260045ffd5b63e2517d3f60e01b5f52336004527faf9a8bb3cbd6b84fbccefa71ff73e26e798553c6914585a84886212a46a9027960245260445ffd5b34610141576020366003190112610141576004359063ffffffff60e01b821680920361014157602091637965db0b60e01b8114908115610a02575b5015158152f35b6301ffc9a760e01b149050836109fb565b600435906001600160a01b038216820361014157565b602435906001600160a01b038216820361014157565b60206040818301928281528451809452019201905f5b818110610a625750505090565b909192602060806001926001600160a01b036060885182815116845285810151868501526040810151604085015201511660608201520194019101919091610a55565b8054821015610aba575f5260205f2001905f90565b634e487b7160e01b5f52603260045260245ffd5b600254811015610aba5760025f81815291901b7f405787fa12a823e0f2b7631cc41b3ba8828b3321ca811111fa75cd3aa3bb5ace0191565b6080810190811067ffffffffffffffff82111761093957604052565b90601f8019910116810190811067ffffffffffffffff82111761093957604052565b9190820391821161061a57565b67ffffffffffffffff81116109395760051b60200190565b90610b7382610b51565b610b806040519182610b22565b8281528092610b91601f1991610b51565b01905f5b828110610ba157505050565b602090604051610bb081610b06565b5f81525f838201525f60408201525f606082015282828501015201610b95565b8051821015610aba5760209160051b010190565b90604051610bf181610b06565b60606001600160a01b03600383958281541685526001810154602086015260028101546040860152015416910152565b805f525f60205260405f206001600160a01b0333165f5260205260ff60405f20541615610c4b5750565b63e2517d3f60e01b5f523360045260245260445ffd5b805f525f60205260405f206001600160a01b0383165f5260205260ff60405f205416155f14610ce857805f525f60205260405f206001600160a01b0383165f5260205260405f20600160ff198254161790556001600160a01b03339216907f2f8788117e7eff1d82e926ec794901d17c78024a50270940304540a733656f0d5f80a4600190565b50505f90565b805f525f60205260405f206001600160a01b0383165f5260205260ff60405f2054165f14610ce857805f525f60205260405f206001600160a01b0383165f5260205260405f2060ff1981541690556001600160a01b03339216907ff6391f5c32d9c69d2a47ea670b442974b53935d1edc7fd64eb21e047a839171b5f80a4600190565b905f602091828151910182855af115610dc5575f513d610dbc57506001600160a01b0381163b155b610da05750565b6001600160a01b0390635274afe760e01b5f521660045260245ffd5b60011415610d99565b6040513d5f823e3d90fdfea264697066735822122084af6df620460348d1499abeac45e65f750a6e2c5bedba98ed401351cae1178464736f6c634300081c0033ad3228b676f7d3cd4284a5443f17f1962b36e491b30a40b2405849e597ba5fb5608060405234602357600180556013336027565b5060405161155790816100b08239f35b5f80fd5b6001600160a01b0381165f9081525f5160206116075f395f51905f52602052604090205460ff1660aa576001600160a01b03165f8181525f5160206116075f395f51905f5260205260408120805460ff191660011790553391907f2f8788117e7eff1d82e926ec794901d17c78024a50270940304540a733656f0d8180a4600190565b505f9056fe6080806040526004361015610012575f80fd5b5f3560e01c90816301ffc9a714610f43575080631916558714610c2d578063248a9ca314610c035780632f2ff15d14610bc657806336568abe14610b825780633f4ba83a14610b2157806350c4027814610a5b5780635c975abb14610a395780636152d848146109da5780638456cb591461097757806391d148541461092e578063a217fddf14610914578063a61dc00b1461087b578063aa77f26c1461084f578063ae5ad22714610815578063aeb506ea146107e1578063b40b223d146105bf578063cea9d26f146104e1578063d547741f1461049d5763de322908146100f8575f80fd5b346103045760c036600319011261030457610111610f96565b610119610fac565b90604435916001600160a01b03831680930361030457335f9081527f90fd55ceb663452644e110a0baa7233edcf7e07e293a5498f9dbac3f84d8a23b60205260409020546064359260a43591608435919060ff16156104665760ff60025416610457576001600160a01b0316928315610448576001600160a01b031693841561043957851561042a5780156102c457821561041b57835f52600560205260405f20855f5260205260405f20600581019081548560ff82165f1461034d57505060019150016101e882825461104a565b90555b6040516370a0823160e01b81523060048201526020816024818a5afa908115610310575f9161031b575b506102506040516323b872dd60e01b60208201523360248201523060448201528360648201526064815261024a608482611028565b886114cd565b6040516370a0823160e01b8152306004820152906020826024818b5afa80156103105783925f916102d3575b509061028791610feb565b036102c4577f0818d1da3bded782e0bbcaa25ed0b1502a281527846cea8fcc787ecd3d264c5d9260609260405192835260208301526040820152a4005b63162908e360e11b5f5260045ffd5b919250506020813d602011610308575b816102f060209383611028565b81010312610304575182919061028761027c565b5f80fd5b3d91506102e3565b6040513d5f823e3d90fd5b90506020813d602011610345575b8161033660209383611028565b8101031261030457515f610215565b3d9150610329565b60046001938b6001600160a01b031982541617815586858201555f6002820155876003820155015560ff1916179055845f52600460205260405f20845f5260205260ff60405f2054166101eb57845f52600360205260405f20805468010000000000000000811015610407576103c891600182018155610fc2565b81549060031b906001600160a01b0387831b921b1916179055845f52600460205260405f20845f5260205260405f20600160ff198254161790556101eb565b634e487b7160e01b5f52604160045260245ffd5b637616640160e01b5f5260045ffd5b630f58058360e11b5f5260045ffd5b631559b7d760e21b5f5260045ffd5b63b56fdfef60e01b5f5260045ffd5b63ab35696f60e01b5f5260045ffd5b63e2517d3f60e01b5f52336004527f64ed6499e2f5a7ea55dfd56da361bf9d48064843bb3891c36f1dabd9ba24613560245260445ffd5b34610304576040366003190112610304576104df6004356104bc610fac565b906104da6104d5825f525f602052600160405f20015490565b611383565b61144a565b005b34610304576060366003190112610304576104fa610f96565b610502610fac565b6001600160a01b0360443592610516611334565b1690811515806105ad575b156105685760206001600160a01b038261055d867f77023e19c7343ad491fd706c36335ca0e738340a91f29b1fd81e2673d44896c495876112f6565b6040519586521693a3005b60405162461bcd60e51b815260206004820152600f60248201527f496e76616c6964206164647265737300000000000000000000000000000000006044820152606490fd5b506001600160a01b0381161515610521565b34610304576020366003190112610304576105d8610f96565b6001600160a01b0381165f52600360205260405f2090604051808360208295549384815201905f5260205f20925f5b8181106107bf57505061061c92500383611028565b81519161062883611200565b926106366040519485611028565b808452610645601f1991611200565b015f5b818110610784575050906001600160a01b035f9116905b82518110156106ff57806001600160a01b0361067d60019386611218565b51165f52600560205260405f20835f5260205260405f2060ff6005604051926106a58461100c565b6001600160a01b038154168452858101546020850152600281015460408501526003810154606085015260048101546080850152015416151560a08201526106ed8287611218565b526106f88186611218565b500161065f565b836040518091602082016020835281518091526020604084019201905f5b81811061072b575050500390f35b91935091602060c060019260a087516001600160a01b03815116835284810151858401526040810151604084015260608101516060840152608081015160808401520151151560a082015201940191019184939261071d565b6020906040516107938161100c565b5f81525f838201525f60408201525f60608201525f60808201525f60a082015282828801015201610648565b84546001600160a01b0316835260019485019487945060209093019201610607565b3461030457604036600319011261030457602061080d6107ff610f96565b610807610fac565b9061116d565b604051908152f35b34610304575f3660031901126103045760206040517f64ed6499e2f5a7ea55dfd56da361bf9d48064843bb3891c36f1dabd9ba2461358152f35b3461030457604036600319011261030457602061080d61086d610f96565b610875610fac565b90611057565b3461030457604036600319011261030457610894610f96565b6001600160a01b036108a4610fac565b91165f5260056020526001600160a01b0360405f2091165f5260205260c060405f206001600160a01b0381541690600181015490600281015460038201549060ff6005600485015494015416936040519586526020860152604085015260608401526080830152151560a0820152f35b34610304575f3660031901126103045760206040515f8152f35b3461030457604036600319011261030457610947610fac565b6004355f525f6020526001600160a01b0360405f2091165f52602052602060ff60405f2054166040519015158152f35b34610304575f3660031901126103045761098f611334565b60025460ff81166109cb5760ff1916600117600255337f62e78cea01bee320cd4e420270b5ea74000d11b0c9f74754ebdbfc544b05a2585f80a2005b631785c68160e01b5f5260045ffd5b34610304576040366003190112610304576109f3610f96565b6001600160a01b0360243591165f52600360205260405f2090815481101561030457610a296001600160a01b0391602093610fc2565b90549060031b1c16604051908152f35b34610304575f36600319011261030457602060ff600254166040519015158152f35b34610304576020366003190112610304576001600160a01b03610a7c610f96565b165f52600360205260405f20604051806020835491828152019081935f5260205f20905f5b818110610b025750505081610ab7910382611028565b604051918291602083019060208452518091526040830191905f5b818110610ae0575050500390f35b82516001600160a01b0316845285945060209384019390920191600101610ad2565b82546001600160a01b0316845260209093019260019283019201610aa1565b34610304575f36600319011261030457610b39611334565b60025460ff811615610b735760ff1916600255337f5db9ee0a495bf2e6ff9c91a7834c1ba4fdd244a5e8aa4e537bd38aeae4b073aa5f80a2005b636cd6020160e01b5f5260045ffd5b3461030457604036600319011261030457610b9b610fac565b336001600160a01b03821603610bb7576104df9060043561144a565b63334bd91960e11b5f5260045ffd5b34610304576040366003190112610304576104df600435610be5610fac565b90610bfe6104d5825f525f602052600160405f20015490565b6113c3565b3461030457602036600319011261030457602061080d6004355f525f602052600160405f20015490565b3461030457602036600319011261030457610c46610f96565b600260015414610f3457600260015560ff60025416610457576001600160a01b03811690815f52600560205260405f206001600160a01b0333165f5260205260405f2060ff60058201541615610f2557610ca03383611057565b9060028101610e05815493610d97610cb88683610feb565b965f80610d1d610d2b604051610ccf604082611028565b601781527f2d2d2d2056657374696e672052656c65617365202d2d2d000000000000000000602082015260405192839163104c13eb60e21b602084015260206024840152604483019061122c565b03601f198101835282611028565b6020815191016a636f6e736f6c652e6c6f675afa50610d6f604051610d51604082611028565b600a8152692a34b6b2b9ba30b6b81d60b11b60208201524290611250565b604051610d7d604082611028565b6008815267283932b9b0b6329d60c11b60208201526112aa565b610dc8604051610da8604082611028565b600c81526b2132b732b334b1b4b0b93c9d60a11b602082015233906112aa565b604051610dd6604082611028565b601481527f546f74616c2056657374656420536f204661723a0000000000000000000000006020820152611250565b610e4683604051610e17604082611028565b601181527f416c72656164792052656c65617365643a0000000000000000000000000000006020820152611250565b610e8784604051610e58604082611028565b601e81527f43616c63756c617465642052656c65617361626c65202844656c7461293a00006020820152611250565b8315610f2557610e9f846001600160a01b039461104a565b9055610ee283604051610eb3604082611028565b601481527f5472616e7366657272696e6720416d6f756e743a0000000000000000000000006020820152611250565b610ef08333848454166112f6565b5416916040519182527f177de809d108c62a7ae835c49b0ab8ffeebcc7b3b4045930da8dfe54f6d9cddc60203393a460018055005b63094b911b60e41b5f5260045ffd5b633ee5aeb560e01b5f5260045ffd5b34610304576020366003190112610304576004359063ffffffff60e01b821680920361030457602091637965db0b60e01b8114908115610f85575b5015158152f35b6301ffc9a760e01b14905083610f7e565b600435906001600160a01b038216820361030457565b602435906001600160a01b038216820361030457565b8054821015610fd7575f5260205f2001905f90565b634e487b7160e01b5f52603260045260245ffd5b91908203918211610ff857565b634e487b7160e01b5f52601160045260245ffd5b60c0810190811067ffffffffffffffff82111761040757604052565b90601f8019910116810190811067ffffffffffffffff82111761040757604052565b91908201809211610ff857565b6001600160a01b03165f5260056020526001600160a01b0360405f2091165f5260205260405f206040519061108b8261100c565b6001600160a01b0381541682526001810154602083019281845260028301546040820152600383015490606081019282845260048501549160ff60056080830197858952015416159060a082159101526111635782421090811561115a575b508015611152575b611149576110ff9161104a565b42101561114357611111905142610feb565b9151828102928184041490151715610ff8575190811561112f570490565b634e487b7160e01b5f52601260045260245ffd5b50505190565b50505050505f90565b5080156110f2565b9050155f6110ea565b5050505050505f90565b6001600160a01b03165f5260056020526001600160a01b0360405f2091165f5260205260405f20604051906111a18261100c565b6001600160a01b03815416825260018101549182602082015260ff60056002840154938460408501526003810154606085015260048101546080850152015416159060a082159101526111fa576111f791610feb565b90565b50505f90565b67ffffffffffffffff81116104075760051b60200190565b8051821015610fd75760209160051b010190565b805180835260209291819084018484015e5f828201840152601f01601f1916010190565b61127f6112935f93928493604051938492632d839cb360e21b602085015260406024850152606484019061122c565b90604483015203601f198101835282611028565b6020815191016a636f6e736f6c652e6c6f675afa50565b6112e16112935f939284936001600160a01b0360405194859363319af33360e01b602086015260406024860152606485019061122c565b9116604483015203601f198101835282611028565b611332926001600160a01b036040519363a9059cbb60e01b602086015216602484015260448301526044825261132d606483611028565b6114cd565b565b335f9081527fad3228b676f7d3cd4284a5443f17f1962b36e491b30a40b2405849e597ba5fb5602052604090205460ff161561136c57565b63e2517d3f60e01b5f52336004525f60245260445ffd5b805f525f60205260405f206001600160a01b0333165f5260205260ff60405f205416156113ad5750565b63e2517d3f60e01b5f523360045260245260445ffd5b805f525f60205260405f206001600160a01b0383165f5260205260ff60405f205416155f146111fa57805f525f60205260405f206001600160a01b0383165f5260205260405f20600160ff198254161790556001600160a01b03339216907f2f8788117e7eff1d82e926ec794901d17c78024a50270940304540a733656f0d5f80a4600190565b805f525f60205260405f206001600160a01b0383165f5260205260ff60405f2054165f146111fa57805f525f60205260405f206001600160a01b0383165f5260205260405f2060ff1981541690556001600160a01b03339216907ff6391f5c32d9c69d2a47ea670b442974b53935d1edc7fd64eb21e047a839171b5f80a4600190565b905f602091828151910182855af115610310575f513d61151857506001600160a01b0381163b155b6114fc5750565b6001600160a01b0390635274afe760e01b5f521660045260245ffd5b600114156114f556fea2646970667358221220d0d887d4527389662264747c90cb432f0b8477dfdb93820cc2ea8431ebf27b3864736f6c634300081c0033ad3228b676f7d3cd4284a5443f17f1962b36e491b30a40b2405849e597ba5fb5",
    "linkReferences": {}
  },
  "methodIdentifiers": {
    "BASIS_POINTS()": "e1f1c4a7",
    "LOCKER_ROLE()": "f3621367",
    "VESTER_ROLE()": "ae5ad227",
    "calculateTotalTokensNeededForPresale((uint256,uint256,uint256,uint256,uint256,uint256,uint256,uint256,uint256,uint256,uint256,uint256,uint256,uint256,uint256,address,uint8,bytes32,address),address)": "275fea2c",
    "createPresale((uint256,uint256,uint256,uint256,uint256,uint256,uint256,uint256,uint256,uint256,uint256,uint256,uint256,uint256,uint256,address,uint8,bytes32,address),address,address,address)": "0b8c1563",
    "createdPresales(uint256)": "62e6b3a9",
    "creationFee()": "dce0b4e4",
    "feeToken()": "647846a5",
    "getAllPresales()": "ea9160dd",
    "getCreationFee()": "db07b68e",
    "getHouseAddress()": "92144b62",
    "getHousePercentage()": "7ef97d73",
    "getPresaleAt(uint256)": "a7259767",
    "getPresaleCount()": "defbdb83",
    "getPresaleOptionsByAddress(address)": "1be06f63",
    "houseAddress()": "d7cee31e",
    "housePercentage()": "49d2e277",
    "liquidityLocker()": "9759164a",
    "owner()": "8da5cb5b",
    "presaleConfigurations(address)": "59e7412b",
    "renounceOwnership()": "715018a6",
    "setFeeConfiguration(uint256,address)": "fae85927",
    "setHouseConfiguration(uint256,address)": "37a9ab4c",
    "transferOwnership(address)": "f2fde38b",
    "vestingContract()": "5e6f6045",
    "withdrawFees()": "476343ee"
  },
  "id": 58
}