{"abi":[{"type":"constructor","inputs":[],"stateMutability":"nonpayable"},{"type":"function","name":"DEFAULT_ADMIN_ROLE","inputs":[],"outputs":[{"name":"","type":"bytes32","internalType":"bytes32"}],"stateMutability":"view"},{"type":"function","name":"VESTER_ROLE","inputs":[],"outputs":[{"name":"","type":"bytes32","internalType":"bytes32"}],"stateMutability":"view"},{"type":"function","name":"createVesting","inputs":[{"name":"_presale","type":"address","internalType":"address"},{"name":"_beneficiary","type":"address","internalType":"address"},{"name":"_tokenAddress","type":"address","internalType":"address"},{"name":"_amount","type":"uint256","internalType":"uint256"},{"name":"_start","type":"uint256","internalType":"uint256"},{"name":"_duration","type":"uint256","internalType":"uint256"}],"outputs":[],"stateMutability":"nonpayable"},{"type":"function","name":"getRoleAdmin","inputs":[{"name":"role","type":"bytes32","internalType":"bytes32"}],"outputs":[{"name":"","type":"bytes32","internalType":"bytes32"}],"stateMutability":"view"},{"type":"function","name":"grantRole","inputs":[{"name":"role","type":"bytes32","internalType":"bytes32"},{"name":"account","type":"address","internalType":"address"}],"outputs":[],"stateMutability":"nonpayable"},{"type":"function","name":"hasRole","inputs":[{"name":"role","type":"bytes32","internalType":"bytes32"},{"name":"account","type":"address","internalType":"address"}],"outputs":[{"name":"","type":"bool","internalType":"bool"}],"stateMutability":"view"},{"type":"function","name":"pause","inputs":[],"outputs":[],"stateMutability":"nonpayable"},{"type":"function","name":"paused","inputs":[],"outputs":[{"name":"","type":"bool","internalType":"bool"}],"stateMutability":"view"},{"type":"function","name":"release","inputs":[{"name":"_presale","type":"address","internalType":"address"}],"outputs":[],"stateMutability":"nonpayable"},{"type":"function","name":"remainingVested","inputs":[{"name":"_presale","type":"address","internalType":"address"},{"name":"_beneficiary","type":"address","internalType":"address"}],"outputs":[{"name":"","type":"uint256","internalType":"uint256"}],"stateMutability":"view"},{"type":"function","name":"renounceRole","inputs":[{"name":"role","type":"bytes32","internalType":"bytes32"},{"name":"callerConfirmation","type":"address","internalType":"address"}],"outputs":[],"stateMutability":"nonpayable"},{"type":"function","name":"revokeRole","inputs":[{"name":"role","type":"bytes32","internalType":"bytes32"},{"name":"account","type":"address","internalType":"address"}],"outputs":[],"stateMutability":"nonpayable"},{"type":"function","name":"schedules","inputs":[{"name":"","type":"address","internalType":"address"},{"name":"","type":"address","internalType":"address"}],"outputs":[{"name":"tokenAddress","type":"address","internalType":"address"},{"name":"totalAmount","type":"uint256","internalType":"uint256"},{"name":"released","type":"uint256","internalType":"uint256"},{"name":"start","type":"uint256","internalType":"uint256"},{"name":"duration","type":"uint256","internalType":"uint256"},{"name":"exists","type":"bool","internalType":"bool"}],"stateMutability":"view"},{"type":"function","name":"supportsInterface","inputs":[{"name":"interfaceId","type":"bytes4","internalType":"bytes4"}],"outputs":[{"name":"","type":"bool","internalType":"bool"}],"stateMutability":"view"},{"type":"function","name":"unpause","inputs":[],"outputs":[],"stateMutability":"nonpayable"},{"type":"function","name":"vestedAmount","inputs":[{"name":"_presale","type":"address","internalType":"address"},{"name":"_beneficiary","type":"address","internalType":"address"}],"outputs":[{"name":"","type":"uint256","internalType":"uint256"}],"stateMutability":"view"},{"type":"event","name":"Paused","inputs":[{"name":"admin","type":"address","indexed":true,"internalType":"address"}],"anonymous":false},{"type":"event","name":"RoleAdminChanged","inputs":[{"name":"role","type":"bytes32","indexed":true,"internalType":"bytes32"},{"name":"previousAdminRole","type":"bytes32","indexed":true,"internalType":"bytes32"},{"name":"newAdminRole","type":"bytes32","indexed":true,"internalType":"bytes32"}],"anonymous":false},{"type":"event","name":"RoleGranted","inputs":[{"name":"role","type":"bytes32","indexed":true,"internalType":"bytes32"},{"name":"account","type":"address","indexed":true,"internalType":"address"},{"name":"sender","type":"address","indexed":true,"internalType":"address"}],"anonymous":false},{"type":"event","name":"RoleRevoked","inputs":[{"name":"role","type":"bytes32","indexed":true,"internalType":"bytes32"},{"name":"account","type":"address","indexed":true,"internalType":"address"},{"name":"sender","type":"address","indexed":true,"internalType":"address"}],"anonymous":false},{"type":"event","name":"TokensReleased","inputs":[{"name":"presale","type":"address","indexed":true,"internalType":"address"},{"name":"beneficiary","type":"address","indexed":true,"internalType":"address"},{"name":"tokenAddress","type":"address","indexed":true,"internalType":"address"},{"name":"amount","type":"uint256","indexed":false,"internalType":"uint256"}],"anonymous":false},{"type":"event","name":"TokensReleasedBatch","inputs":[{"name":"presale","type":"address","indexed":true,"internalType":"address"},{"name":"beneficiary","type":"address","indexed":true,"internalType":"address"},{"name":"tokenAddress","type":"address","indexed":true,"internalType":"address"},{"name":"totalAmount","type":"uint256","indexed":false,"internalType":"uint256"}],"anonymous":false},{"type":"event","name":"TokensRescued","inputs":[{"name":"token","type":"address","indexed":true,"internalType":"address"},{"name":"to","type":"address","indexed":true,"internalType":"address"},{"name":"amount","type":"uint256","indexed":false,"internalType":"uint256"}],"anonymous":false},{"type":"event","name":"Unpaused","inputs":[{"name":"admin","type":"address","indexed":true,"internalType":"address"}],"anonymous":false},{"type":"event","name":"VestingCreated","inputs":[{"name":"presale","type":"address","indexed":true,"internalType":"address"},{"name":"beneficiary","type":"address","indexed":true,"internalType":"address"},{"name":"tokenAddress","type":"address","indexed":true,"internalType":"address"},{"name":"amount","type":"uint256","indexed":false,"internalType":"uint256"},{"name":"start","type":"uint256","indexed":false,"internalType":"uint256"},{"name":"duration","type":"uint256","indexed":false,"internalType":"uint256"}],"anonymous":false},{"type":"error","name":"AccessControlBadConfirmation","inputs":[]},{"type":"error","name":"AccessControlUnauthorizedAccount","inputs":[{"name":"account","type":"address","internalType":"address"},{"name":"neededRole","type":"bytes32","internalType":"bytes32"}]},{"type":"error","name":"AlreadyPaused","inputs":[]},{"type":"error","name":"ContractPaused","inputs":[]},{"type":"error","name":"InvalidAddress","inputs":[]},{"type":"error","name":"InvalidAmount","inputs":[]},{"type":"error","name":"InvalidBeneficiary","inputs":[]},{"type":"error","name":"InvalidDuration","inputs":[]},{"type":"error","name":"InvalidPresale","inputs":[]},{"type":"error","name":"InvalidTokenAddress","inputs":[]},{"type":"error","name":"NoTokensToRelease","inputs":[]},{"type":"error","name":"NoTokensToRescue","inputs":[]},{"type":"error","name":"NotPaused","inputs":[]},{"type":"error","name":"ReentrancyGuardReentrantCall","inputs":[]},{"type":"error","name":"SafeERC20FailedOperation","inputs":[{"name":"token","type":"address","internalType":"address"}]}],"bytecode":{"object":"0x608060405234602357600180556013336027565b5060405161101790816100b08239f35b5f80fd5b6001600160a01b0381165f9081525f5160206110c75f395f51905f52602052604090205460ff1660aa576001600160a01b03165f8181525f5160206110c75f395f51905f5260205260408120805460ff191660011790553391907f2f8788117e7eff1d82e926ec794901d17c78024a50270940304540a733656f0d8180a4600190565b505f9056fe6080806040526004361015610012575f80fd5b5f3560e01c90816301ffc9a714610a82575080631916558714610742578063248a9ca3146107185780632f2ff15d146106db57806336568abe146106975780633f4ba83a146106365780635c975abb146106145780638456cb59146105b157806391d1485414610568578063a217fddf1461054e578063a61dc00b146104b5578063aa77f26c14610489578063ae5ad2271461044f578063aeb506ea1461041b578063d547741f146103d75763de322908146100cc575f80fd5b346102d85760c03660031901126102d8576100e5610ad5565b6100ed610aeb565b90604435916001600160a01b0383168093036102d857335f9081527f90fd55ceb663452644e110a0baa7233edcf7e07e293a5498f9dbac3f84d8a23b60205260409020546064359260a43591608435919060ff16156103a05760ff60025416610391576001600160a01b0316928315610382576001600160a01b031693841561037357851561036457801561029857821561035557835f52600360205260405f20855f5260205260405f20600581019081548560ff82165f1461032157505060019150016101bc828254610b74565b90555b6040516370a0823160e01b81523060048201526020816024818a5afa9081156102e4575f916102ef575b506102246040516323b872dd60e01b60208201523360248201523060448201528360648201526064815261021e608482610b52565b88610f8d565b6040516370a0823160e01b8152306004820152906020826024818b5afa80156102e45783925f916102a7575b509061025b91610b01565b03610298577f0818d1da3bded782e0bbcaa25ed0b1502a281527846cea8fcc787ecd3d264c5d9260609260405192835260208301526040820152a4005b63162908e360e11b5f5260045ffd5b919250506020813d6020116102dc575b816102c460209383610b52565b810103126102d8575182919061025b610250565b5f80fd5b3d91506102b7565b6040513d5f823e3d90fd5b90506020813d602011610319575b8161030a60209383610b52565b810103126102d857515f6101e9565b3d91506102fd565b60046001938b6001600160a01b031982541617815586858201555f6002820155876003820155015560ff19161790556101bf565b637616640160e01b5f5260045ffd5b630f58058360e11b5f5260045ffd5b631559b7d760e21b5f5260045ffd5b63b56fdfef60e01b5f5260045ffd5b63ab35696f60e01b5f5260045ffd5b63e2517d3f60e01b5f52336004527f64ed6499e2f5a7ea55dfd56da361bf9d48064843bb3891c36f1dabd9ba24613560245260445ffd5b346102d85760403660031901126102d8576104196004356103f6610aeb565b9061041461040f825f525f602052600160405f20015490565b610e43565b610f0a565b005b346102d85760403660031901126102d8576020610447610439610ad5565b610441610aeb565b90610c97565b604051908152f35b346102d8575f3660031901126102d85760206040517f64ed6499e2f5a7ea55dfd56da361bf9d48064843bb3891c36f1dabd9ba2461358152f35b346102d85760403660031901126102d85760206104476104a7610ad5565b6104af610aeb565b90610b81565b346102d85760403660031901126102d8576104ce610ad5565b6001600160a01b036104de610aeb565b91165f5260036020526001600160a01b0360405f2091165f5260205260c060405f206001600160a01b0381541690600181015490600281015460038201549060ff6005600485015494015416936040519586526020860152604085015260608401526080830152151560a0820152f35b346102d8575f3660031901126102d85760206040515f8152f35b346102d85760403660031901126102d857610581610aeb565b6004355f525f6020526001600160a01b0360405f2091165f52602052602060ff60405f2054166040519015158152f35b346102d8575f3660031901126102d8576105c9610df4565b60025460ff81166106055760ff1916600117600255337f62e78cea01bee320cd4e420270b5ea74000d11b0c9f74754ebdbfc544b05a2585f80a2005b631785c68160e01b5f5260045ffd5b346102d8575f3660031901126102d857602060ff600254166040519015158152f35b346102d8575f3660031901126102d85761064e610df4565b60025460ff8116156106885760ff1916600255337f5db9ee0a495bf2e6ff9c91a7834c1ba4fdd244a5e8aa4e537bd38aeae4b073aa5f80a2005b636cd6020160e01b5f5260045ffd5b346102d85760403660031901126102d8576106b0610aeb565b336001600160a01b038216036106cc5761041990600435610f0a565b63334bd91960e11b5f5260045ffd5b346102d85760403660031901126102d8576104196004356106fa610aeb565b9061071361040f825f525f602052600160405f20015490565b610e83565b346102d85760203660031901126102d85760206104476004355f525f602052600160405f20015490565b346102d85760203660031901126102d85761075b610ad5565b600260015414610a7357600260015560ff60025416610391576001600160a01b03811690815f52600360205260405f206001600160a01b0333165f5260205260405f2060ff60058201541615610a64576107b53383610b81565b906002810161091a8154936108ac6107cd8683610b01565b965f806108326108406040516107e4604082610b52565b601781527f2d2d2d2056657374696e672052656c65617365202d2d2d000000000000000000602082015260405192839163104c13eb60e21b6020840152602060248401526044830190610d2a565b03601f198101835282610b52565b6020815191016a636f6e736f6c652e6c6f675afa50610884604051610866604082610b52565b600a8152692a34b6b2b9ba30b6b81d60b11b60208201524290610d4e565b604051610892604082610b52565b6008815267283932b9b0b6329d60c11b6020820152610da8565b6108dd6040516108bd604082610b52565b600c81526b2132b732b334b1b4b0b93c9d60a11b60208201523390610da8565b6040516108eb604082610b52565b601481527f546f74616c2056657374656420536f204661723a0000000000000000000000006020820152610d4e565b61095b8360405161092c604082610b52565b601181527f416c72656164792052656c65617365643a0000000000000000000000000000006020820152610d4e565b61099c8460405161096d604082610b52565b601e81527f43616c63756c617465642052656c65617361626c65202844656c7461293a00006020820152610d4e565b8315610a64576109b4846001600160a01b0394610b74565b90556109f7836040516109c8604082610b52565b601481527f5472616e7366657272696e6720416d6f756e743a0000000000000000000000006020820152610d4e565b805460405163a9059cbb60e01b602082015233602482015260448082018690528152610a2f918416610a2a606483610b52565b610f8d565b5416916040519182527f177de809d108c62a7ae835c49b0ab8ffeebcc7b3b4045930da8dfe54f6d9cddc60203393a460018055005b63094b911b60e41b5f5260045ffd5b633ee5aeb560e01b5f5260045ffd5b346102d85760203660031901126102d8576004359063ffffffff60e01b82168092036102d857602091637965db0b60e01b8114908115610ac4575b5015158152f35b6301ffc9a760e01b14905083610abd565b600435906001600160a01b03821682036102d857565b602435906001600160a01b03821682036102d857565b91908203918211610b0e57565b634e487b7160e01b5f52601160045260245ffd5b60c0810190811067ffffffffffffffff821117610b3e57604052565b634e487b7160e01b5f52604160045260245ffd5b90601f8019910116810190811067ffffffffffffffff821117610b3e57604052565b91908201809211610b0e57565b6001600160a01b03165f5260036020526001600160a01b0360405f2091165f5260205260405f2060405190610bb582610b22565b6001600160a01b0381541682526001810154602083019281845260028301546040820152600383015490606081019282845260048501549160ff60056080830197858952015416159060a08215910152610c8d57824210908115610c84575b508015610c7c575b610c7357610c2991610b74565b421015610c6d57610c3b905142610b01565b9151828102928184041490151715610b0e5751908115610c59570490565b634e487b7160e01b5f52601260045260245ffd5b50505190565b50505050505f90565b508015610c1c565b9050155f610c14565b5050505050505f90565b6001600160a01b03165f5260036020526001600160a01b0360405f2091165f5260205260405f2060405190610ccb82610b22565b6001600160a01b03815416825260018101549182602082015260ff60056002840154938460408501526003810154606085015260048101546080850152015416159060a08215910152610d2457610d2191610b01565b90565b50505f90565b805180835260209291819084018484015e5f828201840152601f01601f1916010190565b610d7d610d915f93928493604051938492632d839cb360e21b6020850152604060248501526064840190610d2a565b90604483015203601f198101835282610b52565b6020815191016a636f6e736f6c652e6c6f675afa50565b610ddf610d915f939284936001600160a01b0360405194859363319af33360e01b6020860152604060248601526064850190610d2a565b9116604483015203601f198101835282610b52565b335f9081527fad3228b676f7d3cd4284a5443f17f1962b36e491b30a40b2405849e597ba5fb5602052604090205460ff1615610e2c57565b63e2517d3f60e01b5f52336004525f60245260445ffd5b805f525f60205260405f206001600160a01b0333165f5260205260ff60405f20541615610e6d5750565b63e2517d3f60e01b5f523360045260245260445ffd5b805f525f60205260405f206001600160a01b0383165f5260205260ff60405f205416155f14610d2457805f525f60205260405f206001600160a01b0383165f5260205260405f20600160ff198254161790556001600160a01b03339216907f2f8788117e7eff1d82e926ec794901d17c78024a50270940304540a733656f0d5f80a4600190565b805f525f60205260405f206001600160a01b0383165f5260205260ff60405f2054165f14610d2457805f525f60205260405f206001600160a01b0383165f5260205260405f2060ff1981541690556001600160a01b03339216907ff6391f5c32d9c69d2a47ea670b442974b53935d1edc7fd64eb21e047a839171b5f80a4600190565b905f602091828151910182855af1156102e4575f513d610fd857506001600160a01b0381163b155b610fbc5750565b6001600160a01b0390635274afe760e01b5f521660045260245ffd5b60011415610fb556fea264697066735822122021aaec2d02cab9063e3136882da4b761d55db73fb1b0f56e0e7f695b8c3ddb1664736f6c634300081c0033ad3228b676f7d3cd4284a5443f17f1962b36e491b30a40b2405849e597ba5fb5","linkReferences":{}},"methodIdentifiers":{"DEFAULT_ADMIN_ROLE()":"a217fddf","VESTER_ROLE()":"ae5ad227","createVesting(address,address,address,uint256,uint256,uint256)":"de322908","getRoleAdmin(bytes32)":"248a9ca3","grantRole(bytes32,address)":"2f2ff15d","hasRole(bytes32,address)":"91d14854","pause()":"8456cb59","paused()":"5c975abb","release(address)":"19165587","remainingVested(address,address)":"aeb506ea","renounceRole(bytes32,address)":"36568abe","revokeRole(bytes32,address)":"d547741f","schedules(address,address)":"a61dc00b","supportsInterface(bytes4)":"01ffc9a7","unpause()":"3f4ba83a","vestedAmount(address,address)":"aa77f26c"},"id":46}