{"abi":[{"type":"constructor","inputs":[],"stateMutability":"nonpayable"},{"type":"function","name":"DEFAULT_ADMIN_ROLE","inputs":[],"outputs":[{"name":"","type":"bytes32","internalType":"bytes32"}],"stateMutability":"view"},{"type":"function","name":"VESTER_ROLE","inputs":[],"outputs":[{"name":"","type":"bytes32","internalType":"bytes32"}],"stateMutability":"view"},{"type":"function","name":"createVesting","inputs":[{"name":"_presale","type":"address","internalType":"address"},{"name":"_beneficiary","type":"address","internalType":"address"},{"name":"_tokenAddress","type":"address","internalType":"address"},{"name":"_amount","type":"uint256","internalType":"uint256"},{"name":"_start","type":"uint256","internalType":"uint256"},{"name":"_duration","type":"uint256","internalType":"uint256"}],"outputs":[],"stateMutability":"nonpayable"},{"type":"function","name":"getRoleAdmin","inputs":[{"name":"role","type":"bytes32","internalType":"bytes32"}],"outputs":[{"name":"","type":"bytes32","internalType":"bytes32"}],"stateMutability":"view"},{"type":"function","name":"getUserPresales","inputs":[{"name":"_user","type":"address","internalType":"address"}],"outputs":[{"name":"","type":"address[]","internalType":"address[]"}],"stateMutability":"view"},{"type":"function","name":"getUserSchedules","inputs":[{"name":"_user","type":"address","internalType":"address"}],"outputs":[{"name":"","type":"tuple[]","internalType":"struct Vesting.VestingSchedule[]","components":[{"name":"tokenAddress","type":"address","internalType":"address"},{"name":"totalAmount","type":"uint256","internalType":"uint256"},{"name":"released","type":"uint256","internalType":"uint256"},{"name":"start","type":"uint256","internalType":"uint256"},{"name":"duration","type":"uint256","internalType":"uint256"},{"name":"exists","type":"bool","internalType":"bool"}]}],"stateMutability":"view"},{"type":"function","name":"grantRole","inputs":[{"name":"role","type":"bytes32","internalType":"bytes32"},{"name":"account","type":"address","internalType":"address"}],"outputs":[],"stateMutability":"nonpayable"},{"type":"function","name":"hasRole","inputs":[{"name":"role","type":"bytes32","internalType":"bytes32"},{"name":"account","type":"address","internalType":"address"}],"outputs":[{"name":"","type":"bool","internalType":"bool"}],"stateMutability":"view"},{"type":"function","name":"pause","inputs":[],"outputs":[],"stateMutability":"nonpayable"},{"type":"function","name":"paused","inputs":[],"outputs":[{"name":"","type":"bool","internalType":"bool"}],"stateMutability":"view"},{"type":"function","name":"release","inputs":[{"name":"_presale","type":"address","internalType":"address"}],"outputs":[],"stateMutability":"nonpayable"},{"type":"function","name":"remainingVested","inputs":[{"name":"_presale","type":"address","internalType":"address"},{"name":"_beneficiary","type":"address","internalType":"address"}],"outputs":[{"name":"","type":"uint256","internalType":"uint256"}],"stateMutability":"view"},{"type":"function","name":"renounceRole","inputs":[{"name":"role","type":"bytes32","internalType":"bytes32"},{"name":"callerConfirmation","type":"address","internalType":"address"}],"outputs":[],"stateMutability":"nonpayable"},{"type":"function","name":"rescueTokens","inputs":[{"name":"token","type":"address","internalType":"address"},{"name":"to","type":"address","internalType":"address"},{"name":"amount","type":"uint256","internalType":"uint256"}],"outputs":[],"stateMutability":"nonpayable"},{"type":"function","name":"revokeRole","inputs":[{"name":"role","type":"bytes32","internalType":"bytes32"},{"name":"account","type":"address","internalType":"address"}],"outputs":[],"stateMutability":"nonpayable"},{"type":"function","name":"schedules","inputs":[{"name":"","type":"address","internalType":"address"},{"name":"","type":"address","internalType":"address"}],"outputs":[{"name":"tokenAddress","type":"address","internalType":"address"},{"name":"totalAmount","type":"uint256","internalType":"uint256"},{"name":"released","type":"uint256","internalType":"uint256"},{"name":"start","type":"uint256","internalType":"uint256"},{"name":"duration","type":"uint256","internalType":"uint256"},{"name":"exists","type":"bool","internalType":"bool"}],"stateMutability":"view"},{"type":"function","name":"supportsInterface","inputs":[{"name":"interfaceId","type":"bytes4","internalType":"bytes4"}],"outputs":[{"name":"","type":"bool","internalType":"bool"}],"stateMutability":"view"},{"type":"function","name":"unpause","inputs":[],"outputs":[],"stateMutability":"nonpayable"},{"type":"function","name":"userVestingSchedules","inputs":[{"name":"","type":"address","internalType":"address"},{"name":"","type":"uint256","internalType":"uint256"}],"outputs":[{"name":"","type":"address","internalType":"address"}],"stateMutability":"view"},{"type":"function","name":"vestedAmount","inputs":[{"name":"_presale","type":"address","internalType":"address"},{"name":"_beneficiary","type":"address","internalType":"address"}],"outputs":[{"name":"","type":"uint256","internalType":"uint256"}],"stateMutability":"view"},{"type":"event","name":"Paused","inputs":[{"name":"admin","type":"address","indexed":true,"internalType":"address"}],"anonymous":false},{"type":"event","name":"RoleAdminChanged","inputs":[{"name":"role","type":"bytes32","indexed":true,"internalType":"bytes32"},{"name":"previousAdminRole","type":"bytes32","indexed":true,"internalType":"bytes32"},{"name":"newAdminRole","type":"bytes32","indexed":true,"internalType":"bytes32"}],"anonymous":false},{"type":"event","name":"RoleGranted","inputs":[{"name":"role","type":"bytes32","indexed":true,"internalType":"bytes32"},{"name":"account","type":"address","indexed":true,"internalType":"address"},{"name":"sender","type":"address","indexed":true,"internalType":"address"}],"anonymous":false},{"type":"event","name":"RoleRevoked","inputs":[{"name":"role","type":"bytes32","indexed":true,"internalType":"bytes32"},{"name":"account","type":"address","indexed":true,"internalType":"address"},{"name":"sender","type":"address","indexed":true,"internalType":"address"}],"anonymous":false},{"type":"event","name":"TokensReleased","inputs":[{"name":"presale","type":"address","indexed":true,"internalType":"address"},{"name":"beneficiary","type":"address","indexed":true,"internalType":"address"},{"name":"tokenAddress","type":"address","indexed":true,"internalType":"address"},{"name":"amount","type":"uint256","indexed":false,"internalType":"uint256"}],"anonymous":false},{"type":"event","name":"TokensReleasedBatch","inputs":[{"name":"presale","type":"address","indexed":true,"internalType":"address"},{"name":"beneficiary","type":"address","indexed":true,"internalType":"address"},{"name":"tokenAddress","type":"address","indexed":true,"internalType":"address"},{"name":"totalAmount","type":"uint256","indexed":false,"internalType":"uint256"}],"anonymous":false},{"type":"event","name":"TokensRescued","inputs":[{"name":"token","type":"address","indexed":true,"internalType":"address"},{"name":"to","type":"address","indexed":true,"internalType":"address"},{"name":"amount","type":"uint256","indexed":false,"internalType":"uint256"}],"anonymous":false},{"type":"event","name":"Unpaused","inputs":[{"name":"admin","type":"address","indexed":true,"internalType":"address"}],"anonymous":false},{"type":"event","name":"VestingCreated","inputs":[{"name":"presale","type":"address","indexed":true,"internalType":"address"},{"name":"beneficiary","type":"address","indexed":true,"internalType":"address"},{"name":"tokenAddress","type":"address","indexed":true,"internalType":"address"},{"name":"amount","type":"uint256","indexed":false,"internalType":"uint256"},{"name":"start","type":"uint256","indexed":false,"internalType":"uint256"},{"name":"duration","type":"uint256","indexed":false,"internalType":"uint256"}],"anonymous":false},{"type":"error","name":"AccessControlBadConfirmation","inputs":[]},{"type":"error","name":"AccessControlUnauthorizedAccount","inputs":[{"name":"account","type":"address","internalType":"address"},{"name":"neededRole","type":"bytes32","internalType":"bytes32"}]},{"type":"error","name":"AlreadyPaused","inputs":[]},{"type":"error","name":"ContractPaused","inputs":[]},{"type":"error","name":"InvalidAmount","inputs":[]},{"type":"error","name":"InvalidBeneficiary","inputs":[]},{"type":"error","name":"InvalidDuration","inputs":[]},{"type":"error","name":"InvalidPresale","inputs":[]},{"type":"error","name":"InvalidTokenAddress","inputs":[]},{"type":"error","name":"NoTokensToRelease","inputs":[]},{"type":"error","name":"NotPaused","inputs":[]},{"type":"error","name":"ReentrancyGuardReentrantCall","inputs":[]},{"type":"error","name":"SafeERC20FailedOperation","inputs":[{"name":"token","type":"address","internalType":"address"}]}],"bytecode":{"object":"0x608060405234602357600180556013336027565b5060405161155790816100b08239f35b5f80fd5b6001600160a01b0381165f9081525f5160206116075f395f51905f52602052604090205460ff1660aa576001600160a01b03165f8181525f5160206116075f395f51905f5260205260408120805460ff191660011790553391907f2f8788117e7eff1d82e926ec794901d17c78024a50270940304540a733656f0d8180a4600190565b505f9056fe6080806040526004361015610012575f80fd5b5f3560e01c90816301ffc9a714610f43575080631916558714610c2d578063248a9ca314610c035780632f2ff15d14610bc657806336568abe14610b825780633f4ba83a14610b2157806350c4027814610a5b5780635c975abb14610a395780636152d848146109da5780638456cb591461097757806391d148541461092e578063a217fddf14610914578063a61dc00b1461087b578063aa77f26c1461084f578063ae5ad22714610815578063aeb506ea146107e1578063b40b223d146105bf578063cea9d26f146104e1578063d547741f1461049d5763de322908146100f8575f80fd5b346103045760c036600319011261030457610111610f96565b610119610fac565b90604435916001600160a01b03831680930361030457335f9081527f90fd55ceb663452644e110a0baa7233edcf7e07e293a5498f9dbac3f84d8a23b60205260409020546064359260a43591608435919060ff16156104665760ff60025416610457576001600160a01b0316928315610448576001600160a01b031693841561043957851561042a5780156102c457821561041b57835f52600560205260405f20855f5260205260405f20600581019081548560ff82165f1461034d57505060019150016101e882825461104a565b90555b6040516370a0823160e01b81523060048201526020816024818a5afa908115610310575f9161031b575b506102506040516323b872dd60e01b60208201523360248201523060448201528360648201526064815261024a608482611028565b886114cd565b6040516370a0823160e01b8152306004820152906020826024818b5afa80156103105783925f916102d3575b509061028791610feb565b036102c4577f0818d1da3bded782e0bbcaa25ed0b1502a281527846cea8fcc787ecd3d264c5d9260609260405192835260208301526040820152a4005b63162908e360e11b5f5260045ffd5b919250506020813d602011610308575b816102f060209383611028565b81010312610304575182919061028761027c565b5f80fd5b3d91506102e3565b6040513d5f823e3d90fd5b90506020813d602011610345575b8161033660209383611028565b8101031261030457515f610215565b3d9150610329565b60046001938b6001600160a01b031982541617815586858201555f6002820155876003820155015560ff1916179055845f52600460205260405f20845f5260205260ff60405f2054166101eb57845f52600360205260405f20805468010000000000000000811015610407576103c891600182018155610fc2565b81549060031b906001600160a01b0387831b921b1916179055845f52600460205260405f20845f5260205260405f20600160ff198254161790556101eb565b634e487b7160e01b5f52604160045260245ffd5b637616640160e01b5f5260045ffd5b630f58058360e11b5f5260045ffd5b631559b7d760e21b5f5260045ffd5b63b56fdfef60e01b5f5260045ffd5b63ab35696f60e01b5f5260045ffd5b63e2517d3f60e01b5f52336004527f64ed6499e2f5a7ea55dfd56da361bf9d48064843bb3891c36f1dabd9ba24613560245260445ffd5b34610304576040366003190112610304576104df6004356104bc610fac565b906104da6104d5825f525f602052600160405f20015490565b611383565b61144a565b005b34610304576060366003190112610304576104fa610f96565b610502610fac565b6001600160a01b0360443592610516611334565b1690811515806105ad575b156105685760206001600160a01b038261055d867f77023e19c7343ad491fd706c36335ca0e738340a91f29b1fd81e2673d44896c495876112f6565b6040519586521693a3005b60405162461bcd60e51b815260206004820152600f60248201527f496e76616c6964206164647265737300000000000000000000000000000000006044820152606490fd5b506001600160a01b0381161515610521565b34610304576020366003190112610304576105d8610f96565b6001600160a01b0381165f52600360205260405f2090604051808360208295549384815201905f5260205f20925f5b8181106107bf57505061061c92500383611028565b81519161062883611200565b926106366040519485611028565b808452610645601f1991611200565b015f5b818110610784575050906001600160a01b035f9116905b82518110156106ff57806001600160a01b0361067d60019386611218565b51165f52600560205260405f20835f5260205260405f2060ff6005604051926106a58461100c565b6001600160a01b038154168452858101546020850152600281015460408501526003810154606085015260048101546080850152015416151560a08201526106ed8287611218565b526106f88186611218565b500161065f565b836040518091602082016020835281518091526020604084019201905f5b81811061072b575050500390f35b91935091602060c060019260a087516001600160a01b03815116835284810151858401526040810151604084015260608101516060840152608081015160808401520151151560a082015201940191019184939261071d565b6020906040516107938161100c565b5f81525f838201525f60408201525f60608201525f60808201525f60a082015282828801015201610648565b84546001600160a01b0316835260019485019487945060209093019201610607565b3461030457604036600319011261030457602061080d6107ff610f96565b610807610fac565b9061116d565b604051908152f35b34610304575f3660031901126103045760206040517f64ed6499e2f5a7ea55dfd56da361bf9d48064843bb3891c36f1dabd9ba2461358152f35b3461030457604036600319011261030457602061080d61086d610f96565b610875610fac565b90611057565b3461030457604036600319011261030457610894610f96565b6001600160a01b036108a4610fac565b91165f5260056020526001600160a01b0360405f2091165f5260205260c060405f206001600160a01b0381541690600181015490600281015460038201549060ff6005600485015494015416936040519586526020860152604085015260608401526080830152151560a0820152f35b34610304575f3660031901126103045760206040515f8152f35b3461030457604036600319011261030457610947610fac565b6004355f525f6020526001600160a01b0360405f2091165f52602052602060ff60405f2054166040519015158152f35b34610304575f3660031901126103045761098f611334565b60025460ff81166109cb5760ff1916600117600255337f62e78cea01bee320cd4e420270b5ea74000d11b0c9f74754ebdbfc544b05a2585f80a2005b631785c68160e01b5f5260045ffd5b34610304576040366003190112610304576109f3610f96565b6001600160a01b0360243591165f52600360205260405f2090815481101561030457610a296001600160a01b0391602093610fc2565b90549060031b1c16604051908152f35b34610304575f36600319011261030457602060ff600254166040519015158152f35b34610304576020366003190112610304576001600160a01b03610a7c610f96565b165f52600360205260405f20604051806020835491828152019081935f5260205f20905f5b818110610b025750505081610ab7910382611028565b604051918291602083019060208452518091526040830191905f5b818110610ae0575050500390f35b82516001600160a01b0316845285945060209384019390920191600101610ad2565b82546001600160a01b0316845260209093019260019283019201610aa1565b34610304575f36600319011261030457610b39611334565b60025460ff811615610b735760ff1916600255337f5db9ee0a495bf2e6ff9c91a7834c1ba4fdd244a5e8aa4e537bd38aeae4b073aa5f80a2005b636cd6020160e01b5f5260045ffd5b3461030457604036600319011261030457610b9b610fac565b336001600160a01b03821603610bb7576104df9060043561144a565b63334bd91960e11b5f5260045ffd5b34610304576040366003190112610304576104df600435610be5610fac565b90610bfe6104d5825f525f602052600160405f20015490565b6113c3565b3461030457602036600319011261030457602061080d6004355f525f602052600160405f20015490565b3461030457602036600319011261030457610c46610f96565b600260015414610f3457600260015560ff60025416610457576001600160a01b03811690815f52600560205260405f206001600160a01b0333165f5260205260405f2060ff60058201541615610f2557610ca03383611057565b9060028101610e05815493610d97610cb88683610feb565b965f80610d1d610d2b604051610ccf604082611028565b601781527f2d2d2d2056657374696e672052656c65617365202d2d2d000000000000000000602082015260405192839163104c13eb60e21b602084015260206024840152604483019061122c565b03601f198101835282611028565b6020815191016a636f6e736f6c652e6c6f675afa50610d6f604051610d51604082611028565b600a8152692a34b6b2b9ba30b6b81d60b11b60208201524290611250565b604051610d7d604082611028565b6008815267283932b9b0b6329d60c11b60208201526112aa565b610dc8604051610da8604082611028565b600c81526b2132b732b334b1b4b0b93c9d60a11b602082015233906112aa565b604051610dd6604082611028565b601481527f546f74616c2056657374656420536f204661723a0000000000000000000000006020820152611250565b610e4683604051610e17604082611028565b601181527f416c72656164792052656c65617365643a0000000000000000000000000000006020820152611250565b610e8784604051610e58604082611028565b601e81527f43616c63756c617465642052656c65617361626c65202844656c7461293a00006020820152611250565b8315610f2557610e9f846001600160a01b039461104a565b9055610ee283604051610eb3604082611028565b601481527f5472616e7366657272696e6720416d6f756e743a0000000000000000000000006020820152611250565b610ef08333848454166112f6565b5416916040519182527f177de809d108c62a7ae835c49b0ab8ffeebcc7b3b4045930da8dfe54f6d9cddc60203393a460018055005b63094b911b60e41b5f5260045ffd5b633ee5aeb560e01b5f5260045ffd5b34610304576020366003190112610304576004359063ffffffff60e01b821680920361030457602091637965db0b60e01b8114908115610f85575b5015158152f35b6301ffc9a760e01b14905083610f7e565b600435906001600160a01b038216820361030457565b602435906001600160a01b038216820361030457565b8054821015610fd7575f5260205f2001905f90565b634e487b7160e01b5f52603260045260245ffd5b91908203918211610ff857565b634e487b7160e01b5f52601160045260245ffd5b60c0810190811067ffffffffffffffff82111761040757604052565b90601f8019910116810190811067ffffffffffffffff82111761040757604052565b91908201809211610ff857565b6001600160a01b03165f5260056020526001600160a01b0360405f2091165f5260205260405f206040519061108b8261100c565b6001600160a01b0381541682526001810154602083019281845260028301546040820152600383015490606081019282845260048501549160ff60056080830197858952015416159060a082159101526111635782421090811561115a575b508015611152575b611149576110ff9161104a565b42101561114357611111905142610feb565b9151828102928184041490151715610ff8575190811561112f570490565b634e487b7160e01b5f52601260045260245ffd5b50505190565b50505050505f90565b5080156110f2565b9050155f6110ea565b5050505050505f90565b6001600160a01b03165f5260056020526001600160a01b0360405f2091165f5260205260405f20604051906111a18261100c565b6001600160a01b03815416825260018101549182602082015260ff60056002840154938460408501526003810154606085015260048101546080850152015416159060a082159101526111fa576111f791610feb565b90565b50505f90565b67ffffffffffffffff81116104075760051b60200190565b8051821015610fd75760209160051b010190565b805180835260209291819084018484015e5f828201840152601f01601f1916010190565b61127f6112935f93928493604051938492632d839cb360e21b602085015260406024850152606484019061122c565b90604483015203601f198101835282611028565b6020815191016a636f6e736f6c652e6c6f675afa50565b6112e16112935f939284936001600160a01b0360405194859363319af33360e01b602086015260406024860152606485019061122c565b9116604483015203601f198101835282611028565b611332926001600160a01b036040519363a9059cbb60e01b602086015216602484015260448301526044825261132d606483611028565b6114cd565b565b335f9081527fad3228b676f7d3cd4284a5443f17f1962b36e491b30a40b2405849e597ba5fb5602052604090205460ff161561136c57565b63e2517d3f60e01b5f52336004525f60245260445ffd5b805f525f60205260405f206001600160a01b0333165f5260205260ff60405f205416156113ad5750565b63e2517d3f60e01b5f523360045260245260445ffd5b805f525f60205260405f206001600160a01b0383165f5260205260ff60405f205416155f146111fa57805f525f60205260405f206001600160a01b0383165f5260205260405f20600160ff198254161790556001600160a01b03339216907f2f8788117e7eff1d82e926ec794901d17c78024a50270940304540a733656f0d5f80a4600190565b805f525f60205260405f206001600160a01b0383165f5260205260ff60405f2054165f146111fa57805f525f60205260405f206001600160a01b0383165f5260205260405f2060ff1981541690556001600160a01b03339216907ff6391f5c32d9c69d2a47ea670b442974b53935d1edc7fd64eb21e047a839171b5f80a4600190565b905f602091828151910182855af115610310575f513d61151857506001600160a01b0381163b155b6114fc5750565b6001600160a01b0390635274afe760e01b5f521660045260245ffd5b600114156114f556fea2646970667358221220d0d887d4527389662264747c90cb432f0b8477dfdb93820cc2ea8431ebf27b3864736f6c634300081c0033ad3228b676f7d3cd4284a5443f17f1962b36e491b30a40b2405849e597ba5fb5","linkReferences":{}},"methodIdentifiers":{"DEFAULT_ADMIN_ROLE()":"a217fddf","VESTER_ROLE()":"ae5ad227","createVesting(address,address,address,uint256,uint256,uint256)":"de322908","getRoleAdmin(bytes32)":"248a9ca3","getUserPresales(address)":"50c40278","getUserSchedules(address)":"b40b223d","grantRole(bytes32,address)":"2f2ff15d","hasRole(bytes32,address)":"91d14854","pause()":"8456cb59","paused()":"5c975abb","release(address)":"19165587","remainingVested(address,address)":"aeb506ea","renounceRole(bytes32,address)":"36568abe","rescueTokens(address,address,uint256)":"cea9d26f","revokeRole(bytes32,address)":"d547741f","schedules(address,address)":"a61dc00b","supportsInterface(bytes4)":"01ffc9a7","unpause()":"3f4ba83a","userVestingSchedules(address,uint256)":"6152d848","vestedAmount(address,address)":"aa77f26c"},"id":59}